:020000040800F2
:10000000B048002049010008A1310008872A0008F3
:10001000CD2E0008D70A0008813E0008000000002D
:10002000000000000000000000000000393200085D
:10003000890D000800000000A3310008F535000814
:100040006301000863010008630100086301000800
:1000500063010008630100086301000863010008F0
:1000600063010008630100086301000863010008E0
:1000700063010008630100086301000863010008D0
:1000800063010008630100086301000863010008C0
:10009000753E000863010008630100086301000861
:1000A0006301000863010008630100085936000875
:1000B0005D360008C13700083539000863010008C3
:1000C0006301000863010008630100086301000880
:1000D00063010008693E000863010008630100082D
:1000E0006301000863010008630100086301000860
:1000F0006301000863010008630100086301000850
:10010000630100086301000863010008630100083F
:10011000630100086301000863010008630100082F
:10012000630100086301000863010008630100081F
:10013000DFF810D000F09CFC00480047C9490008D7
:10014000AFF30080B04800200648804706480047CB
:10015000FEE7FEE7FEE7FEE7FEE7FEE7FEE7FEE777
:10016000FEE7FEE75736000831010008202A04DBCD
:10017000203A21FA02F00021704721FA02F3D04020
:10018000C2F12002914008431946704740EA01033A
:100190009B0703D009E008C9121F08C0042AFAD23D
:1001A00003E011F8013B00F8013B521EF9D2704701
:1001B000D2B201E000F8012B491EFBD270470022A9
:1001C000F6E710B513460A4604461946FFF7F0FF56
:1001D000204610BDF0B480EA0102D40F4200B2EB19
:1001E000410F02D20246084611464A0042D0C30DD2
:1001F000DDB2C1F3C752AD1A202D35DAC1F31601B5
:1002000041F4000204B15242C5F1200602FA06F19F
:100210002A411044B3EBD05F23D0C4B1012DA0EB31
:10022000C35009DCF0BC4FF0004202EAC352DBB21B
:1002300000F5000000F058BA400000F1807000EBBB
:10024000C350A0F1807040EAD170490009E049082C
:1002500041EAC071A0EBC35000F50000400800EB7C
:10026000C350F0BC00F037BA6142012202EB4101F9
:10027000001BF6E7F0BC704781F00041AAE780F070
:100280000040A7E780EA010210B502F000434000F9
:1002900022D04A001FD0010E01EB1261C0F35600BC
:1002A000C2F3560240F4000042F40002A0FB022018
:1002B00000047F39140400D0401C50EA124001D4DD
:1002C0004000491EC2B20C0604EBD010401C40088E
:1002D000802A02D003E0002010BD20F00100002998
:1002E00000DA0020184310BD30B480EA010202F0A9
:1002F000004530F0004221F0004013D090B1C30D12
:10030000D40DC2F31601C0F31600E41A41F4000143
:1003100040F400027D34914201D3641C00E04900A6
:10032000002C02DA30BC002070474FF4000000239C
:10033000914201D3891A034340084FEA4101F7D1A2
:1003400051B1914202D14FF0004105E002D24FF08D
:10035000010101E06FF0010103EBC450284430BCFF
:1003600000F0B9B9420005D0C0F3C75252429142E1
:1003700001DC0020704700EBC15070472DE9FE4FB3
:1003800081EA030404F0004421F0004100944FF09E
:10039000000B23F0004350EA01045ED052EA03044C
:1003A0005BD0C3F30A54C1F30A552C44A4F2F334CE
:1003B0000194A0FB0254C1F3130141F48011C3F373
:1003C000130343F4801301FB024400FB034E840A31
:1003D000970A44EA815447EA8357A4FB07680295C9
:1003E0008D0A05FB07854FEA932C04FB0C54270567
:1003F000029D4FEA065847EA1637B5EB08056EEB43
:10040000070C870E920E47EA811742EA8312A7FB78
:100410000201B6EB0B0164EB00042B0D43EA0C3335
:100420005E1844EB1C50DA465146E7FB0201C5F367
:1004300013044FEA0B3343EA14534FEA0432019C8E
:1004400043EA0603A4F10C040294009CCDE900B435
:1004500000F087F903B0BDE8F08F00200146F9E70E
:100460002DE9F04D81EA030404F0004B21F0004532
:1004700014464FF0000A23F0004150EA050220D054
:1004800054EA01021DD0C5F30A570246C5F313030F
:10049000C1F31300C1F30A5640F4801543F48013EE
:1004A000A7EB0608101BD64608F2FD3873EB0500D3
:1004B00002D308F1010801E092185B41B8F1000F86
:1004C00003DA00200146BDE8F08D00204FF48011D2
:1004D000064684460EE0171B73EB050705D3121B77
:1004E00063EB050306434CEA010C49084FEA300070
:1004F00092185B4150EA0107EDD152EA030012D095
:1005000082EA040083EA0501084305D0101BAB41D1
:1005100006D20122002306E000224FF0004302E051
:100520006FF0010253101AEB06004CEB085110EB70
:100530000A0041EB0B01BDE8F04D00F003B9C10F1B
:1005400080EAE0700844CA079623002100F0CCB886
:1005500096230022114600F0C7B80EB540F2334191
:1005600002910021CDE900110A460B4600F0F9F88E
:1005700003B000BD00F0004220F00040C10DC0F308
:10058000160040F400007F2901DA00207047962908
:1005900003DCC1F19601C84001E096398840002A89
:1005A000F4D04042704720F00040C10DC0F3160067
:1005B00040F400007F2901DA00207047962903DC0F
:1005C000C1F19601C8407047963988407047C1F321
:1005D0000A5210B5C1F3130140F2FF3341F4801108
:1005E0009A4201DA002010BD40F233439A42A2F24F
:1005F000334203DC5242FFF7B9FD10BD904010BDFD
:1006000000F0004230F000400AD0C10D01F56071E9
:10061000C0F3160042EA0151C20840071143704777
:1006200000200146704701F0004330B421F0004142
:1006300050EA010206D00A0DA2F56072C1F313015F
:10064000002A02DC30BC00207047440F44EAC10499
:10065000C100E01830BC00EBC25000F03CB8000014
:10066000002801DBC0F10040002901DBC1F100419D
:10067000884270472DE9F05F0546002092469B4670
:1006800088460646814640241BE0284641464746A8
:100690002246FFF76BFD53465A46C01A914110D3CC
:1006A00011461846224600F0F5F92D1A67EB0108AD
:1006B0004F4622460120002100F0ECF917EB00091B
:1006C0004E41201EA4F10104DFDC484631462A4693
:1006D0004346BDE8F09F0029A8BF7047401C490071
:1006E00008BF20F00100704710B4B0FA80FC00FA97
:1006F0000CF050EA010404BF10BC704749B1CCF1C2
:10070000200421FA04F411FA0CF118BF012121434D
:100710000843A3EB0C01CB1D4FEA00614FEA102008
:1007200042BF002010BC704700EBC35010440029AA
:10073000A4BF10BC7047401C490008BF20F0010056
:1007400010BC704710B5141E73F1000408DA401C89
:1007500041F1000192185B411A4301D120F00100E0
:1007600010BD2DE9F04D92469B4611B1B1FA81F2D0
:1007700002E0B0FA80F22032904600F08BF9044695
:100780000F4640EA0A0041EA0B0153465A46084325
:1007900013D0114653EA010019D0C8F14002504667
:1007A000FFF7E4FC05460E4650465946424600F027
:1007B00071F9084305D0012004E020463946BDE820
:1007C000F08D0020054346EAE0762C4337430A9833
:1007D0006305E40AA0EB08000022FD0A44EA47543E
:1007E0000A3002D500200146E9E7010510196941E8
:1007F000DDE9084500196941BDE8F04DA2E72DE9A2
:10080000FE4F804681EA0300C00F0C46009021F0A5
:10081000004123F00045B8EB0200A94105D2404653
:10082000214690461C460B46024623F000401043EA
:1008300047D0270DC7F30A00C3F30A510290401AAC
:10084000019040286BDAC3F3130040F4801B00983A
:10085000924620B10023D2EB030A63EB0B0B019805
:100860005946C0F14002504600F014F906460D46C4
:1008700050465946019A00F01CF910EB08006141FE
:10088000002487EA115284EAE7731A4340D0009AA1
:1008900062B3019A012A4FEA075215DC001B61EB93
:1008A00002014FF0004202EA0752CDE90042001C6B
:1008B00041F5801132462B46FFF753FF03B0BDE8E8
:1008C000F08F40462146F9E7001B61EB0201001C56
:1008D00041F5801300185B412018A2F5001747EB83
:1008E000030140EAD570B6196D4111E06D084FEA79
:1008F000360645EAC0754FEA0752001B61EB02015C
:10090000001C41F5801149084FEA3000001951419F
:1009100032462B4603B0BDE8F04FFFF713BF0098F7
:10092000012240000023D0EB020263EBE073009849
:1009300021464FEAE074B8EB000061EB0401E9E7FF
:1009400083F000435BE781F0004158E770B521F088
:10095000004303430CD0C1F30A550024D5EB040532
:1009600064EB0403D617AD1AB34102DB0020014645
:1009700070BD201841EB025170BD2DE9F04D0023F0
:100980001A461B1A8A4103DB00200146BDE8F08DA0
:10099000C1F30A52C1F3130141F480154FF0000B6B
:1009A000D10702D100186D41521E0027044640F2C3
:1009B000FF11384601EB620A3E468046024600209F
:1009C0004FF48011FFF7D2FBC2197141BB1846EBFF
:1009D0000100B4EB030C75EB000C04D3E41A65EBD7
:1009E000000517460E46241908F101006D418046A6
:1009F0003428E3DDF91946EB0600091BA84103D2B0
:100A00004FF0FF32134601E0002213461BEB0700B4
:100A100046EB0A51BDE8F04DFFF794BE0EB5C10F8D
:100A200080EAE0700844CA07002140F233438DE8B1
:100A30000E000A460B46FFF794FE03B000BD00000F
:100A400030B5041E71F1000404DB4FF00044404255
:100A500064EB0101141E73F1000405DB1C464FF02A
:100A60000043524263EB0403994208BF904230BDF9
:100A7000064C074D06E0E06840F0010394E80700EB
:100A800098471034AC42F6D3FFF756FB205A0008C3
:100A9000405A0008202A04DB203A00FA02F1002024
:100AA00070479140C2F1200320FA03F319439040AC
:100AB0007047202A06DBCB17203A41FA02F043EABE
:100AC000E07306E041FA02F3D040C2F12002914007
:100AD000084319467047FEE72DE9F05F90460F4640
:100AE0004FF00009FFF72BFD7D4D2946FFF7CAFBAC
:100AF0007C4E3146FFF7F8FBFFF73CFD7A4C206057
:100B00003846FFF71CFD2946FFF7BCFB3146FFF7CF
:100B1000EBFBFFF72FFD60604FF0FF3529464046A5
:100B2000FFF720FC8346206861680844FFF707FD53
:100B30002946FFF717FC064659460846FFF7A2FB71
:100B400007462068FFF7FBFC3146FFF798FB0121C1
:100B5000FFF708FC3946FFF7C7FB20F0004080464E
:100B60005946FFF78FFB5946FFF78CFB5946FFF7B5
:100B700089FBDFF878A15146FFF7B6FB06462068EF
:100B8000FFF7DDFC5946FFF77DFB3146FFF722FBFF
:100B9000FFF7F0FC60616069FFF7D1FC0646606812
:100BA00021680844FFF7CBFC5946FFF76BFB314641
:100BB000FFF762FBFFF7DEFCA061A06961690844F2
:100BC000A060A068C00702D0A068401CA060A06818
:100BD000474E4FF6FF77B0F57A6F02DD0020BDE893
:100BE000F09F41465046FFF77FFBFFF709FD4FF0AE
:100BF000C042404B04F02EF9FFF715FD0146484670
:100C0000FFF7E8FA814629464046FFF7ABFB8046EE
:100C10004946FFF737FB4946FFF734FB0546206896
:100C2000FFF78DFC2946FFF7D5FAE0613068B0FB8D
:100C3000F7F0FFF78DFCE169FFF712FD05D830688A
:100C4000B0FBF7F0FFF784FCE061012542E000BF54
:100C500004EB8506B1694FF07E50FFF745FB014676
:100C60006069A84248461CDDFFF7B4FA8146404659
:100C70004946FFF707FB4946FFF704FB0746206894
:100C8000FFF75DFC3946FFF7A5FAF0616069401E89
:100C9000A8421ED159464846FFF7EEFA20F0004917
:100CA00017E0FFF797FA814601465846FFF7E4FA46
:100CB00020F0004740463946FFF7E4FA3946FFF78F
:100CC000E1FA07466068FFF73AFC3946FFF7D4FAC5
:100CD000F0616D1CA068A842BADC01207FE700002B
:100CE0000000C84500007042140600200000C0400B
:100CF000100000205555D53F10B586B001281FD0F3
:100D000002281BD1012919D00022012303241B48EA
:100D1000022925D0032911D1816941F0080181619F
:100D20008069694600F0080004901802CDE90003CC
:100D3000134800BFCDE9022400F0CEFA06B010BD82
:100D40000129FBD0022906D00329F7D106B0BDE85E
:100D5000104001F051BF06B0BDE8104001F0FEBFE9
:100D6000816941F0080181618069694600F00800ED
:100D700004901020CDE900030248DBE70010024098
:100D800000080140000C0140704772B6FEE7704752
:100D90002DE9F05F0546006800244669D0F804900C
:100DA0008768D0F80CB0D0F810A0D0F81880F10700
:100DB00048D0F90714D001218160B80703D528462F
:100DC00000F0B6F90CE0780702D54FF4006407E0B4
:100DD000380702D54FF4805402E0284600F0A7F906
:100DE000F80516D529684FF480708860B80503D5DA
:100DF000284600F09FF90CE0780502D544F4005431
:100E000007E0380502D544F4804402E0284600F0AB
:100E100090F9F80316D529684FF480308860B8033C
:100E200003D5284600F088F90CE0780302D544F495
:100E3000004407E0380302D544F4803402E0284639
:100E400000F079F9300707D55FEACB6004D529684F
:100E5000102044F40074C86070074FF0080707D5ED
:100E60005FEA0B7004D52868C760284600F05AF97D
:100E7000B00706D52868C068800702D0284600F071
:100E800052F9700607D55FEACA6004D529681020B8
:100E900044F480640861B00607D55FEA0A7004D59F
:100EA00028680761284600F03FF9F00606D5286853
:100EB0000069800702D0284600F037F9B00308D552
:100EC0005FEAC96005D5296810204860284600F00F
:100ED0002DF9F00307D55FEA097004D5286847604B
:100EE000284600F02AF9300446D55FEA497040D51B
:100EF000F00504D55FEAC87001D044F00104B005E4
:100F000004D55FEA887001D544F00204700504D569
:100F10005FEA487001D544F00404300529D518F083
:100F2000700F26D008F07000402815D006DC10287D
:100F300009D020280AD0302816D10AE050280ED037
:100F4000602811D10EE044F008040DE044F01004D4
:100F50000AE044F0200407E044F0400404E044F0D8
:100F6000800401E044F480742868816921F07001F4
:100F70008161296804204860002C05D0686A2043FC
:100F800068622846FFF703FFBDE8F09F70B50400D4
:100F900003D094F8200010B104E0012070BD204679
:100FA00000F082F82068016841F00101016000F062
:100FB000A1FA0546052604E000F09CFA401B0A2829
:100FC00011D820684068C007F6D02068016821F079
:100FD0000201016000F08EFA05460BE000F08AFA8B
:100FE000401B0A2806D9606A40F40030606284F829
:100FF0002060D2E7206840688007EFD4207E012877
:10100000206801683DD021F080010160607E0128E8
:101010002068016838D021F040010160A07E0128DD
:101020002068016833D021F020010160E07E0128B2
:10103000206801682ED041F010010160207F012856
:101040002068016829D021F008010160607F012833
:101050002068016824D021F004010160D4E9020174
:101060000843D4E90412114308436168491E084348
:101070002168C86100206062012084F820000020FF
:1010800070BD41F08001C0E741F04001C5E741F08B
:101090002001CAE721F01001CFE741F00801D4E7B1
:1010A00041F00401D9E7000010B586B0002100919D
:1010B0000191029103910068174988422AD117488B
:1010C000C16941F00071C161C16901F00071049111
:1010D000816941F0040181618069114C00F00400D4
:1010E00004904FF4006000906946204600F0F4F848
:1010F000A01400900220019003200390694620462E
:1011000000F0EAF800221146142000F051FB1420F0
:1011100000F040FB06B010BD00640040001002402B
:10112000000801407047704770477047704770472C
:1011300070477047704770477047704710B590F818
:1011400021100022022905D00421816380F820208B
:10115000012010BD01680B6823F00E030B600168CD
:101160000B6823F001030B6090F84030C46B012141
:1011700001FA03F3636080F8211080F82020104604
:1011800010BD00002DE9F05F90F821100024022925
:1011900003D004218163012485E001680A6822F0FC
:1011A0000E020A6001680A6822F001020A603F4EDE
:1011B0003E4FB215DFF8F4C0DFF8F090DFF8ECA096
:1011C000DFF8E8B0DFF8E4E00168783F13011502CA
:1011D000ACF1640CA9F15009AAF13C0AABF1280B5F
:1011E000AEF1140E4FF48018B14227D9B9420ED097
:1011F000614512D049451DD0514518D0594518D0E8
:10120000714501D1424615E0294EB14201D101227A
:1012100010E0274E1436B14201D110220AE0244ECC
:101220002836B14206D0224A3C32914201D11A46B8
:1012300000E02A461E49091F0A602BE0B94213D07C
:10124000614517D0494522D051451DD059451DD083
:10125000714501D142461AE0B14202D14FF080728D
:1012600015E0134EB14201D1012210E0104E1436A8
:10127000B14201D110220AE00D4E2836B14206D00B
:101280000B4A3C32914201D11A4600E02A460749F6
:1012900080394A60012180F82110002180F8201057
:1012A000416B01B188472046BDE8F09F80000240B5
:1012B0000804024070B5044600F01CF90546601CA5
:1012C00002D004480078044400F014F9401BA04206
:1012D000FAD370BD040000202DE9F84FDFF8C89163
:1012E0000024A9F1040B23460F2709F1040AABF1EE
:1012F000040ED1E00125A54006EA0502AA4276D1F6
:10130000DFF8A8C14E68A6EB0C0866452BD00DDCB3
:10131000032E34D005DC36B3012E19D0022E2FD186
:101320001BE0112E16D0122E2AD119E0B8F5881F15
:1013300019D006DCB8F5803F15D0B8F5801F1FD155
:1013400011E0B8F5001F0ED0B8F5041F18D10AE05F
:10135000CB6815E0CB681B1D12E0CB6808330FE0AB
:10136000CB680C330CE08B682BB1012B4FF00803DA
:1013700003D0456104E0042302E0056100E000239E
:10138000FF2A01D8064601E000F104064FEA840571
:1013900001D9A5F12005D6F8008007FA05FC28EA56
:1013A0000C0803FA05F548EA0508C6F800804D6800
:1013B000ED0070D53E4DAE6946F00106AE61AD69F7
:1013C00024F0030605F0010500953A4D06EB050CE7
:1013D000DCF80850A607360F07FA06F825EA0805D4
:1013E000DFF8D480404503D14FF0000825E052E0FB
:1013F000DFF8C880404502D14FF001081DE0DFF85A
:10140000C080404502D14FF0020816E0DFF8B480FA
:10141000404502D14FF003080FE0DFF8AC804045B3
:1014200002D14FF0040808E0DFF8A080404502D167
:101430004FF0050801E04FF0060808FA06F848EA00
:101440000508CCF808804D68D9F80060ED024D46DB
:1014500001D5164300E096432E604D68DAF800602F
:10146000AD02554601D5164300E096432E604D6807
:10147000DBF80060AD035D4601D5164300E09643FE
:101480002E604D68DEF80060ED03754601D5164309
:1014900000E096432E60641C0A681646E2407FF422
:1014A00029AFBDE8F88F00000804014000001110CA
:1014B000001002400000014000080140000C014003
:1014C000001001400014014000180140001C0140C0
:1014D0008068084000D001207047C26821EA0203FA
:1014E0000A4043EA0241016170470AB10161704755
:1014F0000904FBE7014880687047000004000020F1
:1015000070B5040025D094F83D00002520B984F87A
:101510003C50204600F0B8F8242084F83D002068B4
:10152000016821F0010101602068016841F4004177
:1015300001602068016821F40041016000F000FAB8
:101540004D4A6168914201D84C4900E04C498842BB
:1015500001D2012070BD4B492368B0FBF1F15E68F8
:1015600026F03F060E435E606368934206D94FF44F
:10157000967359434FF47A73B1FBF3F12368491C16
:101580001E6A26F03F06314319626168914210D805
:101590004900401EB0FBF1F2521CC2F30B02042AB8
:1015A00001D2042022E0B0FBF1F0401CC0F30B009C
:1015B0001CE0A268F2B301EBC10303EB0116431E6A
:1015C000B3FBF6F35B1C43F480431B0549D092B395
:1015D00001EBC10202EB0111401EB0FBF1F0401C17
:1015E000C0F30B0040F4804040F400402168CA6919
:1015F0004CF6FF739A431043C861D4E907100143C6
:101600002068026822F0C00211430160D4E903019E
:1016100001432068826848F2FF339A431143816096
:10162000D4E9050108432168CA6822F0FF0210438B
:10163000C86001E00EE016E02068016841F0010199
:1016400001602564202084F83D00256384F83E5025
:10165000002070BD01EB4106431EB3FBF6F35B1C9B
:10166000B3E70120C2E701EB4101401EB0FBF1F0FE
:10167000401CC0F30B00B7E7A086010080841E0069
:1016800000093D0040420F0010B586B000210091D6
:1016900001910291039100680F4988421AD10F4CC1
:1016A000A06940F00800A061A069694600F0080048
:1016B0000490C0200090122001900320039008485D
:1016C000FFF70AFEE06940F40010E061E06900F411
:1016D0000010049006B010BD0054004000100240FD
:1016E000000C014002488168027811448160704713
:1016F00004000020074810B5016841F010010160A6
:10170000032000F075F80F2000F006F800F024F830
:10171000002010BD0020024070B50D4D04464FF46E
:101720007A712878B1FBF0F00A490968B1FBF0F052
:1017300000F0DCFA48B9102C07D200222146501ED6
:1017400000F036F800206C6070BD012070BD000014
:1017500004000020100000200C4808B5816941F009
:1017600001018161816901F001010091C16941F0CC
:101770008051C161C06900F0805000900448416808
:1017800021F0E06141F00071416008BD00100240AD
:1017900000000140002809DB00F01F0201219140F8
:1017A0004009800000F1E020C0F8001170470000FF
:1017B000F0B40E4B1B680C46C3F30223C3F10705BC
:1017C000042D00D90425191D072901D2002300E0AA
:1017D000DB1E012606FA05F1491E214099409E4074
:1017E000761E16403143F0BC02F070BB0CED00E0F9
:1017F000064900F0070208684FF6FF03184040EA68
:101800000220034A10430860704700000CED00E01E
:101810000000FA052DE9F0470F46050061D0434E60
:10182000306800F00700B84209D2306820F00700A5
:1018300038433060306800F00700B84251D1286862
:101840003B4C810712D5400703D5606840F4E06047
:1018500060602878000703D5606840F460506060DD
:101860006068A96820F0F000084360602878C0072D
:1018700028D06868012810D02168022810D0890774
:1018800000292EDA616821F0030101436160FFF74E
:1018900031FE804641F288390DE021688903EFE787
:1018A0008901EDE7FFF726FEA0EB0801494502D9C3
:1018B0000320BDE8F0876068696800F00C00B0EBB9
:1018C000810FEFD1306800F00700B8420BD93068C3
:1018D00020F0070038433060306800F00700B8425D
:1018E00001D00120E5E72878400705D56068E96860
:1018F00020F4E060084360602878000706D560683F
:10190000296920F4605040EAC100606000F038F8B6
:101910006168084AC1F30311515CC8400649086078
:1019200006480068FFF7F8FE0020C2E700200240EA
:10193000001002407259000810000020080000202A
:101940000448054900684968044AC1F30221515C12
:10195000C840704710000020001002408259000863
:101960000448054900684968044AC1F3C221515C32
:10197000C840704710000020001002408259000843
:101980000E4A51680E4801F00C03042B11D0082BAD
:101990000FD10C48C1F38343C903C05C0AD5516819
:1019A000084AC1F34041921E515C054A5043B0FBC6
:1019B000F1F07047044948437047000000100240AE
:1019C00000127A006259000800093D002DE9F84F25
:1019D000040070D02078C04DC00749D06868C0F3BB
:1019E0008100012807D06868C0F38100022809D16E
:1019F0006868C00306D52868800339D56068002868
:101A0000E7D035E06068B0F5803F0BD010B1B0F59D
:101A1000A02F11D0286820F480302860286820F496
:101A2000802002E0286840F480302860606890B12F
:101A3000FFF760FD06460AE0286840F48020286031
:101A4000F0E700BFFFF756FD801B642873D82868B5
:101A50008003F7D50CE0FFF74DFD064605E000BF1B
:101A6000FFF748FD801B6428F0D828688003F7D46E
:101A700020789A4E80074FF001094FF0000839D5C1
:101A8000686810F00C0F07D06868C0F38100022866
:101A900009D16868C00306D42868800714D5206976
:101AA000012808D110E02069B0B1C6F80090FFF716
:101AB00021FD074605E00AE1FFF71CFDC01B0228D7
:101AC000C4D828688007F7D52868616920F0F80035
:101AD00040EAC10028600DE0C6F80080FFF70AFD6B
:101AE000074604E0FFF706FDC01B022823D828683C
:101AF0008007F7D4207800072CD57948A169D9B19F
:101B0000C0F80090FFF7F6FC074604E0FFF7F2FC90
:101B1000C01B02280FD8686A8007F7D571484FF4B8
:101B2000FA510068B0FBF1F0009000BF0098411E30
:101B30000091FAD20EE080E0C0F80080FFF7DAFCF6
:101B4000074604E0FFF7D6FCC01B022875D8686A78
:101B50008007F7D42078400760D5E8690027C000E7
:101B600008D4E86940F08050E861E869012700F096
:101B7000805000905C480168C90513D40168834611
:101B800041F480710160FFF7B5FC824606E000BFBA
:101B9000FFF7B0FCA0EB0A0064284ED8DBF8000089
:101BA000C005F5D5E06801280AD008B1052813D092
:101BB000286A20F001002862286A20F0040002E070
:101BC000286A40F001002862E06841F2883B98B141
:101BD000FFF790FC82460BE0286A40F00400286280
:101BE000EEE700BFFFF786FCA0EB0A0159455AD883
:101BF000286A8007F6D50CE0FFF77CFC824605E0FA
:101C0000FFF778FCA0EB0A0159454CD8286A8007F9
:101C1000F6D41FB1E86920F08050E861E06988B32C
:101C20006968C1F38101022944D00228C6F86080A6
:101C300004D0FFF75FFC044638E034E0FFF75AFCBD
:101C4000074604E0FFF756FCC01B02282BD8286883
:101C50008001F7D4206AB0F5803F05D16868A1689B
:101C600020F4003008436860D4E90801084369683B
:101C700021F4741108436860C6F86090FFF73AFCDD
:101C8000044606E025E000BFFFF734FC001B0228F5
:101C900009D828688001F7D51BE000BFFFF72AFCB0
:101CA000001B022802D90320BDE8F88F28688001B4
:101CB000F4D40EE00128F7D06868226A00F480317D
:101CC000914204D1616A00F47010884201D0012071
:101CD000EAE70020E8E7000000100240000042426E
:101CE00080044242100000200070004010B5401EE9
:101CF000B0F1807F01D3012010BD4FF0E02460617E
:101D00000F21601702F0E2F80020A0610720206197
:101D1000002010BD7047704710B590F83C20012A94
:101D200022D0012280F83C20CA688C6822F44072DC
:101D300022434C6822F4806222430C6822F4006241
:101D400022430C6922F4805222434C6922F400524F
:101D50002243C969002322F480420A4301684A648D
:101D600080F83C30002010BD022010BD70B590F806
:101D70003C20012A2CD0012480F83C40022280F82B
:101D80003D2003685A689D6822F070060A68324355
:101D90005A60104B02689A420ED00F4B9A420BD0F9
:101DA000B2F1804F08D00D4B9A4205D00C4B9A42AD
:101DB00002D00C4B9A4204D1496825F080031943A4
:101DC000916080F83D40002180F83C10084670BDCD
:101DD000022070BD002C014000340140000400408E
:101DE00000080040000C004010B5040003D094F837
:101DF0003D0010B107E0012010BD002084F83C0038
:101E0000204600F01FF8022084F83D00211D2068C4
:101E100001F096FD012084F8460084F83E0084F825
:101E20003F0084F8400084F8410084F8420084F8C0
:101E3000430084F8440084F8450084F83D00002005
:101E400010BD000008B5274A0168274891420ED10D
:101E5000816941F4006181618069002200F40060C1
:101E6000009011461B20FFF7A3FC1B2034E0B1F1CA
:101E7000804F11D01D4A91421DD1C16941F002012C
:101E8000C161C069002200F00200009002211D2003
:101E9000FFF78EFC1D201FE0C16941F00101C16107
:101EA000C069002200F00100009002211C20FFF711
:101EB0007FFC1C2010E00E4A914211D1C16941F013
:101EC0000401C161C069002200F0040000900221F9
:101ED0001E20FFF76DFC1E20BDE80840FFF75ABC2E
:101EE00008BD0000002C014000100240000400402A
:101EF0000008004090F83D10012901D001207047F2
:101F0000022180F83D100168CA6842F00102CA60EF
:101F100000680E4988420ED00D4988420BD0B0F1BE
:101F2000804F08D00B49884205D00B49884202D027
:101F30000A49884204D1816801F00701062903D0CB
:101F4000016841F00101016000207047002C014050
:101F5000003401400004004000080040000C004034
:101F60000168CA6822F00102CA6001680A6A41F287
:101F700011131A4207D10A6A9B101A4203D10A6848
:101F800022F001020A60012180F83D100020704714
:101F900070B5044690F83C000025012817D00126B2
:101FA00084F83C60022084F83D002068826822F0BA
:101FB000770222F47F4282600868502838D00DDC16
:101FC00020284FD005DC90B3102811D14AE0022020
:101FD00070BD302846D040280AD13BE060282FD081
:101FE00070280DD0B0F5805F03D0B0F5005F12D03F
:101FF000012584F83D60002084F83C00284670BD2F
:10200000CB68D1E90121206801F0F5FC20688168E6
:1020100041F0770109E0CB68D1E90121206801F0A6
:10202000EAFC2068816841F480418160E1E719E0C1
:10203000CA684968206801F0B3FD5021206806E0B5
:10204000CA684968206801F0BCFD6021206801F081
:10205000DCFCCEE7CA684968206801F0A1FD402198
:102060002068F4E7226801461046F0E770472DE942
:10207000F04104460068C66805694FF00007A907EB
:1020800013D5B10711D5F91E016101202077206811
:1020900080698007204602D0FFF7E8FF04E000F0E7
:1020A00002F9204600F090FA2777680716D57007E6
:1020B00014D521686FF004000861022020772068A1
:1020C000806910F4407F204602D0FFF7CFFF04E084
:1020D00000F0E9F8204600F077FA2777280715D5B1
:1020E000300713D521686FF00800086104202077BD
:1020F0002068C0698007204602D0FFF7B7FF04E0E0
:1021000000F0D1F8204600F05FFA2777E80616D5F0
:10211000F00614D521686FF01000086108202077C0
:102120002068C06910F4407F204602D0FFF79EFF70
:1021300004E000F0B8F8204600F046FA2777E807F8
:1021400008D0F00706D021686FF001000861204632
:1021500000F03CFA280608D5300606D521686FF055
:10216000800008612046FFF7D5FD680608D5700697
:1021700006D521686FF040000861204600F03EFA65
:10218000A8060AD5B00608D521686FF020000861BE
:102190002046BDE8F041FFF7BEBDBDE8F08100007C
:1021A00010B586B000210091019102910391234C5A
:1021B0000368234902222348A34209D18B6943F0D3
:1021C00004038B61896901F00401049181150EE01B
:1021D000B3F1804F0FD01C4CA3421DD18B6943F04B
:1021E00004038B61896901F0040104918021CDE928
:1021F000001203920AE08B6943F004038B61896942
:10220000009201F004010192CDE903214FEA0D0192
:10221000FFF762F806B010BD0C488342FAD1886916
:1022200040F0080088618869694600F00800049061
:102230005815CDE9000206480392E9E7002C014059
:102240000010024000080140000400400008004067
:10225000000C014070B5044690F83C0000250128B0
:102260000FD0012084F83C006AB1042A0FD0082A5C
:1022700011D00C2A13D00125002084F83C002846F8
:1022800070BD022070BD206801F0C8FBF4E7206833
:1022900001F0F4FBF0E7206801F026FCECE7206891
:1022A00001F056FCE8E7704710B5040003D094F83D
:1022B0003D0010B107E0012010BD002084F83C0073
:1022C000204600F01EF8022084F83D00211D206801
:1022D00001F036FB012084F8460084F83E0084F8C3
:1022E0003F0084F8400084F8410084F8420084F8FC
:1022F000430084F8440084F8450084F83D00002041
:1023000010BD704730B500250446022249B10429AA
:1023100012D0082946D094F8410001284DD0012060
:1023200030BD94F83E000128F9D184F83E202068A1
:10233000C26842F0020209E094F83F000128EED1A1
:1023400084F83F202068C26842F00402C260012283
:10235000206801F043FB1E4920681E4A884201D0D4
:10236000904203D1436C43F40043436420688842A5
:102370000DD090420BD0B0F1804F08D01649884262
:1023800005D01649884202D01549884204D1816897
:1023900001F00701062903D0016841F00101016045
:1023A000284630BD94F840000128B8D184F8402078
:1023B0002068C26842F00802C8E784F841200C296E
:1023C00001D00125ECE72068C26842F01002BDE7A9
:1023D000002C01400034014000040040000800408F
:1023E000000C004070B50D0004464FF0000607D009
:1023F000042D0AD0082D0DD00C2D10D001263FE061
:102400002068C16821F002010DE02068C16821F058
:10241000040108E02068C16821F0080103E0206899
:10242000C16821F01001C16000222946206801F036
:10243000D5FA194B41F2111120688A10984202D046
:10244000164B984209D1036A0B4206D1036A134224
:1024500003D1436C23F4004343642068036A0B42B6
:1024600006D1016A114203D1016821F00101016026
:1024700001203DB1042D08D0082D09D084F8410079
:10248000304670BD84F83E00FAE784F83F00F7E775
:1024900084F84000F4E70000002C014000340140C3
:1024A00070B5044690F83C0000260D4601280FD078
:1024B000012084F83C006AB1042A1DD0082A2FD0DC
:1024C0000C2A3FD00126002084F83C00304670BD25
:1024D000022070BD206801F0A1FA2068816941F0F6
:1024E000080181612068816921F00401816120680F
:1024F00081692A69114311E0206801F0BFFA206860
:10250000816941F4006181612068816921F4806101
:102510008161206881692A6941EA02218161D2E7EB
:10252000206801F0E1FA2068C16941F00801C16149
:102530002068C16921F00401C1612068C1692A696C
:10254000114311E0206801F003FB2068C16941F4E8
:102550000061C1612068C16921F48061C1612068A6
:10256000C1692A6941EA0221C161ACE710B50400E2
:1025700003D094F83D0010B107E0012010BD002009
:1025800084F83C00204600F01EF8022084F83D004C
:10259000211D206801F0D4F9012084F8460084F858
:1025A0003E0084F83F0084F8400084F8410084F83D
:1025B000420084F8430084F8440084F8450084F81D
:1025C0003D00002010BD70477047000000680849BA
:1025D000884201D101F0FAB80649884201D101F0E0
:1025E00043B80549884201D100F006BF704700009A
:1025F0000008004000040040002C01407047704774
:1026000070470000F8B5016804460868CA684B695D
:1026100010F00F0F4FF0000559D003F0010602F43F
:102620009077374365D0C10705D0D10503D5616CDC
:1026300041F001016164410705D5D90703D0616C00
:1026400041F002016164810705D5D90703D0616CAF
:1026500041F004016164010707D502F02001314314
:1026600003D0616C41F008016164616C00293AD0CB
:10267000800604D5900602D5204601F0E3FA2068D2
:102680004069616CC0F38010090700D460B3204634
:1026900001F0B1FA20684069400621D52068143065
:1026A00050E8001F21F0400140E80012002AF5D157
:1026B000E06BA8B16D494163E06BFEF763FD002854
:1026C00011D0E06B416B01B0BDE8F04008478306D4
:1026D0000FD593060DD52046BDE8F84001F0B2BAFB
:1026E0002046FFF78DFFF8BD2046FFF789FF6564A0
:1026F000F8BD266B2023012E7CD1C6067AD5D606DE
:1027000078D508684868009048694FF0020640068E
:1027100040D5E16B086840680004000CE8D0A28D49
:102720008242E5D9E085886920282DD020680C30C8
:1027300050E8001F21F4807140E80012002AF5D112
:102740002068143050E8001F21F0010140E8001219
:10275000002AF5D12068143050E8001F21F0400114
:1027600040E80012002AF5D184F842302563206841
:102770000C3050E8001F21F0100140E80012002A40
:10278000F5D1E06BFEF7DAFC6663A08DE18D401AAF
:1027900081B22AE0A08DE18D401A81B2E08D00283F
:1027A000A6D00029A4D022680C3252E8000F20F4F1
:1027B000907042E80007002FF5D12068143050E8EF
:1027C000002F22F0010240E80027002FF5D184F805
:1027D0004230256320680C3050E8002F22F01002B0
:1027E00040E80023002BF5D166632046FFF707FF82
:1027F000F8BDFFE705062BD5150629D594F841004D
:102800002128F5D1A068B0F5805F01D12069B0B171
:10281000206A411C2162216800784860E08C401EDB
:102820000004000CE084E3D12068C16821F080013D
:10283000C1602068C16841F04001C160D8E7206AEA
:102840000088C0F308004860206A801C2062E5E729
:102850004006CDD55006CBD5CA68204622F04002AE
:10286000CA6084F8413000F00DF9C1E7E73B000889
:1028700070B5040004D094F84100002510B106E0C2
:10288000012070BD84F84050204600F023F8242039
:1028900084F841002068C16821F40051C1602046DD
:1028A00001F032FA2068016921F490410161206849
:1028B000416921F02A0141612068C16841F4005159
:1028C000C1606564202084F8410084F8420065639B
:1028D000002070BD30B585B00024009401940294AE
:1028E00003940068184988422CD11848816941F442
:1028F00080418161816901F480410491816941F0E5
:10290000040181618069124D00F0040004904FF4CD
:102910000070009002200190032003906946284631
:10292000FEF7DAFC2815CDE9000469462846029432
:10293000FEF7D2FC002211462520FEF739FF2520A4
:10294000FEF728FF05B030BD0038014000100240FE
:102950000008014090F84230202B01D0022070473F
:1029600021B11AB10023036301F02ABA0120704794
:1029700070B50068174988422BD1184C164D0026B7
:1029800061782278685C12B1022A12D108E0EE2840
:102990000FD102202070EE2028700120607008E026
:1029A0006854491CC9B26170FF280BD0402900D37C
:1029B0002670607801222918BDE870400648483822
:1029C000FFF7C8BF85F840100349054800F013FC25
:1029D000EEE770BD00380140080300200000002031
:1029E000490300202DE9F843044690F84100984639
:1029F00016460D46202802D00220BDE8F88385B196
:102A00007EB100206064212084F84100FEF772FD51
:102A1000A6848146E684A0682027B0F5805F02D0B6
:102A200003E00120E9E7206910B12E4600250EE001
:102A300000260CE08021204601F0DDF9A8B9C6B1DE
:102A400016F8010B21684860E08C401EE084E08CA1
:102A50004B464FF00002CDF800800028EAD14FF03D
:102A60004001204601F0C7F940B184F841700320CD
:102A7000C3E735F8020BC0F30800E3E784F84170C0
:102A80000020BAE77047FEE72DE9F04115460E46F3
:102A90000746002404E03146384600F039FC641C47
:102AA000AC42F8DBBDE8F0810F4810B50D4901607C
:102AB0000821416000214FF08072C0E9021292119A
:102AC0000261D2004261017641768176C17601775A
:102AD0004177FEF75BFA002803D0BDE81040FEF70F
:102AE00054B910BD00640040240100202DE9F041DC
:102AF00086B000242D4800940194029403948169C7
:102B000041F020018161816901F020010491816916
:102B100041F010018161816901F010010491816926
:102B200041F004018161816901F00401049181692E
:102B300041F0080181618069DFF8748000F00800CD
:102B400041F60F450490002229464046FEF7CDFC91
:102B5000184F00223B213846FEF7C7FC009502269D
:102B600001250396CDE9015469464046FEF7B4FBC2
:102B70003B20CDE90005CDE9024669463846FEF71F
:102B8000ABFB4FF47040CDE900046946384602942F
:102B9000FEF7A2FB4FF47070CDE900046946404691
:102BA0000294FEF799FB06B0BDE8F08100100240E8
:102BB00000100140000C01400D4810B50B490160A8
:102BC0000C49416000214FF480428160C0E903124A
:102BD00041618161C1610162FEF792FC002803D06E
:102BE000BDE81040FEF7D1B810BD00000054004011
:102BF0004C010020A086010010B596B000240F946F
:102C000010941194129413941C2108A81494FDF7A5
:102C1000D6FA20216846FDF7D2FA294827490160F3
:102C20000121C0E901144FF6FE71C0E903148021AF
:102C3000C0E90541FFF7D8F808B1FEF7A6F84FF450
:102C400080500F900FA91E48FFF7A2F908B1FEF7B8
:102C50009CF81B48FFF728FB08B1FEF796F8139481
:102C600013A917481494FFF781F808B1FEF78DF8FF
:102C70003020CDE908040A940B940C940D940022A2
:102C800008A90F480E94FFF7E5FA08B1FEF77DF8A2
:102C900000944FF40050CDE9044002940194039451
:102CA000694607480794FFF737F808B1FEF76DF853
:102CB0000348FFF775FA16B010BD0000002C014064
:102CC000A001002010B58EB0002407940894099448
:102CD0000A940B941C2168460C94FDF770FA1E4868
:102CE0004FF0804101604721C0E901144FF47A712F
:102CF000C0E9031480218161FFF776F808B1FEF77F
:102D000044F84FF48050079007A91348FFF740F9A3
:102D100008B1FEF73AF81048FFF728FC08B1FEF7B3
:102D200034F80B940BA90C480C94FFF71FF808B16A
:102D3000FEF72BF86020CDE90004029404226946D6
:102D400005480494FFF7ACFB08B1FEF71EF80248F3
:102D5000FFF726FA0EB010BDE801002010B58EB0C6
:102D600000240794089409940A940B941C21684643
:102D70000C94FDF724FA1F481D4901604721C0E962
:102D800001144FF47A71C0E9031480218161FFF7C7
:102D90002BF808B1FDF7F9FF4FF48050079007A911
:102DA0001448FFF7F5F808B1FDF7EFFF1148FFF7FA
:102DB000DDFB08B1FDF7E9FF0B940BA90D480C945E
:102DC000FEF7D4FF08B1FDF7E0FF6020CDE9000475
:102DD00002940422694607480494FFF761FB08B196
:102DE000FDF7D3FF0348FFF7DBF90EB010BD00007D
:102DF000000400403002002010B58EB0002407947B
:102E0000089409940A940B941C2168460C94FDF7CD
:102E1000D6F91F481D4901604721C0E901144FF44C
:102E20007A71C0E9031480218161FEF7DDFF08B1EA
:102E3000FDF7ABFF4FF48050079007A91448FFF748
:102E4000A7F808B1FDF7A1FF1148FFF78FFB08B104
:102E5000FDF79BFF0B940BA90D480C94FEF786FF22
:102E600008B1FDF792FF6020CDE9000402940C2226
:102E7000694607480494FFF713FB08B1FDF785FF87
:102E80000348FFF78DF90EB010BD000000080040A8
:102E9000780200200C4810B50A4901604FF4E13176
:102EA0004160002181600C22C160C0E9041281618F
:102EB000C161FFF7DDFC002803D0BDE81040FDF73D
:102EC00064BF10BD00380140C0020020FEE70000D2
:102ED0002DE9F05FDFF8E490394C984617460E462E
:102EE00005464FF0FF3A4FF0140B012825D0002D76
:102EF00061D047F6B721B1FBF8F020613148B0FB53
:102F0000F6F0FDF72AFB02F091FC00222E4BFDF7B4
:102F100035FA00222D4BFDF7A3FAFDF758FB0246C8
:102F2000606006EB460040006421B0FBF1F108FB55
:102F300008F0B0FBF1F058B10BE0C4F814A0207811
:102F400020F00700801C20704FF47A70606026E04B
:102F5000012005FB07F1F319B1FBF3F101B90121E0
:102F6000814201D8481B03E07043B0FBF7F04042B8
:102F7000E06010B95046C4F80CA02844A060206955
:102F8000824205D86060207820F00700C01C03E072
:102F9000207820F00700401C20700020606199F824
:102FA000001041F0010189F8001009490A68C2F8CF
:102FB0002CB0C1F80CB0BDE8F09F00001400002058
:102FC000D8050020ACDF5F000068BA40000059401F
:102FD000780200202DE9F0470546194801EB410130
:102FE000174C50F8219000EB8100103CD0E901878C
:102FF0002078D60040F0050020700122110311480E
:10300000FEF773FA204615B1012D02D003E000212E
:1030100000E0012141703B46424649463046FFF7F9
:1030200057FF0948FEF766FF207805E00A20FEF703
:1030300041F92078410701D5C007F7D1BDE8F087F5
:103040002400002000100140780200202DE9F05FEC
:10305000DFF8DC90374C984617460E4605464FF091
:10306000FF3A4FF0140B012822D0002D5ED041F61C
:10307000AD61B1FBF8F020612F48B0FBF6F0FDF731
:103080006CFA02F0D3FB00222C4BFDF777F90022FB
:103090002B4BFDF7E5F9FDF79AFA024660606420D4
:1030A000B6FBF0F108FB08F0B0FBF1F058B10BE013
:1030B000C4F814A0207820F00700801C20704FF482
:1030C0007A70606026E0012005FB07F1F319B1FB7F
:1030D000F3F101B90121814201D8481B03E070439B
:1030E000B0FBF7F04042E06010B95046C4F80CA0C5
:1030F0002844A0602069824205D86060207820F0D2
:103100000700C01C03E0207820F00700401C20705E
:103110000020606199F8001041F0010189F8001069
:1031200008490A68C2F82CB0C1F80CB0BDE8F09F9D
:1031300054000020F0050020EBF717000068BA40AB
:10314000000059403002002070B51446124A01EBCD
:103150004103E50052F8231002EB83030E4CD3E940
:103160000123103C267846F005062670264608B155
:10317000012800D170702846FFF768FF0748FEF766
:10318000B9FE207805E00A20FEF794F82078410780
:1031900001D5C007F7D170BD6400002030020020C7
:1031A000FEE77047002180F88A1280F88B1280F8C1
:1031B0008C12704710B5044690F88C020B4600281C
:1031C00018D094F88A02412200EB801001191846A9
:1031D000FCF7DCFF94F88A020A21401CB0FBF1F2F4
:1031E00001FB120084F88A0294F88C02401E84F8D5
:1031F0008C02012010BD10B5044690F88C020A28FC
:1032000001D3002010BD94F88B02412200EB801006
:103210002044FCF7BBFF94F88B020A21401CB0FB52
:10322000F1F201FB120084F88B0294F88C02401C2E
:1032300084F88C02012010BD704700002DE9F05F7A
:10324000304D0E4641F65831298200212972E96A33
:10325000DFF8B4A0471893463B465246C8213C20AD
:1032600000F068F9294C2F6205E00A20FEF722F8E9
:1032700020780028F9D120780028F9D1C82001F061
:10328000C5FC4FF00009C6F10008A88B434601B207
:1032900052463C2000F04EF902E00A20FEF70AF800
:1032A00020780028F9D1A88B334601B252463C2041
:1032B00000F040F902E00A20FDF7FCFF207800282A
:1032C000F9D109F10109B9F14B0FDEDB06F57A708E
:1032D0004342A88B524601B23C2000F02BF902E099
:1032E0000A20FDF7E7FF20780028F9D1B81BA0F5E8
:1032F0007A704FF47A7128620BFB01F0BDE8F05F41
:10330000FDF7D8BF900000200AD7233C0806002014
:103310002DE9F05F42F2283AAAEB000541F288302D
:103320008B46854203D342F21C518D4200D905469B
:10333000C82001F06BFC2C4CDFF8B4904FF0010872
:1033400084F80880294B4A46C8213C2000F0F2F856
:10335000284E30780028FCD10A20FDF7ABFF00276B
:10336000394642F21070276201F080FC002150467D
:1033700001F07CFC2772216A4A46ABEB0103C821AD
:103380003C2000F0D7F841F2B44020624FF4FA60DC
:10339000FDF790FF0021284601F068FC4FF4FA7514
:1033A0002846FDF787FF84F80880104B4A46C8215D
:1033B0003C2000F0BFF830780028FCD10A20FDF74F
:1033C00079FF28462762FDF775FF42F21070FDF77E
:1033D00071FF002142F6041001F048FCBDE8F05FE7
:1033E00040F6B830FDF766BF90000020F0D8FFFF30
:1033F0000AD7233C080600202DE9F05F47490868FA
:10340000C268D243920772D46FF002028946026109
:10341000434C2078401C20702078424D022874D103
:103420000026267040480078012806D140213F48F8
:10343000FEF74EF8012800D12E702978394F4FF44D
:103440007A5A2837C1B33A484FF0FF3BA7F11C081E
:10345000012904D0022942D0032953D11BE06A6814
:10346000D8F80810491E8A4202D30220287033E09F
:103470000068FDF76DF8616808EB8101C969FCF728
:1034800033FF5946FCF76EFFFDF78DF82881606821
:10349000401C606036E06A68D8F81010491E8A4205
:1034A0000BD300211D48FEF79DFF51463846FCF71F
:1034B00086FE66602E7025E01BE00068FDF748F888
:1034C000626808EB8201C969FCF70EFF5946FCF7F8
:1034D00049FFFDF768F828816068401ED9E76868F1
:1034E000D8F80C1088420DD3032028700AE013E0AE
:1034F0000BE000210948FEF775FF51463846FCF7FE
:103500005EFE66606868401C6860D9F80010486A12
:103510002A89104480B24863BDE8F09FA0010020D2
:1035200088000020080600209800002000100140BC
:103530001000002070B5244D1C462B780BB10020E4
:1035400070BDFDF7C9FA0028FAD02048A60002D5C0
:103550007642002200E001222021FDF7C6FF1A4C2E
:103560000C34A068B6EB400F29DB26612069A16806
:10357000401AE06000262E606E60AE600120287068
:103580006E6013480068FCF7E3FFE169FCF7ACFEEE
:10359000711EFCF7E7FEFDF706F828810D4801686B
:1035A0004E62298900684163012200210A4800F027
:1035B00015FA00210748FEF7A5FE012070BD07A0FF
:1035C00000F060FCBBE7000008060020000C014092
:1035D00010000020A0010020002C0140BCD3BCF54D
:1035E000CBD9B2CECAFDC9E8D6C3B4EDCEF3A3A100
:1035F0000D0A0000FEF776B830B58FB02821684676
:10360000FCF7DDFD14210AA8FCF7D9FD012108040F
:10361000CDE900100024029402250491CDE9075061
:103620004FF4E01009906846FEF7D0F908B172B681
:10363000FEE70F20CDE90A054FF48060CDE90C408C
:1036400002210AA80E94FEF7E5F8002801D072B610
:10365000FEE70FB030BD7047FFF7CEBE0148FEF762
:1036600006BD0000E80100202DE9F0414D4D012785
:10367000A846687801280CD181034B48FDF728FF44
:1036800038B998F8000020F0040088F80000474896
:103690000770474C474A60684108116045490C393A
:1036A000086098F80010490703D4217821F0070139
:1036B00021702178404A11F007034FF0000C06D02A
:1036C000012B16D0022B4ED0032B68D139E0C5F860
:1036D00008C0C5F80CC0106820F010001060374812
:1036E000FEF73EFC98F8001021F0010188F8001068
:1036F00055E0136843F010031360AA68521CAA60D7
:103700006669761C6661EB6807EB860703EB40038E
:1037100093FBF7F6861B93FBF7F007FB1030E8608E
:10372000A068904202D8E068606118E02069B04269
:1037300035D36E60064621F00700C01CC5F80CC0EA
:103740002CE0106840F010001060A868401CA860D1
:10375000A2682669824222D8E06860616E6821F022
:103760000700801C1AE0136843F010031360AA6876
:10377000521CAA606269521C6261EB6807EB820707
:1037800003EB400393FBF7F6A0EB060693FBF7F081
:1037900007FB1030E86002D421F00700207066605B
:1037A000BDE8F08154000020000C01401901002008
:1037B000F0050020380400402004004030020020C2
:1037C0000148FEF754BC0000300200202DE9F0470C
:1037D000514D0127A846687801280CD101024F48B5
:1037E000FDF776FE38B998F8000020F0040088F85C
:1037F00000004B4807704B4C4B4A60684108116011
:1038000049491439086098F80030590703D42178E1
:1038100021F0070121702178444A11F0070C4FF084
:10382000000909D0BCF1010F1CD0BCF1020F53D02C
:10383000BCF1030F6CD13DE023F00401C5F8089002
:1038400088F80010C5F80C90106820F480501060C3
:103850003748FEF785FB98F8000020F0010088F853
:10386000000055E0136843F480531360AA68521CAB
:10387000AA606669761C6661EB6807EB860703EB56
:10388000400393FBF7F6861B93FBF7F007FB103022
:10389000E860A068904202D8E068606118E02069A2
:1038A000B04235D36E60064621F00700C01CC5F853
:1038B0000C902CE0106840F480501060A868401C08
:1038C000A860A2682669824222D8E06860616E68BA
:1038D00021F00700801C1AE0136843F48053136042
:1038E000AA68521CAA606269521C6261EB6807EB0D
:1038F000820703EB400393FBF7F6A0EB060693FB6E
:10390000F7F007FB1030E86002D421F007002070C8
:103910006660BDE8F0870000140000200010014040
:1039200018010020D8050020400800402008004071
:10393000780200200148FEF79ABB000078020020C0
:10394000F0B50268204C214D214E224F224B4FF002
:10395000804CA04209D0984207D0604505D0A842CB
:1039600003D0B04201D0B84204D122F0700E4A68B0
:1039700042EA0E02A04209D0984207D0604505D025
:10398000A84203D0B04201D0B84203D122F440751E
:10399000CA682A434D6922F080022A4302608A687D
:1039A000C2620A688262A04201D0984201D10969CC
:1039B0000163012141610169C90703D0016921F057
:1039C00001010161F0BD0000002C01400004004035
:1039D00000080040000C00400034014010B501F028
:1039E0001F030121046A99408C430462016A9A40D2
:1039F0001143016210BD10B5846842EA032224F429
:103A00007F440A432243826010BD826822F0700224
:103A10000A4342F00701816070470000F0B5036A75
:103A2000026A22F00102026242688469124E24F0A6
:103A300073050C682C4323F002058B682B430D4D56
:103A4000A84201D0B04205D123F00807CB683B4320
:103A500023F00403A84201D0B04205D14D6922F4FD
:103A6000407215438A692A43426084614968416310
:103A70000362F0BD002C014000340140F0B5026A41
:103A8000036A23F010030362436884690D6824F419
:103A9000E64444EA05248D6822F0200242EA051239
:103AA0000F4D104EA84201D0B04206D1CF6822F08F
:103AB000800242EA071222F04002A84201D0B0423E
:103AC00007D14D6923F4406343EA85038D6943EAD6
:103AD000850343608461496881630262F0BD000030
:103AE000002C014000340140F0B5026A036A23F45F
:103AF000807303624368C46922F4007224F0730582
:103B00000C68124E2C438D6842EA05220E4DA842E5
:103B100001D0B04206D1CF6822F4006242EA072207
:103B200022F48062A84201D0B04207D14D6923F44B
:103B3000405343EA05138D6943EA05134360C461AA
:103B40004968C1630262F0BD002C014000340140AD
:103B500030B5046A026A22F4805202624268C36984
:103B60000D6823F4E64343EA05238D6824F40054EA
:103B700044EA0534084DA84202D0084DA84204D1B9
:103B80004D6922F4804242EA85124260C36149686D
:103B90000164046230BD0000002C0140003401408B
:103BA00010B5036A046A24F001040462846924F0F5
:103BB000F00444EA021423F00A020A438461026218
:103BC00010BD10B5036A046A24F01004046284690D
:103BD00023F0A00324F4704444EA023243EA0111C2
:103BE0008261016210BD10B5406A0021C185C184A7
:103BF000FEF706FD10BD01680C3151E8002F22F4DC
:103C0000907241E80023002BF5D10168143151E88E
:103C1000002F22F0010241E80023002BF5D1016BB7
:103C2000012909D101680C3151E8002F22F010025E
:103C300041E80023002BF5D1202180F8421000211B
:103C40000163704708B590F84210222901D0022084
:103C500008BD82684FF480539A4201D1016921B1B5
:103C6000816A9A421BD04AB10AE00268816A5268AE
:103C7000C2F308020A80816A891C08E0026972B1F5
:103C80000268526802F07F020A70816A491C8162F0
:103C9000C18D491E0904090CC18503D01BE00268CF
:103CA0005268F1E70168CA6822F02002CA60016820
:103CB000CA6822F48072CA6001684A6922F001026F
:103CC0004A61202180F8421000214163026B012AE1
:103CD00003D0FEF74DFE002008BD016301680C31E2
:103CE00051E8002F22F0100241E80023002BF5D10B
:103CF00001680A68D20602D50A6849680091818D78
:103D0000FEF77DFCE7E7000070B504460068016936
:103D1000E26821F44051114301612169A068084320
:103D2000616908432168CA6841F20C639A430243FF
:103D3000CA6020684169A26921F440711143416160
:103D40001E492068884202D1FDF70AFE01E0FDF716
:103D5000F7FD00EBC00101EB0012606864218000F8
:103D6000B2FBF0F3B3FBF1F36FF018067343B2FB51
:103D7000F0F5B2FBF0F605EB8305322303EB0515F6
:103D8000B5FBF1F5B6FBF1F605F0F00505EB061510
:103D9000B2FBF0F6B2FBF0F0B0FBF1F06FF01802FE
:103DA000504306EB800003EB0010B0FBF1F02168FC
:103DB00000F00F002844886070BD0000003801400A
:103DC00081628285C28500214164222180F84210EF
:103DD000016921B10168CA6842F48072CA60016851
:103DE0004A6942F001024A610068C16841F020015D
:103DF000C160002070472DE9F843984617460D46EC
:103E00000446089E24E0701C22D0FDF773FBA0EB53
:103E10000800B0421AD8CEB12068C168490717D54A
:103E2000802D15D0402D13D00168C94309070FD448
:103E300001680025406800902046FFF7DCFE08205E
:103E4000606484F840500120BDE8F8830320FBE75C
:103E50002068006835EA000004D00020B842D2D0C3
:103E60000020F1E70120F9E70148FEF7CBBB000095
:103E7000C00200200148FCF78BBF00002401002095
:103E8000FEE700000FB4054B10B503A9044A0298E1
:103E900000F0B8F810BC5DF814FB0000D544000831
:103EA0001C010020490050EAC12018BF04204A0D1F
:103EB00018BF40F0010040F2FF72B2EB515F08BF43
:103EC00040F00200012808BF052070470907090ECD
:103ED000002804DB00F1E02080F80014704700F0B7
:103EE0000F0000F1E02080F8141D70472DE9F0412B
:103EF0004F1E00EBC7010446D1E9000115461E46DE
:103F000037F006020DD02A463346FCF737FA7F1EFB
:103F100004EBC703D3E90023FCF771FC37F006027A
:103F2000F1D1022F25D0042F13D0062F18BFBDE8E2
:103F3000F0812A463346FCF721FAD4E90A23FCF73C
:103F40005EFC2A463346FCF719FAD4E90823FCF74D
:103F500056FC2A463346FCF711FAD4E90623FCF74F
:103F60004EFC2A463346FCF709FAD4E90423FCF751
:103F700046FC2A463346FCF701FAD4E90223FCF753
:103F80003EFC2A463346FCF7F9F9D4E90023BDE8A4
:103F9000F041FCF734BC00000022134610460149F2
:103FA000FCF75EBA0000F03FFCF729BC0022134684
:103FB00010461146FCF754BA40F2013200204FF08F
:103FC000E041FCF7C3BC0000024A00201107FCF7E7
:103FD000BDBC000001FDFFFF02E008C8121F08C1C0
:103FE000002AFAD170477047002001E001C1121F7A
:103FF000002AFBD1704700000149086070470000AB
:10400000200100202DE9FF4F8DB00F460546002608
:1040100006E025280BD0DDE90F1290476D1C761CB9
:1040200028780028F5D111B03046BDE8F08F002483
:10403000A246A1460122E94900E0044315F8013FE8
:10404000203B02FA03F00842F7D128782A2810D042
:104050006FF02F022878A0F13001092914D80AEB5B
:104060008A0102EB410144F0020400EB010A6D1CDD
:10407000F0E701CF5FEA000A03D544F40054CAF127
:10408000000A44F002046D1C28782E2817D115F878
:10409000010F44F004042A280ED06FF02F02287874
:1040A000A0F1300109290AD809EB890102EB41018D
:1040B00000EB01096D1CF2E757F8049B6D1C287892
:1040C0006C280FD006DC4C2817D068280DD06A2841
:1040D00014D104E0742810D07A280FD10DE044F4F4
:1040E00000140AE044F4801401E044F440146978B8
:1040F000814202D104F580146D1C6D1C28786E2855
:104100001ED00CDC632830D004DC00288BD058286B
:1041100011D19FE0642867D069280CD164E073282E
:104120002DD004DC6F2872D0702804D194E075285B
:104130006ED078286DD0DDE90F129047761C4BE1E8
:10414000C4F30250022806D0032809D0042801CF66
:1041500009D0066040E101CFF117C0E900613BE101
:1041600001CF068038E1067036E117F8040B8DF8B0
:10417000000000208DF80100EB46012003E057F815
:1041800004BB4FF0FF3061074FF0000102D40DE097
:1041900008F10101884649450FDA8045F8DB1BF834
:1041A00008100029F4D108E008F101018846814295
:1041B000FADB1BF808100029F6D1DDE90F23AAEB82
:1041C00008008146214600F031F9304400EB080632
:1041D00004E0DDE90F121BF8010B9047B8F101086C
:1041E000F7D221464846F2E00A21C4F302524FF0CA
:1041F000000B0891022A04D001CFC117032A09D06D
:104200000AE0FF1D27F00707F7E8020108E02CE0AD
:104210001EE01FE000B2C117042A01D140B2C1174D
:10422000021E71F1000206DA0023D0EB030063EBFB
:1042300001012D2202E0220504D52B228DF8242035
:10424000012203E0E20701D02022F7E7904653E085
:104250000A210BE0102109E010214FF0000B44F07F
:1042600004044FF00809089103E008214FF0000B07
:104270000891C4F30252022A04D001CF0021032A7C
:1042800006D006E0FF1D27F00707F7E8020103E06C
:1042900080B2042A00D1C0B24FF0000822072BD50B
:1042A0002A78702A07D0DDF820C08CF0100C5CEA68
:1042B0000B0C05D00EE040228DF82420012208E0EE
:1042C00050EA010306D030238DF824308DF82520E4
:1042D00002229046089B83F0080353EA0B030BD19C
:1042E00050EA010201D1620706D530228DF8242060
:1042F0004FF00108A9F101092A78582A04D038A200
:104300000B9208AA0A920BE03AA2F9E75B46089AD8
:10431000FCF7B0F90B9B9B5C0A9A521E0A92137031
:1043200050EA0102F2D10A98ADEB000000F1200B37
:10433000600702D524F4803401E04FF00109D9452B
:1043400002DDA9EB0B0000E0002000EB0B01414473
:104350000890AAEB010AE00306D4DDE90F23214609
:10436000504600F063F806444FF0000908E009A940
:1043700011F80900DDE90F12904709F10109761CD7
:10438000C145F4DBE0030CD5DDE90F23214650469F
:1043900000F04CF8064404E0DDE90F1230209047AD
:1043A000761C0899481E08900029F5DC08E00A9858
:1043B0000A990078491C0A91DDE90F129047761C92
:1043C000BBF10001ABF1010BF1DC21465046DDE908
:1043D0000F2300F019F806446D1C21E6092801009E
:1043E000303132333435363738396162636465666B
:1043F000000000003031323334353637383941422D
:1044000043444546000000002DE9F04104460025E4
:104410001E461746880404D405E039462020B047DC
:104420006D1C641EF9D52846BDE8F0812DE9F041E8
:10443000044600251E469046C80301D5302700E0FB
:104440002027880404D505E041463846B0476D1C56
:10445000641EF9D52846BDE8F081000070B5154D01
:1044600006464FF4FA500C46288200F0EFFB05F1A7
:10447000400000EB840030F8040C80B200F00EFB2A
:104480000F2C14D041F2301000F08AFC288A801BD7
:1044900084B2204600F0DAFB00F0A2FCC83CA0B2D7
:1044A00000F0D4FBBDE87040002000F031BB40F6C6
:1044B0009210E9E79000002010B542F2283000F099
:1044C000C5FB4FF4FA60FCF7F5FEBDE81040002094
:1044D00000F0C6BB13B54FF6FF73012269460248D0
:1044E000FEF780FA00981CBDC00200202DE9F00301
:1044F000CD4C42F21071E078E579024630384843FD
:10450000217994F800C0894601EB4103C3EBC11146
:10451000637900EBC10003EBC30101EB0317A17941
:1045200000EB870001EB810600EB460041192046B5
:10453000A1F55041837840785039BCF1080F5AD228
:10454000DFE80CF05904F9F3F2F159F0B64A1026FD
:10455000D578303D7543167906EB4607C7EBC6168E
:1045600005EBC605567906EBC60707EB061605EB05
:1045700086059679D27906EB860605EB46052A4430
:10458000B032D2B2062836D2DFE800F0034C35351F
:1045900092BB012B32D0022B35D0032B6FD0042BD2
:1045A00036D0052B36D0062B36D09F4842F21072FB
:1045B000C17830395143027902EB4205C5EBC21292
:1045C00001EBC201427902EBC20505EB021201EBDD
:1045D00082018279C07902EB820201EB4201084438
:1045E000A0F5504050384042072B17D0082B17D069
:1045F000092B00D1E062BDE8F0037047BDE8F0038D
:1046000088B200F085BABDE8F00388B200F028BB9C
:10461000A161F0E7A162EEE7E162ECE7A061EAE701
:10462000A062E8E7012B2BD0022B2ED0032B31D038
:104630007D4842F21072C17830395143027902EB61
:104640004205C5EBC21201EBC201427902EBC20581
:1046500005EB021201EB82018279C07902EB820242
:1046600001EB42010844A0F55040503880B2042BC1
:104670001AD0052B1AD0062BBDD1E081BBE70FE085
:10468000BDE8F00388B200F009BABDE8F00388B2D3
:1046900000F0DCBA21B1BDE8F00388B200F080BBC5
:1046A000BDE8F00300F09CBB6082A4E7A082A2E713
:1046B000012B0FD0022B0FD0032B0FD0042B14D0C3
:1046C000052B14D0062B14D0072B94D1BDE8F00392
:1046D000FFF7F2BE61638EE721638CE76272D4E973
:1046E0000C10BDE8F003FEF7CFB9A27283E7E272C7
:1046F00081E7616388B2E27AA17ABDE8F003FFF74F
:10470000ADBE022B0CD0032B11D0042B11D0052BE6
:1047100085D12273D4E90E01BDE8F003FEF78EBD0A
:10472000E16168E77CE076E035E01FE003E0A1634B
:1047300061E7E1635FE73D4C01280CD002289DD181
:10474000012B11D0022B99D1002202212046BDE875
:10475000F003FCF7CABE012B04D0022B8ED100223D
:104760000121F3E70122FBE70122EEE7012885D1D1
:104770002F48012B09D0022B0AD0032A95D14FF4E0
:104780008041BDE8F003FCF7A3BE4FF48051F8E789
:104790004FF40051F5E74FF47A71A9F13000484326
:1047A00000EB870000EB460041191F484FF47A7672
:1047B000A1F5A0510579D039303D7543467906EB16
:1047C000C60707EB061605EB86058679C07906EB6A
:1047D000860605EB46052844A0F5A050D038404297
:1047E000012B0AD0022B0FD0032B9AD1302A3FF491
:1047F00001AF312A3FF410AFFDE6302A3FF40EAF8F
:10480000312A3FF405AFF6E6302A3FF409AF312AEA
:104810003FF400AFEFE6BDE8F00389B200F00AB85C
:10482000BDE8F00300F074BA9000002000100140D1
:10483000000C01402DE9F0470D468246032102207D
:10484000FCF75AFA194CA08D216A284485B2184801
:104850008D4208D94FF001024FF02001FCF745FED0
:10486000206A281A0AE008D24FF000024FF0200117
:10487000FCF73BFE206A401B00E0002047000026BA
:104880004FF48078DFF82C9007E041464846FCF76B
:1048900024FE504600F0D8FA761CBE42F5D32562BD
:1048A000BDE8F04703210120FCF726BA9000002064
:1048B000000C0140000801402DE9F0474FF4FA6078
:1048C000FCF7F8FCC82000F0A1F940213848FCF7BB
:1048D000FFFD0127DFF8DC90DFF8DCA0DFF8DC80EB
:1048E0000026374D374C01281CD02F724B464246CC
:1048F000C8213C20FEF71EFE02E00A20FCF7DAFC8D
:1049000020780028F9D12E7253464246C8213C2017
:10491000FEF710FE02E00A20FCF7CCFC207800280D
:10492000F9D12BE02E724FF47A734246C8213C2015
:10493000FEF700FE02E00A20FCF7BCFC207800280D
:10494000F9D12F724B4647464246C8213C20FEF71C
:10495000F1FD02E00A20FCF7ADFC20780028F9D137
:104960002E7253463A46C8213C20FEF7E3FD02E092
:104970000A20FCF79FFC20780028F9D1C8202E627D
:1049800000F03CF80E4940318A6A4868801A0922D2
:1049900090FBF2F25FF002004B68C0F1010402FBF1
:1049A000043341F82030401C0A28F5DBBDE8F087CD
:1049B00000100140F0D8FFFF70FEFFFF0AD7233C34
:1049C0009000002008060020FCF794FEFEF714FE7D
:1049D000FEF78CF8FEF7F0F8FEF75CFAFEF70CF93C
:1049E000FEF770F9FEF7BAF9FEF706FAFEF75CF883
:1049F00000F042FF00F072FFFCE7000070B5104EBF
:104A000005464FF48064002221463046FCF76DFDD8
:104A100044F6206202210120FEF7DCFA0122214641
:104A20003046FCF762FD074E0024C8203460FCF7D6
:104A300041FC2A4601210020FEF7CCFA346070BD0B
:104A400000100140B40000202DE9F04100F5C870CD
:104A5000104F0D4684B24FF480660022314638462E
:104A6000FCF743FD224600210120FEF7B3FA0122A4
:104A700031463846FCF739FD074E0024C8207462E1
:104A8000FCF718FC00212A460846FEF7A3FA7462D8
:104A9000BDE8F08100100140900000202DE9F041B8
:104AA000164D0746286A08B30120DFF8588028729F
:104AB000134B4246C8213C20FEF73CFD124C02E05D
:104AC0000A20FCF7F7FB20780028F9D100262E7287
:104AD0000E4B4246C8213C20FEF72CFD02E00A2086
:104AE000FCF7E8FB20780028F9D12E62288B002102
:104AF0003844BDE8F04180B200F048B89000002092
:104B0000F0D8FFFF0AD7233C0806002070FEFFFF05
:104B10002DE9F041184C0746206A08B30120DFF860
:104B200060802072154B4246C8213C20FEF702FDF2
:104B3000144D02E00A20FCF7BDFB28780028F9D1CB
:104B400000262672104B4246C8213C20FEF7F2FC9C
:104B500002E00A20FCF7AEFB28780028F9D1266293
:104B6000A08CC82F80B201D9394600E0C821BDE829
:104B7000F041FFF769BF000090000020F0D8FFFF70
:104B80000AD7233C0806002070FEFFFF2DE9F04104
:104B90001B4D1C4E0F46286032681B4B4FF4806142
:104BA000904207D94FF001021846FCF79EFC286896
:104BB000316807E01FD24FF000021846FCF795FC61
:104BC00030682968441A4FF4FA70844205D92246A5
:104BD00000213846FEF7FEF904E0844202D1224665
:104BE000012105E0601EB0F5F97F04D822460221BC
:104BF0003846FEF7EFF928683060BDE8F081000024
:104C00000C010020B40000200010014070B50D4DD3
:104C10000446002210212846FCF767FC46F66C3259
:104C200000210120FEF790FA012210212846FCF70E
:104C30005CFC054D0020224601462860FEF784FA00
:104C40002C6070BD000C0140100100200349098D4B
:104C5000084480B2002100F009B800009000002054
:104C6000C82800D8C820FFF7D1BF00002DE9F041C7
:104C70001F4D204E0F46286031681F4B884209D9CE
:104C80004FF001024FF010011846FCF72EFC286887
:104C9000316809E017D24FF000024FF010011846BA
:104CA000FCF723FC30682968441A214613A0FFF75B
:104CB000E9F84FF4FA7084420AD9224600213846B6
:104CC000FEF742FA06E000210CA0FFF7DBF80AE04D
:104CD000844203D0601EB0F5F97F04D8224600213B
:104CE0003846FEF731FA28683060BDE8F0810000F0
:104CF0001401002010010020000C01407374657045
:104D000020B5C4B4F3D0A1CEAAA3BA256400000094
:104D100070B50C4641F2941501280FD0022812D02C
:104D20004FF4FA56032812D004281BD0052835D199
:104D3000BDE8704089B20A20FFF77CBD284600F02C
:104D40002FF8A1B201E04FF47A61042020E0284658
:104D500000F026F841F2EC310F20FFF76BFD41F235
:104D600070700AE040F6B835284600F019F841F2B4
:104D7000F8110F20FFF75EFD3046FCF79BFAA1B259
:104D80000F20FFF757FD3046FCF794FA29460A201A
:104D9000FFF750FDBDE8704000F022B870BD000084
:104DA00070B50C4C0C4AA18D084485B2206A2B1AB0
:104DB00000202072E08901B23C20FEF7BBFB074EC9
:104DC00002E00A20FCF776FA30780028F9D1256253
:104DD00070BD0000900000200AD7233C0806002088
:104DE0002DE9F041134C206A002820D00120134FF8
:104DF0002072114B3A46C8213C20FEF79BFB104D18
:104E000002E00A20FCF756FA28780028F9D100269B
:104E100026720C4B3A46C8213C20FEF78BFB02E081
:104E20000A20FCF747FA28780028F9D12662BDE865
:104E3000F081000090000020F0D8FFFF0AD7233C4B
:104E40000806002070FEFFFF40F637414843401E31
:104E5000FDD270472DE9F04D1D460C4698B017461F
:104E600021F0004123F00043002814BF4FF0010C53
:104E70004FF0000C0CEB440CFE4A0CEB02064FEA20
:104E8000620C66452BD33E0018BF012606EB450693
:104E90001644F94A964222D3F84A53EA070C02D044
:104EA000944205D148B918B000201146BDE8F08DF4
:104EB000002808BF4FF0000C01D04FF0010C0CEBA4
:104EC000440212F5001F0AD8002F14BF4FF0010C46
:104ED0004FF0000C0CEB450212F5001F07D918B07B
:104EE0003A462B462146BDE8F04DFFF75DB800225B
:104EF000DFF88CA3002CB8BF534526DADFF884C353
:104F00006345A8BF022220DADFF870C39C451CDC91
:104F1000DFF874C30CEB235CBCF1140F08DDCCF19B
:104F2000340627FA06FC0CFA06F6BE420DD108E05C
:104F30005FB9CCF1140623FA06FC0CFA06F69E4281
:104F400003D10CF00102C2F1020251EA000C19D1A6
:104F5000002D17DA002C18BF022A01D0012A07D031
:104F60000220FFF749F818B0BDE8F04DFFF714B87C
:104F70000220FFF741F8FFF70FF818B081F0004169
:104F8000BDE8F08DB7F1000C6CD1534525D104F18B
:104F9000804212F5801201BF00280020B74918B0E6
:104FA00008BFBDE8F08DB548884207DC002DA1BFE1
:104FB0006046294618B0BDE8F08D07E0281E05DAE6
:104FC00080F0004118B06046BDE8F08DAF497944EB
:104FD000D1E9000118B0BDE8F08DDFF8A0C263454B
:104FE00025D1002D1FDA19B1514512D1D8B909E0E8
:104FF000002840F0EC82A24A214618B062F31E015C
:10500000BDE8F08D0020214618B060F31E01BDE818
:10501000F08D08DA18B02346BDE8F04D02460020B6
:105020006146FBF71DBA18B02146BDE8F08D514529
:1050300018DAB5F1804F0DD0A5F1005CBCF1FF5C32
:1050400010D1B4F1000C0DDB18B06146BDE8F04D95
:1050500000F0ECBB234618B00246BDE8F04D1946FF
:10506000FBF78CB9060024F0004C3BD1D9B1514577
:1050700033D1002C06DD002DA1BF0020514618B011
:10508000BDE8F08D002C01DD002D1BDB002C13DAB8
:10509000002D11DB012A4FF0000014BF78497C4934
:1050A00018B0BDE8F08D022A18BF002C0AD0012AE2
:1050B00008D1002C06DA0AE0002CB8BF002D11DA66
:1050C000012A04D0002018B00146BDE8F08D18B0C8
:1050D00000204FF00041BDE8F08DA1F14050B0F14B
:1050E0007F601AD0012000EBE47050EA020421D066
:1050F000624C521E4FF0000B104304BF4FF0000BE8
:10510000644C654883427CDD644A654893421FDDF8
:10511000884217DB002D25DB37E0002C00DA4AB18E
:10512000022A0CBF01204FF0FF3018B0BDE8F04D4F
:10513000FBF774BC0120FEF75FFF18B0BDE8F04D2F
:10514000FEF734BF4D4A8A4202DC002D0ADC1CE027
:10515000814202DA002D18DA04E0484B994220DD42
:10516000002D12DD0220FEF747FFFEF725FF054662
:105170000E460022534658462146FBF7FFF818B06A
:1051800066F31E012846BDE8F08D0220FEF734FFCD
:10519000FEF71AFF0A46214618B062F31E01BDE869
:1051A000F08D002230466146FBF7CAFB80460E4672
:1051B0006FF00102FBF7CAFB4FF05532394BFBF79A
:1051C000C2FB42463346FBF7D9F80022364BFBF7C9
:1051D000BAFB824642463346049110461946FBF715
:1051E000CDF85246049BFBF7C9F88A4600904FF071
:1051F000C0422E4B40463146FBF7C0F82C4A2B4BA1
:1052000000E027E0CDE9060151460098FBF7B6F82B
:1052100082460191274A284B40463146FBF7AEF8BB
:105220005246019BFBF78CFB82460B4602460591DA
:10523000DDE90601FBF7E3FADDE9062300268846EF
:105240003046FBF77DFB5246059BFBF77CFB024695
:1052500000F07EB90020B1F5801F07DA3522304614
:105260006146FBF773FB06466FF0340000EB2150FC
:1052700024E00000FFFF1F00FFFF0F000000F03FD1
:105280000000F07F0000404301FCFFFF460A0000E1
:105290000000F0FF0000F0BF0000E0410000F0431C
:1052A000FFFFEF3F5555D53F0000E03F4715F73F63
:1052B000FE822B6544DF5DF80BAE543EA0F2FF305A
:1052C0000190C1F3130040F07F6141F04051029121
:1052D000FE498842D8BF002004DDFD498142C8BF95
:1052E000012001DD0D9008E000200D900198401C88
:1052F00001900298A0F5801002900299F548784438
:105300000B910D9900EBC100D0E900230F933046BB
:105310000A920B99FBF714FBCDE90601DDE90A219E
:1053200030460F9BFBF76BFA02460B460020EA491A
:10533000FBF796F8059102460B460090DDE9060161
:10534000FBF71CF81490E5488A464FF000087844B3
:105350000299006812904FF0005040EA61010D98E8
:105360000F9B01EB804000F5002109910A9A1298E9
:10537000FBF7E6FA32460B9BFBF7E5FA424653464B
:10538000FAF7FCFF0646029140465146099B129AE5
:10539000FAF7F4FFDDE90623FBF7D5FA3246029B64
:1053A000FBF7CEFA059B009AFAF7E8FF0091149AF2
:1053B0000490534610461946FAF7E0FF06460246A7
:1053C000C7480B46029106217844FEF78FFDCDE9D0
:1053D0000510029B324610461946FAF7CFFFDDE969
:1053E0000532FAF7CBFF059106465346404619466B
:1053F000149AFBF704FA009B049AFAF7BFFF3246AF
:10540000059BFBF7FCF9CDE90510424653461046D3
:105410001946FAF7B3FF0022B24B02910A90FBF74C
:10542000EEF9DDE90532FBF7EAF90E464246AD4BEF
:105430004046FBF785FA029B0A9AFBF781FADDE901
:105440000532FBF780FA424602910A903346104635
:105450005146FAF793FFCDE906015346149A029993
:105460000A98FAF78BFF8A46029033464246009923
:105470000498FAF783FF5346029AFBF7C0F9824675
:105480000B4602460591DDE90601FBF7B8F9DDE9B7
:105490000623002088460646FBF752FA5246059B33
:1054A000FBF751FA824609914FF060428E4B30462D
:1054B0004146FAF763FF049006918C4A8A4B5046A6
:1054C0000999FAF75BFF82460291894A894B304677
:1054D0004146FAF753FF5246029BFBF790F9864B81
:1054E0007B440D9A03EBC203D3E90023FBF787F952
:1054F0000E9007910198FBF791FA0591DDE90613EB
:1055000082460E9A0498FBF77AF97C4A7A440D9BFE
:1055100002EBC303D3E9002300930292FBF76FF978
:105520005246059BFBF76BF90026884652463046EB
:10553000059BFBF705FA009B029AFBF701FA069B15
:10554000049AFBF7FDF9079B0E9AFBF7FCF902465C
:1055500000200B46029038462946FAF70FFF824694
:1055600001912B4638461946029AFBF7E9F9324673
:105570004346FAF703FF5246019BFBF740F9074603
:105580008A463246434629460298FAF7F7FE054610
:105590000E463A465346FBF732F9594A884691423D
:1055A00021DBA8EB020353EA000210D12A4633465E
:1055B000FBF7C6F9CDE90401524A534B3846514630
:1055C000FBF71DF9DDE90423FBF73AFA21D20220AB
:1055D000FEF712FDFEF7F0FC0A46214618B062F312
:1055E0001E01BDE8F08D494B28F000429A4210D3CD
:1055F000474A08EB020353EA00027FF4C6AD2A468D
:105600003346FBF79DF93A465346FBF719FA7FF606
:10561000BCAD0022019228F000403E493E4A01EB19
:105620002051824223DA481C4FF4801121FA00F005
:1056300040443A4AC0F30A517A44394BA1F2FF314F
:10564000CB4020EA0303C0F3130040F48010C1F103
:105650001401C84012680190B8F1000FBCBF40426D
:10566000019028463146FBF76BF905460E462A465F
:10567000334638465146FBF7C2F84FF00008424621
:10568000284B40460591FAF779FECDE90601264AF6
:10569000264B40460599FAF771FE009102902A4682
:1056A000334640460599FBF74BF93A465346FBF71C
:1056B0004AF91F4A1F4BFAF761FE009B029AFBF75B
:1056C0009EF80746884602460B4635E08E98030052
:1056D0007AB60B008E0600000000F03FC606000000
:1056E000F40500000000084009C7EE3FFD033ADC66
:1056F000F5015B14E02F3EBECC04000090040000D6
:1057000000009040FE822B654715973C00CC9040EE
:1057100000346F3F01FCFFFF0000E03FDC030000AE
:10572000FFFF0F00432EE63F396CA80C615C20BEE2
:10573000EF39FAFE422EE63FDDE90601FBF75FF89E
:10574000DDE9062305460E46FBF7FAF83A464346DE
:10575000FBF7F9F80F462A463346009010461946E3
:10576000FAF70CFE824602462E4888460B46052173
:105770007844FEF7BBFB52464346FAF7FFFD2A4644
:105780003346FBF7E0F880468A463B4628463146DA
:10579000009AFAF7F3FD3B46009AFBF730F80691C2
:1057A000009000224FF0804340465146FBF7C8F876
:1057B0000F460C904246534628463146FAF7DEFD26
:1057C0003B460C9AFAF74CFE069B009AFBF7B8F89A
:1057D0002A463346FBF7B4F80022134BFBF7B3F825
:1057E000054601980E4601EB00510815002810DC13
:1057F00028463146019AFBF7A9F8FEF753FB042827
:1058000008BFFEF7E1FB28463146019AFBF79EF8F8
:1058100005460B4618B02A4658462146BDE8F04DCD
:10582000FAF7ACBD7C0200000000F03F2DE9F0412A
:1058300006460F46FBF7A1F8041E0D4618BF0120CF
:10584000284320F00040C0F17F6000F1E040C00F2D
:105850000ED0301C18BF0120384320F00040C0F1AA
:105860007F6000F1E040C00F04BF0120FEF7C4FBE1
:1058700020462946BDE8F08110B51348FDF792FC9B
:10588000012212491248FDF765F8124C002210213E
:105890002046FBF72AFE4FF4FA60FBF70BFD0122CE
:1058A00002212046FBF721FE0B4C0122110320466A
:1058B000FBF71BFE0122D1022046FBF716FEBDE8D6
:1058C0001040FEF7F9BF0000490300200803002044
:1058D000C0020020000C01400010014030B591B022
:1058E00069461A48FDF766FC50B300246D4605E092
:1058F000295D17A0FEF7C6FA641CE4B29DF84000CB
:10590000A042F5D814A0FEF7BDFA14489DF8021085
:1059100001709DF8031041709DF8041081709DF88E
:105920000510C1709DF8061001719DF807104171B6
:105930009DF8081081719DF80910C171FEF7D6FD20
:105940004FF47A70FBF7B6FC11B030BD490300206C
:1059500025303258200000000A000000900000208E
:10596000010202030405060708090A0B0C0D0E0FBD
:1059700010100000000000000000010203040607F0
:1059800008090000000001020304000000000000FC
:10599000000000000000F03F000000000000F83FA1
:1059A00000000000000000000000004003B8E23FDB
:1059B000000000000000000006D0CF43EBFD4C3E8D
:1059C000033333333333E33FFFAB6FDBB66DDB3F82
:1059D0004D268F515555D53F01411DA96074D13FCA
:1059E00065DBC9934A86CD3FEF4E454A287ECA3FC4
:1059F0003E5555555555C53F93BDBE166CC166BF46
:105A00002CDE25AF6A56113FF16BD2C541BDBBBE3E
:105A1000D0A4BE726937663E00000000000000009E
:105A2000405A00080000002024010000D83F000870
:105A3000645B0008240100208C470000E83F000858
:105A40000000000001000000100000000000000045
:105A500000127A00040000000000000000000000B6
:105A600000000000DC050000DC050000D00700009D
:105A7000F4010000F4010000FA0000002C01000015
:105A80002C010000A500000064000000640000007C
:105A9000640000000400000000000000000000009E
:105AA000000000002003000020030000F4010000BB
:105AB0009600000096000000C800000032000000C0
:105AC0003200000064000000000000000000000040
:105AD0000000000000000000000000000000900135
