:020000040800F2
:100000001847002005010008053E00082B330008B2
:10001000093B0008B90B000849490008000000002E
:10002000000000000000000000000000B73E0008D3
:100030009D0E000800000000B53E00087142000857
:100040001F0100081F0100081F0100081F01000810
:100050001F0100081F0100081F0100081F01000800
:100060001F0100081F0100081F0100081F010008F0
:100070001F0100081F0100081F0100081F010008E0
:100080001F0100081F010008D90A00081F0100080D
:100090003D4900081F0100081F0100081F0100085A
:1000A0001F0100081F0100081F010008EF4200089F
:1000B000F542000859440008DD4500081F0100080A
:1000C0001F0100081F0100081F0100081F01000890
:1000D0001F0100081F0100081F0100081F01000880
:1000E0001F0100081F0100081F010008DFF810D0E1
:1000F00000F0B4FC0048004711560008AFF3008040
:10010000184700200648804706480047FEE7FEE7FC
:10011000FEE7FEE7FEE7FEE7FEE7FEE7FEE7FEE7B7
:10012000ED420008ED000008202A04DB203A21FA05
:1001300002F00021704721FA02F3D040C2F1200200
:100140009140084319467047D2B201E000F8012BF4
:10015000491EFBD270470022F6E710B513460A4647
:1001600004461946FFF7F0FF204610BDF0B480EAC0
:100170000102D40F4200B2EB410F02D20246084600
:1001800011464A0042D0C30DDDB2C1F3C752AD1AC9
:10019000202D35DAC1F3160141F4000204B15242B8
:1001A000C5F1200602FA06F12A411044B3EBD05FF4
:1001B00023D0C4B1012DA0EBC35009DCF0BC4FF03B
:1001C000004202EAC352DBB200F5000000F03BBB84
:1001D000400000F1807000EBC350A0F1807040EA55
:1001E000D170490009E0490841EAC071A0EBC35051
:1001F00000F50000400800EBC350F0BC00F01ABB53
:100200006142012202EB4101001BF6E7F0BC70479E
:1002100081F00041AAE780F00040A7E780EA0102F0
:1002200010B502F00043400022D04A001FD0010E5A
:1002300001EB1261C0F35600C2F3560240F4000015
:1002400042F40002A0FB022000047F39140400D015
:10025000401C50EA124001D44000491EC2B20C06B4
:1002600004EBD010401C4008802A02D003E000209C
:1002700010BD20F00100002900DA0020184310BD55
:1002800030B480EA010202F0004530F0004221F073
:10029000004013D090B1C30DD40DC2F31601C0F3CA
:1002A0001600E41A41F4000140F400027D3491424A
:1002B00001D3641C00E04900002C02DA30BC0020AD
:1002C00070474FF400000023914201D3891A034381
:1002D00040084FEA4101F7D151B1914202D14FF0AC
:1002E000004105E002D24FF0010101E06FF0010191
:1002F00003EBC450284430BC00F09CBA420005D047
:10030000C0F3C7525242914201DC0020704700EB1B
:10031000C15070472DE9FE4F804681EA0300C00FAF
:100320000C46009021F0004123F00045B8EB02009C
:10033000A94105D24046214690461C460B4602463E
:1003400023F00040104347D0270DC7F30A00C3F342
:100350000A510290401A019040286BDAC3F313004F
:1003600040F4801B0098924620B10023D2EB030A90
:1003700063EB0B0B01985946C0F14002504600F068
:1003800038FA06460D4650465946019A00F040FAA2
:1003900010EB08006141002487EA115284EAE773F8
:1003A0001A4340D0009A62B3019A012A4FEA0752D9
:1003B00015DC001B61EB02014FF0004202EA07521C
:1003C000CDE90042001C41F5801132462B4600F079
:1003D00077FA03B0BDE8F08F40462146F9E7001BED
:1003E00061EB0201001C41F5801300185B412018ED
:1003F000A2F5001747EB030140EAD570B6196D412D
:1004000011E06D084FEA360645EAC0754FEA07521B
:10041000001B61EB0201001C41F5801149084FEA05
:1004200030000019514132462B4603B0BDE8F04F71
:1004300000F037BA0098012240000023D0EB0202FE
:1004400063EBE073009821464FEAE074B8EB0000DC
:1004500061EB0401E9E783F000435BE781F00041D1
:1004600058E72DE9FE4F81EA030404F0004421F02F
:10047000004100944FF0000B23F0004350EA0104C8
:100480005ED052EA03045BD0C3F30A54C1F30A55A9
:100490002C44A4F2F3340194A0FB0254C1F31301E1
:1004A00041F48011C3F3130343F4801301FB0244AE
:1004B00000FB034E840A970A44EA815447EA8357B3
:1004C000A4FB076802958D0A05FB07854FEA932C6C
:1004D00004FB0C542705029D4FEA065847EA1637DD
:1004E000B5EB08056EEB070C870E920E47EA8117F5
:1004F00042EA8312A7FB0201B6EB0B0164EB000496
:100500002B0D43EA0C335E1844EB1C50DA4651467F
:10051000E7FB0201C5F313044FEA0B3343EA14531C
:100520004FEA0432019C43EA0603A4F10C0402944E
:10053000009CCDE900B400F0C3F903B0BDE8F08F32
:1005400000200146F9E72DE9F04D81EA030404F0AB
:10055000004B21F0004514464FF0000A23F0004103
:1005600050EA050220D054EA01021DD0C5F30A5713
:100570000246C5F31303C1F31300C1F30A5640F456
:10058000801543F48013A7EB0608101BD64608F22B
:10059000FD3873EB050002D308F1010801E0921861
:1005A0005B41B8F1000F03DA00200146BDE8F08D91
:1005B00000204FF48011064684460EE0171B73EBB3
:1005C000050705D3121B63EB050306434CEA010C38
:1005D00049084FEA300092185B4150EA0107EDD11B
:1005E00052EA030012D082EA040083EA05010843BC
:1005F00005D0101BAB4106D20122002306E00022E9
:100600004FF0004302E06FF0010253101AEB0600B6
:100610004CEB085110EB0A0041EB0B01BDE8F04D2B
:1006200000F03FB9C10F80EAE0700844CA07962382
:10063000002100F008B996230022114600F003B90A
:100640000EB5C10F80EAE0700844CA07002140F2ED
:1006500033438DE80E000A460B4600F031F903B033
:1006600000BD0EB540F2334102910021CDE90011E9
:100670000A460B4600F024F903B000BD00F000422A
:1006800020F00040C10DC0F3160040F400007F29A7
:1006900001DA00207047962903DCC1F19601C840B9
:1006A00001E096398840002AF4D04042704720F09B
:1006B0000040C10DC0F3160040F400007F2901DAAC
:1006C00000207047962903DCC1F19601C8407047AD
:1006D000963988407047C1F30A5210B5C1F313012F
:1006E00040F2FF3341F480119A4201DA002010BD3C
:1006F00040F233439A42A2F2334203DC5242FFF704
:1007000013FD10BD904010BD00F0004230F00040DD
:100710000AD0C10D01F56071C0F3160042EA015123
:10072000C20840071143704700200146704701F09E
:10073000004330B421F0004150EA010206D00A0D16
:10074000A2F56072C1F31301002A02DC30BC002064
:100750007047440F44EAC104C100E01830BC00EB0C
:10076000C25000F067B80000002801DBC0F1004073
:10077000002901DBC1F1004181427047002801DB03
:10078000C0F10040002901DBC1F1004188427047FF
:100790002DE9F05F0546002092469B4688460646B6
:1007A000814640241BE02846414647462246FFF743
:1007B000BBFC53465A46C01A914110D31146184605
:1007C000224600F016F82D1A67EB01084F46224624
:1007D0000120002100F00DF817EB00094E41201E0A
:1007E000A4F10104DFDC484631462A464346BDE811
:1007F000F09F202A04DB203A00FA02F10020704723
:100800009140C2F1200320FA03F31943904070474E
:10081000202A06DBCB17203A41FA02F043EAE073C4
:1008200006E041FA02F3D040C2F1200291400843B1
:10083000194670470029A8BF7047401C490008BFEF
:1008400020F00100704710B4B0FA80FC00FA0CF000
:1008500050EA010404BF10BC704749B1CCF1200438
:1008600021FA04F411FA0CF118BF012121430843C5
:10087000A3EB0C01CB1D4FEA00614FEA102042BFF1
:10088000002010BC704700EBC35010440029A4BFE7
:1008900010BC7047401C490008BF20F0010010BC8C
:1008A000704710B5141E73F1000408DA401C41F1C2
:1008B000000192185B411A4301D120F0010010BDE4
:1008C0002DE9F04D92469B4611B1B1FA81F202E05A
:1008D000B0FA80F220329046FFF78BFF04460F46B5
:1008E00040EA0A0041EA0B0153465A46084313D036
:1008F000114653EA010019D0C8F140025046FFF7F3
:1009000013FC05460E46504659464246FFF771FF16
:10091000084305D0012004E020463946BDE8F08DAB
:100920000020054346EAE0762C4337430A986305E6
:10093000E40AA0EB08000022FD0A44EA47540A300A
:1009400002D500200146E9E7010510196941DDE9FA
:10095000084500196941BDE8F04DA2E770B521F0E6
:10096000004303430CD0C1F30A550024D5EB040522
:1009700064EB0403D617AD1AB34102DB0020014635
:1009800070BD201841EB025170BD2DE9F04D0023E0
:100990001A461B1A8A4103DB00200146BDE8F08D90
:1009A000C1F30A52C1F3130141F480154FF0000B5B
:1009B000D10702D100186D41521E0027044640F2B3
:1009C000FF11384601EB620A3E468046024600208F
:1009D0004FF48011FFF7A8FBC2197141BB1846EB19
:1009E0000100B4EB030C75EB000C04D3E41A65EBC7
:1009F000000517460E46241908F101006D41804696
:100A00003428E3DDF91946EB0600091BA84103D29F
:100A10004FF0FF32134601E0002213461BEB0700A4
:100A200046EB0A51BDE8F04DFFF73BBF30B5041E61
:100A300071F1000404DB4FF00044404264EB01011B
:100A4000141E73F1000405DB1C464FF000435242B4
:100A500063EB0403994208BF904230BD064C074D3A
:100A600006E0E06840F0010394E80700984710347E
:100A7000AC42F6D3FFF73EFB90660008B066000874
:100A800070B58C1810F8015B15F0070301D110F850
:100A9000013B2A1106D110F8012B03E010F8016B7D
:100AA00001F8016B5B1EF9D12B0705D40023521E00
:100AB0000DD401F8013BFAE710F8013BCB1A921C68
:100AC00003E013F8015B01F8015B521EF9D5A14266
:100AD000D8D3002070BD0000014800F0F0BA00003B
:100AE0006401002070B5044600688168C943C907E5
:100AF00017D1816821F00101816001F017F90546E5
:100B00000AE000BF01F012F9401B022804D9206856
:100B10008068C043C00706D020688068C043C00713
:100B2000F0D0002070BDA06A40F01000A062E06A22
:100B300040F00100E062012070BD0000F8B5002621
:100B40000446009600688168C943C9072DD08168B2
:100B500041F001018160164816490068B0FBF1F0D0
:100B600000E0401E00900028FBD101F0DFF80546B0
:100B700016E000BF01F0DAF8401B022810D9206807
:100B80008068C043C0070BD0A06A40F01000A0628C
:100B9000E06A40F00100E06284F824600120F8BDC2
:100BA00020688068C043C007E4D10020F8BD000081
:100BB0001C00002040420F00FEE70000084B30B44C
:100BC0001A60084A5A60082200249C60C3E9034264
:100BD0001C750A4630BC044B014900F01FBC0000E4
:100BE000EC030020005034120C0000202DE9F05FCF
:100BF00090460F464FF00009FFF714FD7D4D294642
:100C0000FFF70CFB7C4E3146FFF73AFBFFF736FD52
:100C10007A4C20603846FFF705FD2946FFF7FEFABB
:100C20003146FFF72DFBFFF729FD60604FF0FF35E0
:100C300029464046FFF762FB834620686168084406
:100C4000FFF7F0FC2946FFF759FB064659460846D0
:100C5000FFF7E4FA07462068FFF7E4FC3146FFF7A8
:100C6000DAFA0121FFF74AFB3946FFF709FB20F0CA
:100C7000004080465946FFF7D1FA5946FFF7CEFAB1
:100C80005946FFF7CBFADFF878A15146FFF7F8FA9B
:100C900006462068FFF7C6FC5946FFF7BFFA314603
:100CA000FFF764FAFFF7EAFC60616069FFF7BAFCDE
:100CB0000646606821680844FFF7B4FC5946FFF710
:100CC000ADFA3146FFF7A4FAFFF7D8FCA061A0699E
:100CD00061690844A060A068C00702D0A068401CF9
:100CE000A060A068474E4FF6FF77B0F57A6F02DD3F
:100CF0000020BDE8F09F41465046FFF7C1FAFFF7DC
:100D000003FD4FF0C042404B04F0DEFEFFF70FFD45
:100D100001464846FFF72AFA814629464046FFF732
:100D2000EDFA80464946FFF779FA4946FFF776FA29
:100D300005462068FFF776FC2946FFF717FAE061C1
:100D40003068B0FBF7F0FFF776FCE169FFF716FDBE
:100D500005D83068B0FBF7F0FFF76DFCE0610125C6
:100D600042E000BF04EB8506B1694FF07E50FFF70B
:100D700087FA01466069A84248461CDDFFF7F6F98C
:100D8000814640464946FFF749FA4946FFF746FA89
:100D900007462068FFF746FC3946FFF7E7F9F061A0
:100DA0006069401EA8421ED159464846FFF730FAF6
:100DB00020F0004917E0FFF7D9F98146014658466F
:100DC000FFF726FA20F0004740463946FFF726FA9B
:100DD0003946FFF723FA07466068FFF723FC3946D8
:100DE000FFF716FAF0616D1CA068A842BADC01207A
:100DF0007FE7000000004844000070427C040020AF
:100E00000000C0401C0000205555D53F10B586B0ED
:100E100001281FD002281BD1012919D0002201234B
:100E200003241B48022925D0032911D1816941F0EF
:100E3000080181618069694600F008000490180289
:100E4000CDE90003134800BFCDE9022400F06CFE99
:100E500006B010BD0129FBD0022906D00329F7D125
:100E600006B0BDE8104002F0C5BC06B0BDE81040B9
:100E700002F072BD816941F00801816180696946B3
:100E800000F0080004901020CDE900030248DBE7E1
:100E90000010024000080140000C0140704772B68B
:100EA000FEE7000030B5002304461A46074D06E071
:100EB000286B0344012004F001FE521CD2B2A2426E
:100EC000F6D3B3FBF4F080B230BD00006C0000201C
:100ED000F8B500250446009590F82400012808D0B4
:100EE000012084F824002046FFF7FCFD060002D014
:100EF00053E00220F8BDA06A20F4885040F00200C0
:100F0000A062022001F03AF926490968B1FBF0F02D
:100F1000400000E0401E00900028FBD12046FFF773
:100F20000DFE2068816841F00801816000F0FEFE3E
:100F3000074608E000F0FAFEC01B0A2803D9206823
:100F40008068000715D4206880680007F2D4206804
:100F5000816841F00401816000F0E8FE074612E07C
:100F600000F0E4FEC01B0A280DD920688068400705
:100F700009D5A06A20F0020040F01000A06284F8B9
:100F800024500120F8BD206880684007E8D4A06A9A
:100F900020F0020040F00100A06284F824503046A6
:100FA000F8BD00001C00002070470000F8B50024C8
:100FB000009490F824202546012A12D0012280F8BE
:100FC00024204A681F23072A0DD20668776B521E19
:100FD00002EB820293409F430B6893401F43776369
:100FE00019E00220F8BD06680D2A0AD2376BD21F1D
:100FF00002EB820293409F430B6893401F43376389
:1010000009E0F76A0D3A02EB820293409F430B68B6
:1010100093401F43F7620A68072306680A2A0AD327
:10102000F7680A3A02EB420293409F438B68934071
:101030001F43F76008E0376902EB420293409F4389
:101040008B6893401F4337610A68102A01D0112A28
:1010500020D1124B02689A4217D193681B0219D40F
:10106000936843F4000393600968102912D10C4976
:101070000C4A0968B1FBF2F101EB8101490000E083
:10108000491E00910029FBD104E0816A41F0200152
:101090008162012480F824502046F8BD00240140DC
:1010A0001C00002040420F0010B500F005F8014977
:1010B000086010BD9C0000200068C06C704710B52F
:1010C000044600684168890626D50168890723D54A
:1010D000A16AC90603D4A16A41F40071A1628168C2
:1010E000C1F34241072910D1217B71B9416821F038
:1010F00020014160A06A20F48070A062A06AC00450
:1011000003D4A06A40F00100A0622046FFF7CCFFA4
:1011100021686FF0120008602068416809062ED52A
:10112000016849072BD5A16AC90603D4A16A41F415
:101130000051A1628168C1F30231072909D04168D9
:10114000490515D48168C1F34241072910D1217B9B
:1011500071B9416821F080014160A06A20F480509B
:10116000A062A06AC00503D4A06A40F00100A0629A
:101170002046FFF719FF21686FF00C000860206817
:10118000416849060DD50068C0070AD0A06A40F43E
:101190008030A062204600F093F821686FF00100D3
:1011A000086010BD2DE9F0414FF0000704003D46F6
:1011B0007ED0A06A002628B9E66284F82460204622
:1011C00000F080F82046FFF78DFCA16AC90600D424
:1011D00020B1A06A40F01000A06269E0A16A21F489
:1011E000885141F00201A1626268E169237B0A43F0
:1011F00047EA43010A43A1684FF48077B94209D016
:10120000012907D05FF0000194F814C0BCF1010F70
:1012100002D00AE03946F7E7F3B1A36A43F02003AE
:10122000A362E36A43F00103E3622368D3F804C0D6
:101230002CF4694C4CEA010CC3F804C021688B689B
:10124000DFF870C003EA0C0313438B60A168B94256
:101250000BD0012909D00CE0DFF85CC0A3690CEBCE
:1012600043330B4343F40061DFE7218A0D05A5F505
:1012700080152168CB6A23F470032B43CB6221686D
:1012800089680E4B1940914208D1E662A16A21F0AB
:10129000020141F00101A162BDE8F081A06A20F0E5
:1012A000020040F01000A062E06A40F00100E0623D
:1012B0000120F1E7FDF7E1FF00E0FFFFFE0E1FFF59
:1012C0007047000000B585B00021009101910291A6
:1012D000039100681249884220D11248816941F483
:1012E00000718161816901F400710491816941F0AB
:1012F000040181618069694600F0040004900220C5
:10130000009003200190084800F00EFC00221146D6
:10131000122000F001FF122000F0F0FE05B000BD29
:1013200000240140001002400008014070B504464E
:1013300090F8240001280DD0012084F824002046D4
:10134000FFF7FCFB02004FF0000005D084F82400FA
:10135000104670BD022070BDA16A40F6016399433A
:1013600041F48071A162224D23682249AB4218D119
:101370000E6816F4702F14D0A66A46F48016A66282
:101380000E68760505D5A66A26F4005646F4805602
:10139000A662A66AF6040AD5E66A26F00606E662A2
:1013A00006E0A66A26F48016A6625E68E9E7E062B7
:1013B00084F824006FF0020018602068436843F04E
:1013C0002003436020688368C3F34243072B05D1A1
:1013D000A84208D1096811F4702F04D0816841F443
:1013E00080118160B4E7816841F4A001F9E7000051
:1013F000002801400424014090F82020012A07D051
:10140000022A05D0416A41F48021416201207047DF
:10141000006842690A43426100207047F0B590F8C5
:1014200020500468A468012D05D0022D03D0416A24
:1014300041F480215DE014F0406F01D1E50055D505
:10144000C4F30164022C03D9416A41F4000150E065
:101450000125A5401D608D684FF4C0739DB1CE6815
:1014600035434E6845EAC605066803EB0417F55197
:101470004FF4C275076805EB04150E697E51097DAE
:10148000012905D009E00E88CD6845EA4655EBE70D
:1014900001684E5946F480764E511179D5795679C6
:1014A00041EA056195792D0445EA062529434FF463
:1014B000C676056806EB0416A9511178D57841EA7D
:1014C0000561957852782D0445EA022211434FF4C4
:1014D000C475026805EB04155151006803EB041153
:1014E000425842F0010242500020F0BD416A41F4EE
:1014F000001141620120F0BD10B590F82030026863
:10150000012B07D0022B05D0416A41F480214162B2
:10151000012010BDD2F8000240F00100C2F8000224
:10152000087D00F01F0301209840D2F81C3283434D
:10153000C2F81C32CB69B3B9D2F80C328343C2F87B
:101540000C328C894B6864F31F434C6902EBC40472
:10155000C4F840320C890B6864F31F434C6902EBFA
:10156000C404C4F84432CB69012B16D1D2F80C3232
:101570000343C2F80C320C884B6864F31F434C6978
:1015800002EBC404C4F840320C89CB6864F31F43F7
:101590004C6902EBC404C4F844328B69002BD2F8C6
:1015A00004320FD053EA0003C2F804320B69002B57
:1015B000D2F8143208D00343C2F81432096A012960
:1015C00004D008E08343EFE78343F5E7D2F81C1229
:1015D0000143C2F81C12D2F8000220F00100C2F848
:1015E0000002002010BD704730B590F82040012C5B
:1015F00005D0022C03D0416A41F480215DE00468EB
:10160000002955D02469A40754D04FF4D874056834
:1016100004EB01142D5915F00405956005682D594A
:101620004ED0ED08556005682C5904F00204D460D2
:101630004FF4DA74056804EB01142D5905F00F0519
:10164000156105682D59C5F30725956105682C5965
:10165000240C54614FF4DC72046802EB0112A458AC
:101660001C700468A458240A5C700468A458240CF4
:101670009C700468A258120EDA704FF4DE7204688F
:1016800002EB0112A4581C710468A458240A5C716E
:101690000468A458240C9C710468A258120EDA71D4
:1016A000006881B1016941F020010161002030BD75
:1016B000E468A8E7416A41F400114162012030BDAD
:1016C0006D0D1560AFE7C16841F02001C160EDE725
:1016D0002DE9F05F0546006800244669D0F80490C3
:1016E0008768D0F80CB0D0F810A0D0F81880F107B7
:1016F00048D0F90714D001218160B80703D52846E6
:1017000000F0F9F90CE0780702D54FF4006407E027
:10171000380702D54FF4805402E0284600F0EAF979
:10172000F80516D529684FF480708860B80503D590
:10173000284600F0E2F90CE0780502D544F40054A4
:1017400007E0380502D544F4804402E0284600F062
:10175000D3F9F80316D529684FF480308860B803B0
:1017600003D5284600F0CBF90CE0780302D544F409
:10177000004407E0380302D544F4803402E02846F0
:1017800000F0BCF9300707D55FEACB6004D52968C3
:10179000102044F40074C86070074FF0080707D5A4
:1017A0005FEA0B7004D52868C760284600F05AF934
:1017B000B00706D52868C068800702D0284600F028
:1017C00053F9700607D55FEACA6004D5296810206E
:1017D00044F480640861B00607D55FEA0A7004D556
:1017E00028680761284600F055F9F00606D52868F4
:1017F0000069800702D0284600F04DF9B00308D5F3
:101800005FEAC96005D5296810204860284600F0C5
:1018100043F9F00307D55FEA097004D528684760EB
:10182000284600F06DF9300446D55FEA497040D58E
:10183000F00504D55FEAC87001D044F00104B0059A
:1018400004D55FEA887001D544F00204700504D520
:101850005FEA487001D544F00404300529D518F03A
:10186000700F26D008F07000402815D006DC102834
:1018700009D020280AD0302816D10AE050280ED0EE
:10188000602811D10EE044F008040DE044F010048B
:101890000AE044F0200407E044F0400404E044F08F
:1018A000800401E044F480742868816921F07001AB
:1018B0008161296804204860002C05D0686A2043B3
:1018C00068622846FFF78FFEBDE8F09F70B5040000
:1018D00003D094F8200010B104E0012070BD204630
:1018E00000F082F82068016841F00101016000F019
:1018F0001DFA0546052604E000F018FA401B0A28E8
:1019000011D820684068C007F6D02068016821F02F
:101910000201016000F00AFA05460BE000F006FA49
:10192000401B0A2806D9606A40F40030606284F8DF
:101930002060D2E7206840688007EFD4207E01282D
:10194000206801683DD021F080010160607E01289F
:101950002068016838D021F040010160A07E012894
:101960002068016833D021F020010160E07E012869
:10197000206801682ED041F010010160207F01280D
:101980002068016829D021F008010160607F0128EA
:101990002068016824D021F004010160D4E902012B
:1019A0000843D4E90412114308436168491E0843FF
:1019B0002168C86100206062012084F820000020B6
:1019C00070BD41F08001C0E741F04001C5E741F042
:1019D0002001CAE721F01001CFE741F00801D4E768
:1019E00041F00401D9E7000010B586B00021009154
:1019F0000191029103910068174988422AD1174842
:101A0000C16941F00071C161C16901F000710491C7
:101A1000816941F0040181618069114C00F004008A
:101A200004904FF4006000906946204600F07CF876
:101A3000A0140090022001900320039069462046E4
:101A400000F072F800221146142000F065FB14200B
:101A500000F054FB06B010BD0064004000100240CE
:101A6000000801407047000010B5074A0168914224
:101A700008D1064B064A0021FFF7B6FD03490220B4
:101A8000491E087010BD00000064004001000020E5
:101A900004040020704770477047000070B504468A
:101AA00090F82000012804D0606A40F400206062B1
:101AB00018E0022084F820002068016821F001016C
:101AC000016000F033F905460EE000BF00F02EF98A
:101AD000401B0A2808D9606A40F400306062052083
:101AE00084F82000012070BD20684068C007EDD157
:101AF000606270BD704770477047704770477047AD
:101B00007047000070B5044600F010F90546601CEF
:101B100002D004480078044400F008F9401BA042B9
:101B2000FAD370BD100000202DE9F84FDFF8B8910E
:101B3000002409F1040A0AF1040B23460F270BF1D4
:101B4000040EC9E00125A5402A40AA427DD1674E76
:101B5000D1F804C0ACEB0608B44532D014DCBCF1BB
:101B6000030F3AD009DCBCF1000F2AD0BCF1010F01
:101B70001CD0BCF1020F31D11DE0BCF1110F17D008
:101B8000BCF1120F2AD119E0B8F5881F19D006DC74
:101B9000B8F5803F15D0B8F5801F1FD111E0B8F51A
:101BA000001F0ED0B8F5041F18D10AE0CB6815E06D
:101BB000CB681B1D12E0CB6808330FE0CB680C33F9
:101BC0000CE08B682BB1012B4FF0080303D045616B
:101BD00004E0042302E0056100E00023FF2A01D8AD
:101BE000064601E000F104064FEA840501D9A5F19B
:101BF0002005D6F8008007FA05FC28EA0C0803FA4D
:101C000005F548EA0508C6F800804D68ED0062D584
:101C1000374DAE6946F00106AE61AD6924F00306AA
:101C200005F001050095334D06EB050CDCF8085076
:101C3000A607360F07FA06F825EA0805DFF8B88088
:101C4000404503D14FF0000817E044E0DFF8AC80D6
:101C5000404502D14FF001080FE0DFF8A480404575
:101C600002D14FF0020808E0DFF89880404502D129
:101C70004FF0030801E04FF0040808FA06F848EABC
:101C80000508CCF808804D68D9F80060ED034D4692
:101C900001D5164300E096432E604D68DAF80060E7
:101CA000AD03554601D5164300E096432E604D68BE
:101CB000DBF80060ED025D4601D5164300E0964377
:101CC0002E604D68DEF80060AD02754601D5164302
:101CD00000E096432E60641C0D682A46E5407FF4C0
:101CE00031AFBDE8F88F0000000401400000111082
:101CF000001002400000014000080140000C0140BB
:101D000000100140001401408068084000D001200C
:101D10007047C26821EA02030A4043EA02410161B6
:101D200070470AB1016170470904FBE70148806808
:101D3000704700001000002070B5040025D094F812
:101D40003D00002520B984F83C50204600F050F9B1
:101D5000242084F83D002068016821F00101016021
:101D60002068016841F4004101602068016821F4A5
:101D70000041016000F072FB4D4A6168914201D858
:101D80004C4900E04C49884201D2012070BD4B49CA
:101D90002368B0FBF1F15E6826F03F060E435E60FB
:101DA0006368934206D94FF4967359434FF47A739C
:101DB000B1FBF3F12368491C1E6A26F03F0631434C
:101DC00019626168914210D84900401EB0FBF1F2DF
:101DD000521CC2F30B02042A01D2042022E0B0FB01
:101DE000F1F0401CC0F30B001CE0A268F2B301EB61
:101DF000C10303EB0116431EB3FBF6F35B1C43F474
:101E000080431B0549D092B301EBC10202EB0111E3
:101E1000401EB0FBF1F0401CC0F30B0040F48040CA
:101E200040F400402168CA694CF6FF739A4310439E
:101E3000C861D4E9071001432068026822F0C0029B
:101E400011430160D4E9030101432068826848F22C
:101E5000FF339A4311438160D4E9050108432168A7
:101E6000CA6822F0FF021043C86001E00EE016E0ED
:101E70002068016841F0010101602564202084F898
:101E80003D00256384F83E50002070BD01EB410603
:101E9000431EB3FBF6F35B1CB3E70120C2E701EB83
:101EA0004101401EB0FBF1F0401CC0F30B00B7E74E
:101EB000A086010080841E0000093D0040420F0002
:101EC0002DE9FF4F83B09A46DDE91197934604460A
:101ED000DDF84080FFF72AFF054694F83D002028F2
:101EE0007FD11923012240492046009501F0B0FA24
:101EF000002876D194F83C00012872D0012084F8A3
:101F00003C0020680168C90703D1016841F0010164
:101F100001602068016821F400610160212084F8DB
:101F20003D00402084F83E0000262664C4F824804A
:101F3000A4F82A90608D20852C48E062CDE90075D8
:101F400053465A462046049901F008FA70B930E029
:101F50002A463946204601F0FAFA58B1206C042886
:101F600004D12068016841F400710160012007B0CC
:101F7000BDE8F08F606A216800780861606A401CE3
:101F80006062218D491E89B22185628D521E628553
:101F900022685369DB435B070BD469B10078106199
:101FA000606A401C6062208D401E2085608D401E4E
:101FB0006085208D0028CBD12A463946204601F085
:101FC00021FA0028CAD154F83D0B016841F4007190
:101FD0000160202004F81E09E67766770020C6E736
:101FE000FFE70220C3E70000020010000000FFFF2F
:101FF00010B586B000210091019102910391006813
:102000000F4988421AD10F4CA06940F00800A06126
:10201000A069694600F008000490C02000901220DA
:102020000190032003900848FFF77EFDE06940F42B
:102030000010E061E06900F40010049006B010BDEB
:102040000054004000100240000C0140024881682A
:10205000027811448160704710000020074810B5D5
:10206000016841F010010160032000F075F80F20B5
:1020700000F006F800F024F8002010BD0020024017
:1020800070B50D4D04464FF47A712878B1FBF0F02D
:102090000A490968B1FBF0F000F0C6FB48B9102C02
:1020A00007D200222146501E00F036F800206C6056
:1020B00070BD012070BD0000100000201C00002039
:1020C0000C4808B5816941F001018161816901F025
:1020D00001010091C16941F08051C161C06900F006
:1020E000805000900448416821F0E06141F00071A7
:1020F000416008BD0010024000000140002809DBDB
:1021000000F01F02012191404009800000F1E02011
:10211000C0F8001170470000F0B40E4B1B680C466D
:10212000C3F30223C3F10705042D00D90425191DAB
:10213000072901D2002300E0DB1E012606FA05F183
:10214000491E214099409E40761E16403143F0BC06
:1021500002F020BC0CED00E0064900F00702086820
:102160004FF6FF03184040EA0220034A104308607C
:10217000704700000CED00E00000FA0510B529A43E
:1021800001461DCC86B08DE81D002AA02A4C0068AF
:1021900004900020012923D002293AD010291DD112
:1021A00061682268D20119D5C1F38342C9031DF8C1
:1021B000020009D5616804AAC1F34041515C1F4A7D
:1021C000B2FBF1F1484301E01D494843616849020F
:1021D00004D440005FF00301B0FBF1F006B010BD85
:1021E000226AC2F30121012903D1920701D5C80354
:1021F000F4E7022905D1626A920702D549F6404008
:10220000ECE70329EAD121688903E7D54FF224409E
:10221000E4E700F033F96168C1F38131491C4900FA
:10222000DAE7000002030405060708090A0B0C0D93
:102230000E0F1010010200000010024000127A0080
:1022400000093D002DE9F84305460078354CC007EC
:1022500054D0E0690026C00008D4E06940F0805006
:10226000E061E069012600F0805000902E4801688E
:10227000C90512D40168804641F480710160FFF7FE
:1022800055FD074605E000BFFFF750FDC01B642861
:1022900023D8D8F80000C005F6D5206A10F44070A5
:1022A00021D0A98801F4407181421CD0206A1F49C5
:1022B000012220F440700A6000220A602062C007F8
:1022C00011D0FFF733FD074641F2883808E000BF20
:1022D000FFF72CFDC11B414502D90320BDE8F8835F
:1022E000206A8007F4D5206A696820F440700843AA
:1022F00020621EB1E06920F08050E06128788007FC
:1023000005D56068A96820F44040084360602878DB
:10231000C00605D56068E96820F480000843606065
:102320000020DBE700100240007000404004424201
:102330002DE9F0470F46050061D0434E306800F0AC
:102340000700B84209D2306820F0070038433060F7
:10235000306800F00700B84251D128683B4C810733
:1023600012D5400703D5606840F4E06060602878CB
:10237000000703D5606840F4605060606068A96839
:1023800020F0F000084360602878C00728D0686813
:10239000012810D02168022810D0890700292EDAE0
:1023A000616821F0030101436160FFF7BFFC8046D3
:1023B00041F288390DE021688903EFE78901EDE7F3
:1023C000FFF7B4FCA0EB0801494502D90320BDE8A2
:1023D000F0876068696800F00C00B0EB810FEFD106
:1023E000306800F00700B8420BD9306820F00700D1
:1023F00038433060306800F00700B84201D0012057
:10240000E5E72878400705D56068E96820F4E060D2
:10241000084360602878000706D56068296920F4C1
:10242000605040EAC100606000F038F86168084A16
:10243000C1F30311515CC8400649086006480068B2
:10244000FFF71EFE0020C2E70020024000100240FD
:10245000E46500081C000020140000200448054921
:1024600000684968044AC1F30221515CC8407047C2
:102470001C00002000100240F465000804480549D3
:1024800000684968044AC1F3C221515CC8407047E2
:102490001C00002000100240F465000812A185B065
:1024A0000FC98DE80F0014A0144A00680490516809
:1024B000134801F00C03042B10D0082B0ED1C1F3EC
:1024C0008343C9031DF803000AD5516804AAC1F368
:1024D0004041515C0A4A5043B0FBF1F005B07047EF
:1024E00008494843FAE70000020304050607080903
:1024F0000A0B0C0D0E0F101001020000001002401C
:1025000000127A0000093D002DE9F84F040070D058
:102510002078C04DC00749D06868C0F38100012809
:1025200007D06868C0F38100022809D16868C00339
:1025300006D52868800339D560680028E7D035E0E3
:102540006068B0F5803F0BD010B1B0F5A02F11D06E
:10255000286820F480302860286820F4802002E079
:10256000286840F480302860606890B1FFF7DEFB97
:1025700006460AE0286840F480202860F0E700BFA3
:10258000FFF7D4FB801B642873D828688003F7D535
:102590000CE0FFF7CBFB064605E000BFFFF7C6FBEC
:1025A000801B6428F0D828688003F7D420789A4EDE
:1025B00080074FF001094FF0000839D5686810F026
:1025C0000C0F07D06868C0F38100022809D1686841
:1025D000C00306D42868800714D52069012808D1D3
:1025E00010E02069B0B1C6F80090FFF79FFB0746E6
:1025F00005E00AE1FFF79AFBC01B0228C4D828684F
:102600008007F7D52868616920F0F80040EAC1002A
:1026100028600DE0C6F80080FFF788FB074604E05D
:10262000FFF784FBC01B022823D828688007F7D453
:10263000207800072CD57948A169D9B1C0F800905D
:10264000FFF774FB074604E0FFF770FBC01B02288E
:102650000FD8686A8007F7D571484FF4FA510068BF
:10266000B0FBF1F0009000BF0098411E0091FAD23B
:102670000EE080E0C0F80080FFF758FB074604E05A
:10268000FFF754FBC01B022875D8686A8007F7D48F
:102690002078400760D5E8690027C00008D4E869C1
:1026A00040F08050E861E869012700F08050009018
:1026B0005C480168C90513D40168834641F4807100
:1026C0000160FFF733FB824606E000BFFFF72EFBF9
:1026D000A0EB0A0064284ED8DBF80000C005F5D551
:1026E000E06801280AD008B1052813D0286A20F034
:1026F00001002862286A20F0040002E0286A40F005
:1027000001002862E06841F2883B98B1FFF70EFBB8
:1027100082460BE0286A40F004002862EEE700BF22
:10272000FFF704FBA0EB0A0159455AD8286A800735
:10273000F6D50CE0FFF7FAFA824605E0FFF7F6FA65
:10274000A0EB0A0159454CD8286A8007F6D41FB17E
:10275000E86920F08050E861E06988B36968C1F3F6
:102760008101022944D00228C6F8608004D0FFF716
:10277000DDFA044638E034E0FFF7D8FA074604E013
:10278000FFF7D4FAC01B02282BD828688001F7D4A1
:10279000206AB0F5803F05D16868A16820F4003058
:1027A00008436860D4E908010843696821F474119A
:1027B00008436860C6F86090FFF7B8FA044606E080
:1027C00025E000BFFFF7B2FA001B022809D82868ED
:1027D0008001F7D51BE000BFFFF7A8FA001B022815
:1027E00002D90320BDE8F88F28688001F4D40EE0F8
:1027F0000128F7D06868226A00F48031914204D140
:10280000616A00F47010884201D00120EAE70020DC
:10281000E8E700000010024000004242800442420B
:102820001C0000200070004010B5401EB0F1807FF9
:1028300001D3012010BD4FF0E02460610F2160172B
:1028400002F0A8F80020A06107202061002010BD40
:102850007047704710B590F83C20012A22D0012221
:1028600080F83C20CA688C6822F4407222434C688D
:1028700022F4806222430C6822F4006222430C6935
:1028800022F4805222434C6922F400522243C96947
:10289000002322F480420A4301684A6480F83C30F5
:1028A000002010BD022010BD70B590F83C20012A18
:1028B00026D0012480F83C40022280F83D200368A5
:1028C0005A689D6822F070060A6832435A600D4BC0
:1028D00002689A4208D0B2F1804F05D00A4B9A4262
:1028E00002D00A4B9A4204D1496825F0800319436B
:1028F000916080F83D40002180F83C10084670BD92
:10290000022070BD002C014000040040000800407F
:1029100010B5040003D094F83D0010B107E0012089
:1029200010BD002084F83C00204600F01FF8022073
:1029300084F83D00211D206801F056FE012084F836
:10294000460084F83E0084F83F0084F8400084F894
:10295000410084F8420084F8430084F8440084F87D
:10296000450084F83D00002010BD000008B5274A4E
:102970000168274891420ED1816941F4006181616B
:102980008069002200F40060009011461B20FFF7D0
:10299000C3FB1B2034E0B1F1804F11D01D4A91429E
:1029A0001DD1C16941F00201C161C069002200F07E
:1029B0000200009002211D20FFF7AEFB1D201FE04A
:1029C000C16941F00101C161C069002200F001004C
:1029D000009002211C20FFF79FFB1C2010E00E4AF4
:1029E000914211D1C16941F00401C161C069002265
:1029F00000F00400009002211E20FFF78DFB1E2036
:102A0000BDE80840FFF77ABB08BD0000002C01407C
:102A100000100240000400400008004090F83D1003
:102A2000012901D001207047022180F83D10016882
:102A3000CA6842F00102CA6000680B49884208D0A7
:102A4000B0F1804F05D00949884202D00849884238
:102A500004D1816801F00701062903D0016841F023
:102A60000101016000207047002C0140000400407B
:102A7000000800400168CA6822F00102CA600168CB
:102A80000A6A41F211131A4207D10A6A9B101A42CC
:102A900003D10A6822F001020A60012180F83D108A
:102AA0000020704770B5044690F83C00012817D00C
:102AB000012584F83C50022084F83D00206882689B
:102AC00022F0770222F47F4282600868502830D0DA
:102AD0000DDC20284DD005DC98B310283BD148E010
:102AE000022070BD302844D0402834D139E060281D
:102AF00028D0702806D0B0F5805F2CD0B0F5005FEC
:102B000029D10AE0CB68D1E90121206801F0AFFDAD
:102B10002068816841F0770109E0CB68D1E90121A3
:102B2000206801F0A4FD2068816841F48041816043
:102B300011E0CA684968206801F04EFE5021206803
:102B400007E016E0CA684968206801F056FE602177
:102B5000206801F096FD84F83D50002084F83C0088
:102B600070BDCA684968206801F036FE40212068BF
:102B7000EFE7226801461046EBE7704770B5044660
:102B8000006801694FF00005C943890715D4C16881
:102B9000C943890711D4E91E01610120207720680B
:102BA00080698007204602D0FFF7E7FF04E000F0CD
:102BB00025F9204600F097FA257720680169C94376
:102BC000490717D4C168C943490713D46FF00401FA
:102BD0000161022020772068806910F4407F204640
:102BE00002D0FFF7CAFF04E000F008F9204600F029
:102BF0007AFA257720680169C943090716D4C168A4
:102C0000C943090712D46FF008010161042020773D
:102C10002068C0698007204602D0FFF7AEFF04E0BD
:102C200000F0ECF8204600F05EFA25772068016994
:102C3000C943C90617D4C168C943C90613D46FF084
:102C400010010161082020772068C06910F4407FDE
:102C5000204602D0FFF791FF04E000F0CFF82046B5
:102C600000F041FA257720680169C943C90708D1F6
:102C7000C168C943C90704D1891E0161204600F01B
:102C800033FA20680169C943090609D4C168C943F8
:102C9000090605D46FF0800101612046FFF7D8FDD9
:102CA00020680169C943490609D4C168C943490676
:102CB00005D46FF040010161204600F04DFA206814
:102CC0000169C94389060BD4C168C943890607D481
:102CD0006FF0200101612046BDE87040FFF7B9BDEB
:102CE00070BD000030B585B00021009101910291C6
:102CF00003912949274D03688C1502222748AB42CE
:102D000007D18B6943F004038B61896901F00401E9
:102D10003AE0B3F1804F1DD0214D2248AB4229D17A
:102D20008B6943F008038B618969039201F0080104
:102D300004911021CDE900126946FEF7F5FE1A480C
:102D4000416821F4406141F0E06141F4006141607B
:102D500005B030BD8B6943F004038B618969039230
:102D600001F0040104910121CDE900126946FEF74A
:102D7000DBFEEDE70D4DAB42EAD18B6943F0080372
:102D80008B61896901F00801CDE90042CDE9032199
:102D9000ECE70000002C0140001002400008014058
:102DA00000040040000C0140000001400008004009
:102DB00010B5044690F83C0001280AD0012084F8A0
:102DC0003C0042B1042A0AD0082A0CD00C2A11D1A6
:102DD0000DE0022010BD206801F05CFC0AE02068D4
:102DE00001F080FC06E0206801F0A8FC02E0206809
:102DF00001F0D0FC002084F83C0010BD704710B5F5
:102E0000040003D094F83D0010B107E0012010BD8C
:102E1000002084F83C00204600F01EF8022084F8D0
:102E20003D00211D206801F0DFFB012084F84600F1
:102E300084F83E0084F83F0084F8400084F84100A4
:102E400084F8420084F8430084F8440084F8450084
:102E500084F83D00002010BD7047000010B5044606
:102E6000022249B1042912D008291CD094F841004B
:102E7000012823D0012010BD94F83E000128F9D18B
:102E800084F83E202068C26842F0020209E094F80B
:102E90003F000128EED184F83F202068C26842F04C
:102EA0000402C2600EE094F840000128E2D184F8E8
:102EB00040202068C26842F00802F2E784F841200E
:102EC0000C2922D00122206801F0C4FB114920689E
:102ED000884203D1426C42F4004242642068884236
:102EE00008D0B0F1804F05D00B49884202D00B4981
:102EF000884204D1816801F00701062903D00168E6
:102F000041F001010160002010BD2068C26842F05C
:102F10001002C6E7002C01400004004000080040F9
:102F200030B5044600680D0006D0042D08D0082DE9
:102F300035D00C2D08D136E0C16821F0020102E045
:102F4000C16821F00401C16000222946206801F017
:102F500081FB1B4B41F2111120688A10984209D164
:102F6000036A0B4206D1036A134203D1436C23F474
:102F7000004343642068036A0B4206D1016A114290
:102F800003D1016821F00101016001207DB1042D10
:102F900010D0082D11D084F84100002030BDC16848
:102FA00021F00801CFE7C16821F01001CBE784F8D8
:102FB0003E00F2E784F83F00EFE784F84000ECE7DA
:102FC000002C014070B5044690F83C000D460128E5
:102FD0000AD0012084F83C0042B1042A18D0082A03
:102FE0002AD00C2A4DD139E0022070BD206801F0B2
:102FF00051FB2068816941F0080181612068816985
:1030000021F004018161206881692A69114311E07E
:10301000206801F067FB2068816941F400618161EB
:103020002068816921F480618161206881692A6951
:1030300041EA0221816124E0206801F07FFB2068E1
:10304000C16941F00801C1612068C16921F0040132
:10305000C1612068C1692A69114311E0206801F04B
:1030600099FB2068C16941F40061C1612068C169B0
:1030700021F48061C1612068C1692A6941EA0221A5
:10308000C161002084F83C0070BD10B5040003D07D
:1030900094F83D0010B107E0012010BD002084F835
:1030A0003C00204600F01EF8022084F83D00211D5F
:1030B000206801F099FA012084F8460084F83E0067
:1030C00084F83F0084F8400084F8410084F842000E
:1030D00084F8430084F8440084F8450084F83D00F7
:1030E000002010BD7047704770B500680025164C71
:1030F000B0F1804F09D01549884217D1A06A401C11
:10310000A062B0F57A7F0CD00CE0E06A401CE0626F
:10311000606A401C6062642802D103F041FA656273
:1031200070BDA562BDE8704001F09CB908498842B5
:1031300003D1BDE8704001F0E3B806498842EFD101
:10314000BDE8704000F096BF6C0000200008004011
:1031500000040040002C0140704770B5040004D00A
:1031600094F83D00002510B106E0012070BD84F800
:103170003C50204600F022F8242084F83D002068CE
:10318000C16821F40051C160204601F049FB20686C
:10319000016921F4904101612068416921F02A010F
:1031A00041612068C16841F40051C160256420205C
:1031B00084F83D0084F83E00002070BD70B586B0F4
:1031C0000024009401940294039403682648254E39
:1031D000022103220515B3421ED1836943F48043C3
:1031E0008361836903F480430493836943F0040398
:1031F000836180691D4E00F0040004900802CDE94F
:103200000001039269463046FEF78EFCCDE900547A
:1032100069463046029420E0154EB3421FD1C3697F
:1032200043F48023C361C36903F480230493836957
:1032300043F0080383618069CDE9005100F0080084
:10324000CDE903200B4D69462846FEF76DFCE814D6
:10325000CDE90004694628460294FEF765FC06B0F5
:1032600070BD00000038014000100240000801401D
:1032700000480040000C01402DE9F843044690F856
:103280003D001F4616460D4620284CD1C5B1BEB1A3
:1032900094F83C00012846D0012084F83C004FF00F
:1032A0000008C4F84080212084F83D00FEF73EFD70
:1032B000A6848146E684A068B0F5805F03D004E070
:1032C0000120BDE8F883206928B12E465FF0000593
:1032D00084F83C800EE00026FAE78021204601F0C9
:1032E000FBFAA0B9AEB116F8010B21684860E08C7A
:1032F000401EE084E08C4B464FF00002009700280F
:10330000EBD14FF04001204601F0E6FA30B1032046
:10331000D7E735F8020BC0F30800E6E7202084F871
:103320003D000020CDE70220CBE7FEE701684A69B7
:10333000D24352050FD46FF480624A61002140F8F5
:10334000301F202242738173026942F0040202613D
:103350000173012070470020704700002DE9F843F9
:10336000044600680D46DDE9089701689846164650
:1033700041F4807101604B4600224FF0011120465C
:10338000009700F065F848B120680068C00502D5D4
:103390004FF4007020640320BDE8F883216805F035
:1033A000FE0008613B464A461549204600F084F875
:1033B00088B920684169806900903A4649462046AC
:1033C00000F0C5F848B1206C042804D120680168D9
:1033D00041F4007101600120DEE7F5B2B8F1010FA0
:1033E00009D02168300A08613A464946204600F073
:1033F000AEF80028E7D1206805610020CCE7000086
:103400000200010070B516460D4604460DE0204648
:10341000FFF78CFF08B1012070BD681C05D0FEF7D6
:1034200085FC801BA84207D835B120684069C0439D
:103430004007ECD4002070BD002044F8300F20215C
:103440006173A073216941F0200121612073E2E7DB
:103450002DE9F0471E4690460D460446C1F3074746
:10346000DDF8209008E0701C06D0FEF75FFCA0EBB2
:103470000900B0420FD876B12068012F18D08069BA
:1034800025EA00000004000C14D000214145EAD0D8
:103490000020BDE8F087002044F8300F2021617340
:1034A000A073216941F02001216120730120F0E720
:1034B0004069E5E70121E9E72DE9F0479A469146A1
:1034C0000E46044600254FF02008C1F3074725E0CB
:1034D00020684069C043400514D42068016841F465
:1034E0000071016021686FF480604861256384F891
:1034F0003D8084F83E50206C40F00400206484F845
:103500003C501FE0B9F1FF3F08D0FEF70FFCA0EBE5
:103510000A0149450CD8B9F1000F09D02068012FE4
:1035200013D0806926EA00000004000C0BD0CFE71E
:1035300044F8305F84F80D80A573206940F02000C6
:10354000206125730120BDE8F0874069EAE770B586
:1035500016460D4604460DE02046FFF7E7FE08B18B
:10356000012070BD681C05D0FEF7E0FB801BA8425F
:1035700007D835B120684069C0430006ECD400206C
:1035800070BD002044F8300F20216173A0732169C1
:1035900041F0200121612073E2E700007FB505467C
:1035A0000C4612A001F0D2F9E1B2B4F5807F01D946
:1035B000200A00E000208DF80C008DF80D10642228
:1035C000022103A88DE8070010232A46A2210848FB
:1035D000FEF776FC9DF80C1006A001F0B7F99DF8F7
:1035E0000D1008A001F0B2F97FBD000025640000B5
:1035F000BC0100205770617261313D307825303256
:10360000580D0A005770617261323D3078253032B2
:10361000580D0A002DE9F04115460E4607460024D4
:1036200004E03146384600F0B1FC641CAC42F8DBE3
:10363000BDE8F0813EB500211148009101910F4A8B
:103640000291026001248160047301754FF46022CD
:103650000461C2614160FDF7A5FD08B1FDF71FFCE3
:1036600007200094CDE9014069460548FDF79EFC1E
:10367000002801D0FDF713FC3EBD000000240140EE
:103680006401002010B51E488AB01C490160082161
:103690000024C0E901144905C16089110161C90014
:1036A0004161047644768476C47604774477FEF7E5
:1036B0000DF908B1FDF7F3FB0120CDE906400890B4
:1036C0000594049400940194029469460C48039470
:1036D000FDF712FF08B1FDF7E2FB0948FEF7DEF93E
:1036E00008B1FDF7DCFB02210548FDF785FE002847
:1036F00001D0FDF7D4FB0AB010BD0000006400400B
:10370000940100202DE9F04385B000242648009460
:10371000019402940394816941F0200181618169DF
:1037200001F020010491816941F004018161816906
:1037300001F004010491816941F00801816180690F
:10374000DFF8688000F0080048F2080504900022C5
:1037500029464046FEF7E5FADFF854904EF2282756
:10376000002239464846FEF7DCFA0095022601257C
:103770000396CDE9015469464046FEF7D5F941F27A
:103780000300CDE90004694648460294FEF7CCF9EF
:1037900000970396CDE9015469464846FEF7C4F9FF
:1037A00005B0BDE8F08300000010024000080140B1
:1037B000000C01400D4810B50B4901600C494160F7
:1037C00000214FF480428160C0E9031241618161B0
:1037D000C1610162FEF7B0FA002803D0BDE81040D5
:1037E000FDF75DBB10BD000000540040BC0100208F
:1037F000A086010010B596B000240F941094119487
:10380000129413941C2108A81494FCF7A4FC202102
:103810006846FCF7A0FC28482649C0E900144FF68A
:10382000FE71C0E9024180210461C0E90541FFF752
:103830006FF808B1FDF733FB4FF480500F900FA9DC
:103840001D48FFF72FF908B1FDF729FB1A48FFF7CC
:10385000D6FA08B1FDF723FB139413A91648149464
:10386000FFF722F808B1FDF71AFB3020CDE9080474
:103870000A940B940C940D94002208A90E480E94FF
:10388000FFF796FA08B1FDF70AFB00944FF40050D9
:10389000CDE90440029401940394694606480794D4
:1038A000FEF7D8FF08B1FDF7FAFA0348FFF71AFA56
:1038B00016B010BD002C01401002002010B58EB0D3
:1038C00000240794089409940A940B941C216846D8
:1038D0000C94FCF740FC1F484FF0804101604721E9
:1038E000C0E9011442F20F71C0E903148021816123
:1038F000FFF70EF808B1FDF7D2FA4FF480500790A9
:1039000007A91448FFF7CEF808B1FDF7C8FA114827
:10391000FFF7BBFB08B1FDF7C2FA0B940BA90D48EA
:103920000C94FEF7C1FF08B1FDF7B9FA60200090D2
:103930004FF4FA60CDE90104002269460548049479
:10394000FFF740FB08B1FDF7AAFA0248FFF7CAF9F2
:103950000EB010BD5802002010B58EB000240794A0
:10396000089409940A940B941C2168460C94FCF763
:10397000F2FB20481E4901604721C0E901144FF4C1
:103980007A71C0E9031480218161FEF7C1FF08B19B
:10399000FDF785FA4FF48050079007A91548FFF707
:1039A00081F808B1FDF77BFA1248FFF76EFB08B10A
:1039B000FDF775FA0B940BA90E480C94FEF774FFF3
:1039C00008B1FDF76CFA702000904FF4FA70CDE961
:1039D00001040022694607480494FFF7F3FA08B18E
:1039E000FDF75DFA0348FFF77DF90EB010BD00004A
:1039F00000040040A002002010B58EB000240794FF
:103A0000089409940A940B941C2168460C94FCF7C2
:103A1000A2FB20481E4901604721C0E901144FF470
:103A20007A71C0E9031480218161FEF771FF08B14A
:103A3000FDF735FA4FF48050079007A91548FFF7B6
:103A400031F808B1FDF72BFA1248FFF71EFB08B159
:103A5000FDF725FA0B940BA90E480C94FEF724FFF2
:103A600008B1FDF71CFA702000904FF4FA70CDE910
:103A700001040822694607480494FFF7A3FA08B135
:103A8000FDF70DFA0348FFF72DF90EB010BD000049
:103A900000080040E80200200C4810B50A49016007
:103AA0004FF4E1314160002181600C22C160C0E926
:103AB00004128161C161FFF750FB002803D0BDE80B
:103AC0001040FDF7ECB910BD003801403003002074
:103AD0000C4810B50A4901604FF4E1314160002102
:103AE00081600C22C160C0E904128161C161FFF7ED
:103AF00034FB002803D0BDE81040FDF7D0B910BD5D
:103B00000048004074030020FEE700002DE9F05F4C
:103B1000DFF8E490394C984617460E4605464FF0BC
:103B2000FF3A4FF0140B012825D0002D61D047F645
:103B3000B721B1FBF8F020613148B0FBF6F0FCF79B
:103B400090FD02F0ADFC00222E4BFCF78AFC002217
:103B50002D4BFCF7F8FCFCF7BEFD0246606006EB5F
:103B6000460040006421B0FBF1F108FB08F0B0FB17
:103B7000F1F058B10BE0C4F814A0207820F0070051
:103B8000801C20704FF47A70606026E0012005FBF5
:103B900007F1F319B1FBF3F101B90121814201D819
:103BA000481B03E07043B0FBF7F04042E06010B9FF
:103BB0005046C4F80CA02844A0602069824205D871
:103BC0006060207820F00700C01C03E0207820F01F
:103BD0000700401C20700020606199F8001041F03F
:103BE000010189F8001009490A68C2F82CB0C1F82F
:103BF0000CB0BDE8F09F00002C0000202004002045
:103C0000ACDF5F000068BA4000005940E8020020C5
:103C10002DE9F04706461B4801EB4101194C50F8CD
:103C2000219000EB8100103CD0E9018720781546F7
:103C300040F00500207000224FF400711248FEF79A
:103C400070F8204616B1012E02D006E0002100E0F7
:103C5000012141700DA000F079FE3B4642464946E5
:103C60002846FFF753FF0E48FEF7D8FE207805E000
:103C70000A20FDF747FF2078410701D5C007F7D19B
:103C8000BDE8F0873C000020000C014053696E67DE
:103C90006C654368616E676531CEAAA3BA2564007E
:103CA000E80200202DE9F05FDFF8E490394C9846F7
:103CB00017460E4605464FF0FF3A4FF0140B012809
:103CC00025D0002D61D047F6B721B1FBF8F0206177
:103CD0003148B0FBF6F0FCF7C4FC02F0E1FB002237
:103CE0002E4BFCF7BEFB00222D4BFCF72CFCFCF707
:103CF000F2FC0246606006EB460040006421B0FB27
:103D0000F1F108FB08F0B0FBF1F058B10BE0C4F89A
:103D100014A0207820F00700801C20704FF47A70E7
:103D2000606026E0012005FB07F1F319B1FBF3F118
:103D300001B90121814201D8481B03E07043B0FB67
:103D4000F7F04042E06010B95046C4F80CA0284497
:103D5000A0602069824205D86060207820F00700CA
:103D6000C01C03E0207820F00700401C20700020D9
:103D7000606199F8001041F0010189F800100949CB
:103D80000A68C2F82CB0C1F80CB0BDE8F09F000082
:103D90002001002058040020ACDF5F000068BA401A
:103DA00000005940A002002070B50500134801EB47
:103DB0004103124C50F8231000EB8300A4F11004CF
:103DC000D0E901631046227842F0050222702246B3
:103DD00001D0012D00D155703246FFF763FF08482E
:103DE000FEF71CFE207805E00A20FDF78BFE207808
:103DF000410701D5C007F7D170BD00003001002098
:103E0000A0020020FEE72DE9F0410C4605460168BE
:103E10008068FCF7ABF9A860E168FCF7AFFC01D261
:103E2000E16800E0A968A960E06880F00040FCF764
:103E3000A5FC03D2E06880F0004100E0A968A96019
:103E40006068FCF7EBF9D5E9007180463846FCF76D
:103E5000DFF9A168FCF7E2F9064639462068FCF76D
:103E6000DDF93146FCF782F94146FCF77FF9FCF7B2
:103E700005FC06466F60FCF7D5FB2169FCF77EFC6C
:103E800003D22069FCF7FAFB0646206980F0004562
:103E90003046FCF7C7FB2946FCF766FC05D22069D3
:103EA00080F00040FCF7EAFB06463046BDE8F041F2
:103EB000FCF7B8BB704770472DE9F05F304D0E46F8
:103EC00041F65831298200216972E96CDFF8B4A00B
:103ED000471893463B465246C8213C2000F068F9FB
:103EE000294CEF6305E00A20FDF70CFE207800283E
:103EF000F9D120780028F9D1C82001F0BBFC4FF09F
:103F00000009C6F10008288C434601B252463C2005
:103F100000F04EF902E00A20FDF7F4FD20780028B9
:103F2000F9D1288C334601B252463C2000F040F9CA
:103F300002E00A20FDF7E6FD20780028F9D109F11A
:103F40000109B9F14B0FDEDB06F57A704342288C8C
:103F5000524601B23C2000F02BF902E00A20FDF7A6
:103F6000D1FD20780028F9D1B81BA0F57A704FF464
:103F70007A71E8630BFB01F0BDE8F05FFDF7C2BDAD
:103F80006C0000200AD7233C700400202DE9F05F6C
:103F900042F2283AAAEB000541F288308B4685426E
:103FA00003D342F21C518D4200D90546C82001F0CE
:103FB00061FC2C4CDFF8B4904FF0010884F80980C4
:103FC000294B4A46C8213C2000F0F2F8284E3078B0
:103FD0000028FCD10A20FDF795FD0027394642F262
:103FE0001070E76301F078FC0021504601F074FC8A
:103FF0006772E16B4A46ABEB0103C8213C2000F03D
:10400000D7F841F2B440E0634FF4FA60FDF77AFD6F
:104010000021284601F060FC4FF4FA752846FDF7B0
:1040200071FD84F80980104B4A46C8213C2000F0FD
:10403000BFF830780028FCD10A20FDF763FD284640
:10404000E763FDF75FFD42F21070FDF75BFD0021B5
:1040500042F6041001F040FCBDE8F05F40F6B830D5
:10406000FDF750BD6C000020F0D8FFFF0AD7233CBD
:10407000700400202DE9F05F47490868C268D24308
:10408000920772D46FF0020289460261434C207895
:10409000401C20702078424D022874D100262670E2
:1040A00040480078012806D101033F48FDF72CFE67
:1040B000012800D12E702978394F4FF47A5A2837C9
:1040C000C1B33A484FF0FF3BA7F11C08012904D0C7
:1040D000022942D0032953D11BE06A68D8F808109E
:1040E000491E8A4202D30220287033E00068FCF7A0
:1040F000A2FA616808EB8101C969FCF7C1F8594669
:10410000FCF7FCF8FCF7D3FA28816068401C60607B
:1041100036E06A68D8F81010491E8A420BD3002195
:104120001D48FEF7FDFE51463846FCF714F8666060
:104130002E7025E01BE00068FCF77DFA626808EB52
:104140008201C969FCF79CF85946FCF7D7F8FCF7DF
:10415000AEFA28816068401ED9E76868D8F80C106C
:1041600088420DD3032028700AE013E00BE0002101
:104170000948FEF7D5FE51463846FBF7ECFF66606E
:104180006868401C6860D9F80010486A2A891044A1
:1041900080B24863BDE8F09F100200205401002067
:1041A0007004002075000020000C01401C0000205D
:1041B00070B5244D1E462B780BB1002070BDFCF766
:1041C00015FD0028FAD020484FF48041002E02DA75
:1041D0007642012200E00022FDF7A3FD194C0C34C9
:1041E000A068B6EB400F29DB26612069A168401A60
:1041F000E06000262E606E60AE60012028706E6068
:1042000012480068FCF717FAE169FCF739F8711EEB
:10421000FCF774F8FCF74BFA28810D4801684E62F0
:10422000298900684163012200210A4800F012FA3E
:1042300000210748FEF712FE012070BD06A000F025
:1042400085FBBAE770040020000C01401C00002030
:1042500010020020002C0140BCD3BCF5CBD9B2CE5B
:10426000CAFDC9E8D6C3B4EDCEF3A3A10D0A000080
:10427000FDF7ECBE30B593B028216846FBF76BFF25
:1042800014210AA8FBF767FF002501200F95109560
:104290001195010412958DE8230004904FF4E0106D
:1042A000CDE90810022407946846FEF72DF908B1FD
:1042B00072B6FEE70AA90F2081E831004FF4806052
:1042C000CDE90D0502210AA8FEF732F808B172B651
:1042D000FEE74FF4004011900F940FA8FDF7B2FFD6
:1042E000002801D072B6FEE713B030BD7047FFF76B
:1042F000C1BE00000148FEF741BC0000580200208A
:104300002DE9F0414D4D0127A846687801280CD1D0
:1043100002214B48FDF7F8FC38B998F8000020F06E
:10432000040088F8000047480770474C474A606817
:104330004108116045490839086098F8001049079C
:1043400003D4217821F0070121702178404A11F02F
:1043500007034FF0000C06D0012B16D0022B4ED0D5
:10436000032B68D139E0C5F808C0C5F80CC0106847
:1043700020F0010010603748FEF77CFB98F8001031
:1043800021F0010188F8001055E0136843F00103A3
:104390001360AA68521CAA606669761C6661EB68A5
:1043A00007EB860703EB400393FBF7F6861B93FBB3
:1043B000F7F007FB1030E860A068904202D8E06890
:1043C000606118E02069B04235D36E60064621F086
:1043D0000700C01CC5F80CC02CE0106840F00100BC
:1043E0001060A868401CA860A2682669824222D892
:1043F000E06860616E6821F00700801C1AE01368B5
:1044000043F001031360AA68521CAA606269521C3F
:104410006261EB6807EB820703EB400393FBF7F65F
:10442000A0EB060693FBF7F007FB1030E86002D420
:1044300021F0070020706660BDE8F08120010020B7
:10444000000C01401D0100205804002034040040ED
:1044500020040040A00200200148FEF78FBB0000AE
:10446000A00200202DE9F041524D0127A8466878AE
:1044700001280CD101215048FDF746FC38B998F8C5
:1044800000104E4821F0040188F8001007704C4CD1
:104490004C4A6068410811604A491039086098F830
:1044A0000000400706D4207820F00700207046A0C6
:1044B00000F04CFA2078474910F007024FF0000C4A
:1044C00006D0012A1BD0022A54D0032A6FD13FE024
:1044D000C5F808C098F80000474620F0040088F8A6
:1044E0000000C5F80CC0086820F4807008603A48E5
:1044F000FEF7C0FA387820F00100387057E00A68FB
:1045000042F480720A60A968491CA9606269521C61
:1045100062616668EB6807EB820203EB460393FB7C
:10452000F2F7F61B93FBF2F702FB1732EA60A26880
:104530008A4202D8E168616118E02169B14236D34C
:104540006E6020F007000E46C01CC5F80CC02DE0C0
:104550000A6842F480720A60A968491CA960A268CE
:1045600026698A4223D8E16861616E6820F00700FD
:10457000801C1BE00A6842F480720A60A968491C2A
:10458000A9606169491C61616368EA6807EB81079A
:1045900002EB430292FBF7F6A3EB060692FBF7F35E
:1045A00007FB1322EA6002D420F007002070666047
:1045B000BDE8F0812C000020000C01401C0100200F
:1045C000200400203C080040CDA3D6B9D4CBB6AF20
:1045D0000000000020080040E80200200148FEF72B
:1045E000CDBA0000E8020020F0B50268164B174C67
:1045F000174D4FF08047984205D0B84203D0A042F3
:1046000001D0A84203D122F070064A683243984292
:1046100005D0B84203D0A04201D0A84203D122F471
:104620004074CA6822434C6922F08002224302602F
:104630008A68C2620A688262984201D1096901638C
:1046400001214161F0BD0000002C01400004004048
:104650000008004010B501F01F030121046A9940D1
:104660008C430462016A9A401143016210BD10B587
:10467000846842EA032224F47F440A43224382608E
:1046800010BD826822F070020A4342F00701816087
:104690007047000030B5026A22F001020262026A2D
:1046A0004368846924F073050C682C4322F00205EA
:1046B0008A682A430A4DA8420BD122F00805CA682D
:1046C00023F440732A434D6922F004021D438B6991
:1046D0002B434360846149684163026230BD00003E
:1046E000002C014030B5026A22F010020262026A18
:1046F000436884690D6824F4E64444EA05248D681F
:1047000022F0200242EA05120B4DA8420ED1CD68DC
:1047100022F0800242EA05124D6923F4406343EA25
:1047200085038D6922F0400243EA8503436084617A
:1047300049688163026230BD002C014030B5026AD5
:1047400022F480720262036A4268C46923F400732F
:1047500024F073050C682C438D6843EA05230C4D47
:10476000A8420ED1CD6823F4006343EA05234D69C6
:1047700022F4405242EA05128D6923F4806342EA32
:1047800005124260C4614968C163036230BD000024
:10479000002C014030B5026A22F480520262046AA1
:1047A0004268C3690D6823F4E64343EA05238D6834
:1047B00024F4005444EA0534064DA84204D14D695E
:1047C00022F4804242EA85124260C3614968016472
:1047D000046230BD002C014010B5036A046A24F065
:1047E00001040462846924F0F00444EA021423F012
:1047F0000A020A438461026210BD10B5036A23F005
:10480000100303628369046A23F4704343EA0232AB
:1048100024F0A00343EA01118261016210BD00008F
:1048200070B5044600680169E26821F44051114303
:1048300001612169A0680843616908432168CA6869
:1048400041F20C639A430243CA6020684169A2693D
:1048500021F44071114341611E492068884202D110
:10486000FDF70CFE01E0FDF7F9FD00EBC00101EBE7
:104870000012606864218000B2FBF0F3B3FBF1F337
:104880006FF018067343B2FBF0F5B2FBF0F605EBE0
:104890008305322303EB0515B5FBF1F5B6FBF1F605
:1048A00005F0F00505EB0615B2FBF0F6B2FBF0F0F3
:1048B000B0FBF1F06FF01802504306EB800003EB01
:1048C0000010B0FBF1F0216800F00F002844886070
:1048D00070BD0000003801402DE9F04198461746B0
:1048E0000E460446069D1DE0681C1BD02DB1FDF749
:1048F0001DFAA0EB0800A84214D92068C16821F471
:10490000D071C1602068416921F00101416120201E
:1049100084F83D0084F83E00002084F83C00032029
:10492000BDE8F0812068006836EA000004D000206D
:10493000B842D9D00020F3E70120F9E70148FCF79D
:10494000C7BE000094010020FEE700000FB4054B35
:1049500010B503A9044A029800F0B8F810BC5DF83D
:1049600014FB0000AD4F00085C010020490050EA34
:10497000C12018BF04204A0D18BF40F0010040F2CA
:10498000FF72B2EB515F08BF40F00200012808BF80
:10499000052070470907090E002804DB00F1E0201C
:1049A00080F80014704700F00F0000F1E02080F85C
:1049B000141D70472DE9F0414F1E00EBC70104465E
:1049C000D1E9000115461E4637F006020DD02A46F1
:1049D0003346FBF746FD7F1E04EBC703D3E90023F4
:1049E000FBF798FC37F00602F1D1022F25D0042FF7
:1049F00013D0062F18BFBDE8F0812A463346FBF7D7
:104A000030FDD4E90A23FBF785FC2A463346FBF741
:104A100028FDD4E90823FBF77DFC2A463346FBF743
:104A200020FDD4E90623FBF775FC2A463346FBF745
:104A300018FDD4E90423FBF76DFC2A463346FBF747
:104A400010FDD4E90223FBF765FC2A463346FBF749
:104A500008FDD4E90023BDE8F041FBF75BBC000092
:104A60000022134610460149FBF76DBD0000F03FE0
:104A7000FBF750BC0022134610461146FBF763BDFE
:104A800040F2013200204FF0E041FBF767BF000029
:104A9000024A00201107FBF761BF000001FDFFFF84
:104AA00002E008C8121F08C1002AFAD170477047F7
:104AB000002001E001C1121F002AFBD17047000055
:104AC0000149086070470000600100202DE9FF4F98
:104AD0008DB00F460546002606E025280BD0DDE9FF
:104AE0000F1290476D1C761C28780028F5D111B064
:104AF0003046BDE8F08F0024A246A1460122E949D4
:104B000000E0044315F8013F203B02FA03F008429D
:104B1000F7D128782A2810D06FF02F022878A0F13A
:104B20003001092914D80AEB8A0102EB410144F053
:104B3000020400EB010A6D1CF0E701CF5FEA000AF6
:104B400003D544F40054CAF1000A44F002046D1C79
:104B500028782E2817D115F8010F44F004042A28CC
:104B60000ED06FF02F022878A0F1300109290AD861
:104B700009EB890102EB410100EB01096D1CF2E731
:104B800057F8049B6D1C28786C280FD006DC4C2845
:104B900017D068280DD06A2814D104E0742810D0EA
:104BA0007A280FD10DE044F400140AE044F4801494
:104BB00001E044F440146978814202D104F5801484
:104BC0006D1C6D1C28786E281ED00CDC632830D03C
:104BD00004DC00288BD0582811D19FE0642867D0CE
:104BE00069280CD164E073282DD004DC6F2872D0C2
:104BF000702804D194E075286ED078286DD0DDE956
:104C00000F129047761C4BE1C4F30250022806D0E5
:104C1000032809D0042801CF09D0066040E101CF64
:104C2000F117C0E900613BE101CF068038E1067071
:104C300036E117F8040B8DF8000000208DF8010014
:104C4000EB46012003E057F804BB4FF0FF3061074B
:104C50004FF0000102D40DE008F1010188464945FA
:104C60000FDA8045F8DB1BF808100029F4D108E0C2
:104C700008F1010188468142FADB1BF8081000297F
:104C8000F6D1DDE90F23AAEB08008146214600F0AA
:104C900031F9304400EB080604E0DDE90F121BF89F
:104CA000010B9047B8F10108F7D221464846F2E0DF
:104CB0000A21C4F302524FF0000B0891022A04D0DB
:104CC00001CFC117032A09D00AE0FF1D27F007070B
:104CD000F7E8020108E02CE01EE01FE000B2C11777
:104CE000042A01D140B2C117021E71F1000206DA96
:104CF0000023D0EB030063EB01012D2202E022052B
:104D000004D52B228DF82420012203E0E20701D0F4
:104D10002022F7E7904653E00A210BE0102109E03A
:104D200010214FF0000B44F004044FF008090891E3
:104D300003E008214FF0000B0891C4F30252022A4D
:104D400004D001CF0021032A06D006E0FF1D27F082
:104D50000707F7E8020103E080B2042A00D1C0B2DD
:104D60004FF0000822072BD52A78702A07D0DDF8EB
:104D700020C08CF0100C5CEA0B0C05D00EE0402239
:104D80008DF82420012208E050EA010306D03023E8
:104D90008DF824308DF8252002229046089B83F060
:104DA000080353EA0B030BD150EA010201D1620759
:104DB00006D530228DF824204FF00108A9F1010911
:104DC0002A78582A04D038A20B9208AA0A920BE03B
:104DD0003AA2F9E75B46089AFBF7DAFC0B9B9B5C6F
:104DE0000A9A521E0A92137050EA0102F2D10A98EE
:104DF000ADEB000000F1200B600702D524F48034F5
:104E000001E04FF00109D94502DDA9EB0B0000E0FC
:104E1000002000EB0B0141440890AAEB010AE003DB
:104E200006D4DDE90F232146504600F063F806441E
:104E30004FF0000908E009A911F80900DDE90F1297
:104E4000904709F10109761CC145F4DBE0030CD55C
:104E5000DDE90F232146504600F04CF8064404E0FB
:104E6000DDE90F1230209047761C0899481E089003
:104E70000029F5DC08E00A980A990078491C0A9193
:104E8000DDE90F129047761CBBF10001ABF1010B7D
:104E9000F1DC21465046DDE90F2300F019F8064405
:104EA0006D1C21E6092801003031323334353637A4
:104EB0003839616263646566000000003031323366
:104EC0003435363738394142434445460000000006
:104ED0002DE9F041044600251E461746880404D4F7
:104EE00005E039462020B0476D1C641EF9D52846E0
:104EF000BDE8F0812DE9F041044600251E469046AC
:104F0000C80301D5302700E02027880404D505E038
:104F100041463846B0476D1C641EF9D52846BDE8A9
:104F2000F08100002DE9F0411F4C804615460E46E9
:104F3000208A00F0C1FC04F1680707EB860030F816
:104F4000040C80B200F0DAFB0F2E22D041F2185090
:104F500000F060FD218AA1EB080080B200F0ACFCFB
:104F600000F078FD07EB850030F8040C80B200F00B
:104F7000C5FB012D10D041F2243000F04BFD42F66C
:104F80000415284600F098FC2582BDE8F04100F0A9
:104F900061BD40F69210DBE741F29A0000F03AFD65
:104FA00042F2F035EDE700006C00002013B54FF63B
:104FB000FF73012269460248FEF75EF900981CBDA6
:104FC000300300202DE9F047E74C42F210722546ED
:104FD000E078267901463038504306EB4602C2EBB2
:104FE000C61200EBC2026079A77900EBC00303EBA5
:104FF000001A02EB8A0207EB870902EB4900E2790B
:1050000094F800C01044AB78A0F550406D7850384B
:10501000BCF1080F5CD2DFE80CF05B04E8FEFDFC9D
:105020005BFBD1491026CA78303A72430E7906EB01
:105030004607C7EBC61602EBC6024E7906EBC6075B
:1050400007EB061602EB86028E79C97906EB860617
:1050500002EB46021144B031CAB2062D38D2DFE865
:1050600005F0034737378CAF012B33D0022B36D0F6
:10507000032B7AD0002B2BD0042B35D0052B35D029
:10508000062B24D0B84842F21072C178303951430F
:10509000027902EB4205C5EBC21201EBC201427973
:1050A00002EBC20505EB021201EB82018279C079A5
:1050B00002EB820201EB42010844A0F55040503857
:1050C0004042072B10D0082B10D0092B00D1E064F0
:1050D000BDE8F087BDE8F04780B200F04BBBBDE80B
:1050E000F04780B200F0F2BB6064F1E7A064EFE744
:1050F000012B2AD0022B2DD0032B30D09A4842F21C
:105100001072C17830395143027902EB4205C5EB88
:10511000C21201EBC201427902EBC20505EB021299
:1051200001EB82018279C07902EB820201EB42013C
:105130000844A0F55040503880B2042B19D0052BFC
:1051400019D0062BC4D1E081C2E7BDE8F04780B298
:1051500000F0D4BABDE8F04780B200F0ADBB20B19A
:10516000BDE8F04780B200F055BCBDE8F04700F064
:1051700071BC6082ACE7A082AAE7012B11D0022BA0
:1051800011D0032B11D0042B16D0052B16D0062BD3
:105190009ED16065227BE17ABDE8F04780B2FFF7DF
:1051A000C1BE606594E7206592E7A272D4E914104D
:1051B000BDE8F047FEF72EBAE27289E7227387E76F
:1051C000022B0CD0032B0CD0042B0CD0052B8CD134
:1051D0006273D4E91601BDE8F047FEF76DBE2062A8
:1051E00076E7A06574E7E06572E7012D1BD0022D1C
:1051F00026D0032D2DD0042DA6D15C4D5C4C012B67
:105200003CD0022B41D0032B46D0042B9CD103E091
:10521000A3E09CE059E046E0FBF70DFA2861A042CC
:1052200092DD2C6154E75348012B07D0022B8BD120
:105230000022BDE8F0470121FCF773BD0122F8E729
:10524000012B04D0022B95D10220207240E70120CF
:10525000FBE7303F07EB870002EB40003038FBF7FD
:10526000EFF90022444BFBF755F8FBF760FA43498E
:10527000A061884296DD4248A06129E7FBF7DBF98F
:105280002860A0428EDD2C6022E7FBF7D4F968602D
:10529000A04287DD6C601BE7FBF7CDF9A860A04258
:1052A0008BDDAC6014E7012D87D13648012B08D087
:1052B000022B08D0032993D18114BDE8F047FCF7F5
:1052C00023BD0121F9E70221F7E74FF47A70303E60
:1052D000464306EB8A0505EB49001044224A4FF489
:1052E0007A76A0F5A0501579D038303D75435679BF
:1052F00006EBC60707EB061605EB86059679D2790D
:1053000006EB860605EB46052A44A2F5A052D03AE4
:105310005242012B09D0022B0FD0032B96D13029FA
:1053200013D031293FF4D3AED2E6302903D031294E
:105330003FF4DAAECCE66264CAE6302903D0312904
:105340003FF4D4AEC4E6A264C2E6E264C0E681B231
:105350002846BDE8F04700F069B801462846BDE898
:10536000F04700F00FBB00006C0000203804002064
:1053700000B01A46000801400000E03F000048422B
:105380000000C841000C01402DE9F0470620FBF762
:1053900089FD1F4D2863286BFBF74DF96FF00B015A
:1053A000FAF7ACFFFBF7B0F91A4E4FF066384246F9
:1053B0003346FBF756F8FBF7BAF96863FBF7A4F935
:1053C0008946044642463346FBF748F807460E46F0
:1053D000204649460022104BFBF743F83A46334635
:1053E000FBF7B1F8FBF7A3F9FBF78EF90B4A0C4B6F
:1053F00000F06AFB4FF033320A4BFBF732F84246BB
:10540000094BFBF728F8FBF792F9A863BDE8F08792
:105410006C00002066660A400088C340166A4DF39F
:105420008E53C4BF330B834066065D402DE9F047C1
:105430000D46824603210220FBF7E8FC194C4FF48D
:105440008041B4F84C00E26B284485B2164895427E
:1054500006D94FF00002FCF764FCE06B281A08E064
:1054600006D24FF00102FCF75CFCE06B401B00E051
:105470000020470000264FF48078DFF8309007E0E6
:1054800041464846FCF745FC504600F017FB761CA9
:10549000BE42F5D3E563BDE8F04703210120FBF7E9
:1054A000B5BC00006C000020000C01400008014069
:1054B0002DE9F0474FF4FA60FCF724FBC82000F018
:1054C000D9F94FF480513E48FCF71EFC0127DFF864
:1054D000F490DFF8F4A0DFF8F48000263C4D3D4C5A
:1054E00001281CD06F724B464246C8213C20FEF773
:1054F0005FFE02E00A20FCF705FB20780028F9D1C6
:105500006E7253464246C8213C20FEF751FE02E02F
:105510000A20FCF7F7FA20780028F9D12BE06E7208
:105520004FF47A734246C8213C20FEF741FE02E068
:105530000A20FCF7E7FA20780028F9D16F724B4671
:1055400047464246C8213C20FEF732FE02E00A20D0
:10555000FCF7D8FA20780028F9D16E7253463A4603
:10556000C8213C20FEF724FE02E00A20FCF7CAFA1C
:1055700020780028F9D1C820EE6300F075F81448AF
:105580006830826A4168891A092291FBF2F202218D
:105590004368C1F1010402FB043340F82130491C87
:1055A0000A29F5DB5FF0000150F82120733A40F83A
:1055B0002120491C0F29F7DBBDE8F04700F00CB8AB
:1055C000000C0140F0D8FFFF70FEFFFF0AD7233C1C
:1055D0006C000020700400200B4800B5816985B084
:1055E00041F0080181618069694600F0080004907B
:1055F00001200090019000200290032003900348B6
:10560000FCF792FA05B000BD00100240000801400E
:10561000FCF724FDFEF72EFEFEF774F8FEF732F8D5
:10562000FEF74CF9FEF7C6F8FEF704F8FEF794F91A
:10563000FEF7E2F9FEF7DEF8FEF72EFAFEF748FA7B
:105640000748FDF7EBF90748FBF742FC0548FBF775
:105650006DFEFFF72DFF00BF00F048FFFCE70000E4
:10566000580200206401002070B50F4C054601224D
:1056700020212046FCF755FB44F620620221012040
:10568000FEF7C6FA002220212046FCF74AFB074E0F
:105690000024C8203460FCF735FA2A460121002096
:1056A000FEF7B6FA346070BD000C0140AC0000207B
:1056B00070B500F5C8700F4E0D4684B2012220214E
:1056C0003046FCF72EFB012122460846FEF7A0FAE1
:1056D000002220213046FCF724FB074E0024C8207E
:1056E0003464FCF70FFA2A4601210020FEF790FAF5
:1056F000346470BD000C01406C0000202DE9F041C5
:10570000174D0746E86B08B30120DFF85C8068722C
:10571000144B4246C8213C20FEF74AFD134C02E0E0
:105720000A20FCF7EFF920780028F9D100266E72E4
:105730000F4B4246C8213C20FEF73AFD02E00A200A
:10574000FCF7E0F920780028F9D1EE63B5F84400C1
:1057500000213844BDE8F04180B200F049B80000B3
:105760006C000020F0D8FFFF0AD7233C7004002013
:1057700070FEFFFF2DE9F041184C0746E06B08B3BF
:105780000120DFF860806072154B4246C8213C2042
:10579000FEF70EFD144D02E00A20FCF7B3F928785D
:1057A0000028F9D100266672104B4246C8213C20E1
:1057B000FEF7FEFC02E00A20FCF7A4F92878002896
:1057C000F9D1E663B4F84000C82F80B201D9394658
:1057D00000E0C821BDE8F041FFF76ABF6C0000207F
:1057E000F0D8FFFF0AD7233C7004002070FEFFFFB3
:1057F0002DE9F0411C4D1D4E0F46286031681C4BB1
:10580000884209D94FF000024FF020011846FCF7FA
:1058100088FA2868316809E021D24FF001024FF080
:1058200020011846FCF77DFA30682968441A4FF4C5
:10583000FA70844205D9224600213846FEF7E8F97D
:1058400004E0844202D12246012105E0601EB0F549
:10585000F97F04D8224602213846FEF7D9F9286894
:105860003060BDE8F081000010010020AC00002095
:10587000000C014070B501220D4E0446D5032946A7
:105880003046FCF74EFA46F66C3202210120FEF754
:105890008BFA002229463046FCF743FA054D0020DA
:1058A000224602212860FEF77FFA2C6070BD0000BE
:1058B00000080140140100200349B1F848100844D1
:1058C00080B2002100F008B86C000020C82800D881
:1058D000C820FFF7CFBF00002DE9F041204D214E39
:1058E0000F4628603268204B4FF40041904207D9A0
:1058F0004FF000021846FCF714FA2868316807E0F8
:1059000015D24FF001021846FCF70BFA30682968EF
:10591000441A214615A0FFF719F84FF4FA70844293
:105920000AD9224602213846FEF73EFA06E0002157
:105930000EA0FFF70BF80AE0844203D0601EB0F51A
:10594000F97F04D8224602213846FEF72DFA28684E
:10595000306081B20A480088BDE8F041FDF71EBE04
:1059600018010020140100200008014073746570C4
:1059700020B5C4B4F3D0A1CEAAA3BA256400000018
:105980002000002070B50C4641F2941501280FD07C
:10599000022812D04FF4FA56032812D004281BD044
:1059A000052835D1BDE8704089B20A20FFF73EBD19
:1059B000284600F02FF8A1B201E04FF47A610420EC
:1059C00020E0284600F026F841F2EC310F20FFF7E6
:1059D0002DFD41F270700AE040F6B835284600F01F
:1059E00019F841F2F8110F20FFF720FD3046FCF7BF
:1059F00089F8A1B20F20FFF719FD3046FCF782F8B5
:105A000029460A20FFF712FDBDE8704000F022B8D9
:105A100070BD000070B50C4C0C4AB4F84C10084432
:105A200085B2E06B2B1A00206072E08901B23C2045
:105A3000FEF7BEFB064E02E00A20FCF763F8307862
:105A40000028F9D1E56370BD6C0000200AD7233C23
:105A5000700400202DE9F041134CE06B002820D0A9
:105A60000120134F6072114B3A46C8213C20FEF7CB
:105A70009FFB104D02E00A20FCF744F8287800282C
:105A8000F9D1002666720C4B3A46C8213C20FEF73D
:105A90008FFB02E00A20FCF735F828780028F9D1BE
:105AA000E663BDE8F08100006C000020F0D8FFFF45
:105AB0000AD7233C7004002070FEFFFF40F63741F8
:105AC0004843401EFDD270472DE9F04D1D460C465F
:105AD00098B0174621F0004123F00043002814BF7E
