:020000040800F2
:10000000E007002001010008E5390008F928000890
:10001000D936000877080008F14400080000000005
:10002000000000000000000000000000753A000819
:10003000AD08000800000000E7390008813C000816
:100040001B0100081B0100081B0100081B01000820
:100050001B0100081B0100081B0100081B01000810
:100060001B0100081B0100081B0100081B01000800
:100070001B0100081B0100081B0100081B010008F0
:100080001B0100081B0100081B0100081B010008E0
:100090001B0100081B0100081B0100081B010008D0
:1000A0001B0100081B0100081B0100081B010008C0
:1000B000013D0008713E00084D4000081B0100088A
:1000C0001B0100081B0100081B0100081B010008A0
:1000D0001B0100081B010008BD440008C9440008BA
:1000E0001B0100081B0100081B010008DFF80CD0F1
:1000F00000F074FB00480047E94C0008E0070020CE
:100100000648804706480047FEE7FEE7FEE7FEE7B1
:10011000FEE7FEE7FEE7FEE7FEE7FEE7FD3C000840
:10012000ED000008202A04DB203A21FA02F0002129
:10013000704721FA02F3D040C2F1200291400843F7
:1001400019467047D2B201E000F8012B491EFBD2DC
:1001500070470022F6E710B513460A4604461946D2
:10016000FFF7F0FF204610BDF0B480EA0102D40F83
:100170004200B2EB410F02D20246084611464A0045
:1001800042D0C30DDDB2C1F3C752AD1A202D35DA0E
:10019000C1F3160141F4000204B15242C5F1200638
:1001A00002FA06F12A411044B3EBD05F23D0C4B168
:1001B000012DA0EBC35009DCF0BC4FF0004202EA75
:1001C000C352DBB200F5000000F02BBA400000F192
:1001D000807000EBC350A0F1807040EAD1704900FC
:1001E00009E0490841EAC071A0EBC35000F50000E6
:1001F000400800EBC350F0BC00F00ABA6142012293
:1002000002EB4101001BF6E7F0BC704781F00041B2
:10021000AAE780F00040A7E780EA010210B502F0EB
:100220000043400022D04A001FD0010E01EB1261B2
:10023000C0F35600C2F3560240F4000042F400023C
:10024000A0FB022000047F39140400D0401C50EAB7
:10025000124001D44000491EC2B20C0604EBD0107B
:10026000401C4008802A02D003E0002010BD20F08E
:100270000100002900DA0020184310BD30B480EAE4
:10028000010202F0004530F0004221F0004013D09E
:1002900090B1C30DD40DC2F31601C0F31600E41AD9
:1002A00041F4000140F400027D34914201D3641C0A
:1002B00000E04900002C02DA30BC002070474FF407
:1002C00000000023914201D3891A034340084FEAFA
:1002D0004101F7D151B1914202D14FF0004105E007
:1002E00002D24FF0010101E06FF0010103EBC450B5
:1002F000284430BC00F08CB9420005D0C0F3C7528E
:100300005242914201DC0020704700EBC15070471F
:100310002DE9FE4F81EA030404F0004421F000417E
:1003200000944FF0000B23F0004350EA01045ED02C
:1003300052EA03045BD0C3F30A54C1F30A552C44B8
:10034000A4F2F3340194A0FB0254C1F3130141F46D
:100350008011C3F3130343F4801301FB024400FB39
:10036000034E840A970A44EA815447EA8357A4FB60
:10037000076802958D0A05FB07854FEA932C04FB5D
:100380000C542705029D4FEA065847EA1637B5EB8D
:1003900008056EEB070C870E920E47EA811742EABA
:1003A0008312A7FB0201B6EB0B0164EB00042B0DDB
:1003B00043EA0C335E1844EB1C50DA465146E7FB27
:1003C0000201C5F313044FEA0B3343EA14534FEA17
:1003D0000432019C43EA0603A4F10C040294009C3D
:1003E000CDE900B400F05AF903B0BDE8F08F002069
:1003F0000146F9E72DE9F04D81EA030404F0004BD2
:1004000021F0004514464FF0000A23F0004150EA65
:10041000050220D054EA01021DD0C5F30A57024656
:10042000C5F31303C1F31300C1F30A5640F480155A
:1004300043F48013A7EB0608101BD64608F2FD38DC
:1004400073EB050002D308F1010801E092185B414B
:10045000B8F1000F03DA00200146BDE8F08D00205E
:100460004FF48011064684460EE0171B73EB050718
:1004700005D3121B63EB050306434CEA010C490844
:100480004FEA300092185B4150EA0107EDD152EA81
:10049000030012D082EA040083EA0501084305D074
:1004A000101BAB4106D20122002306E000224FF0D0
:1004B000004302E06FF0010253101AEB06004CEB10
:1004C000085110EB0A0041EB0B01BDE8F04D00F0C4
:1004D000D6B896230022114600F0A3B80EB540F21C
:1004E000334102910021CDE900110A460B4600F08C
:1004F000D5F803B000BD20F00040C10DC0F31600D8
:1005000040F400007F2901DA00207047962903DCBF
:10051000C1F19601C8407047963988407047C1F3D1
:100520000A5210B5C1F3130140F2FF3341F48011B8
:100530009A4201DA002010BD40F233439A42A2F2FF
:10054000334203DC5242FFF7EDFD10BD904010BD79
:1005500000F0004230F000400AD0C10D01F560719A
:10056000C0F3160042EA0151C20840071143704728
:1005700000200146704701F0004330B421F00041F3
:1005800050EA010206D00A0DA2F56072C1F3130110
:10059000002A02DC30BC00207047440F44EAC1044A
:1005A000C100E01830BC00EBC25000F031B82DE9BA
:1005B000F05F0546002092469B46884606468146E7
:1005C00040241BE02846414647462246FFF7AAFD45
:1005D00053465A46C01A914110D311461846224636
:1005E00000F00EF92D1A67EB01084F462246012054
:1005F000002100F005F917EB00094E41201EA4F17F
:100600000104DFDC484631462A464346BDE8F09FF8
:100610000029A8BF7047401C490008BF20F0010016
:10062000704710B4B0FA80FC00FA0CF050EA0104F4
:1006300004BF10BC704749B1CCF1200421FA04F486
:1006400011FA0CF118BF012121430843A3EB0C015F
:10065000CB1D4FEA00614FEA102042BF002010BCC2
:10066000704700EBC35010440029A4BF10BC704772
:10067000401C490008BF20F0010010BC704710B5B5
:10068000141E73F1000408DA401C41F100019218B5
:100690005B411A4301D120F0010010BD2DE9F04D5E
:1006A00092469B4611B1B1FA81F202E0B0FA80F2B3
:1006B0002032904600F0A4F804460F4640EA0A00B3
:1006C00041EA0B0153465A46084313D0114653EAF8
:1006D000010019D0C8F140025046FFF723FD05463E
:1006E0000E4650465946424600F08AF8084305D067
:1006F000012004E020463946BDE8F08D0020054386
:1007000046EAE0762C4337430A986305E40AA0EBF7
:1007100008000022FD0A44EA47540A3002D50020AE
:100720000146E9E7010510196941DDE908450019AD
:100730006941BDE8F04DA2E72DE9F04D00231A46CE
:100740001B1A8A4103DB00200146BDE8F08DC1F38E
:100750000A52C1F3130141F480154FF0000BD10789
:1007600002D100186D41521E0027044640F2FF11CD
:10077000384601EB620A3E468046024600204FF4AE
:100780008011FFF7CFFCC2197141BB1846EB010085
:10079000B4EB030C75EB000C04D3E41A65EB000515
:1007A00017460E46241908F101006D418046342891
:1007B000E3DDF91946EB0600091BA84103D24FF00F
:1007C000FF32134601E0002213461BEB070046EB05
:1007D0000A51BDE8F04DFFF752BF0000064C074D2F
:1007E00006E0E06840F0010394E807009847103401
:1007F000AC42F6D3FFF77EFC90500008B0500008E2
:10080000202A04DB203A00FA02F1002070479140D0
:10081000C2F1200320FA03F319439040704700000F
:1008200070B5044600688168C943C90717D181685B
:1008300021F00101816000F029FC05460AE000BFBB
:1008400000F024FC401B022804D920688068C043C3
:10085000C00706D020688068C043C007F0D00020E1
:1008600070BDA06A40F01000A062E06A40F0010094
:10087000E062012070BDFEE7094B30B44FF4847292
:100880001A60084A5A60082200249C60C3E90342A7
:100890001C750A4630BC044B014900F04BB90000FE
:1008A000940300200050341210000020704704E030
:1008B0003021491EFDD1401E80B20028F8D170477A
:1008C00072B6FEE7F8B50024009490F8242025467F
:1008D000012A12D0012280F824204A681F23072A07
:1008E0000DD20668776B521E02EB820293409F4343
:1008F0000B6893401F43776319E00220F8BD066838
:100900000D2A0AD2376BD21F02EB820293409F431B
:100910000B6893401F43376309E0F76A0D3A02EB17
:10092000820293409F430B6893401F43F7620A681B
:10093000072306680A2A0AD3F7680A3A02EB42023A
:1009400093409F438B6893401F43F76008E03769EB
:1009500002EB420293409F438B6893401F433761F1
:100960000A68102A01D0112A20D1124B02689A423B
:1009700017D193681B0219D4936843F40003936062
:100980000968102912D10C490C4A0968B1FBF2F12F
:1009900001EB8101490000E0491E00910029FBD1D3
:1009A00004E0816A41F020018162012480F8245032
:1009B0002046F8BD002401402000002040420F00E6
:1009C0002DE9F0414FF0000704003D467ED0A06ABB
:1009D000002628B9E66284F82460204600F07EF8FC
:1009E0002046FFF71DFFA16AC90600D420B1A06A06
:1009F00040F01000A06269E0A16A21F4885141F042
:100A00000201A1626268E169237B0A4347EA43016C
:100A10000A43A1684FF48077B94209D0012907D071
:100A20005FF0000194F814C0BCF1010F02D00AE09D
:100A30003946F7E7F3B1A36A43F02003A362E36A00
:100A400043F00103E3622368D3F804C02CF4694C3B
:100A50004CEA010CC3F804C021688B68DFF870C051
:100A600003EA0C0313438B60A168B9420BD0012940
:100A700009D00CE0DFF85CC0A3690CEB43330B43F7
:100A800043F40061DFE7218A0D05A5F58015216893
:100A9000CB6A23F470032B43CB62216889680E4B29
:100AA0001940914208D1E662A16A21F0020141F0A9
:100AB0000101A162BDE8F081A06A20F0020040F0CF
:100AC0001000A062E06A40F00100E0620120F1E75E
:100AD000FDF7E1FF00E0FFFFFE0E1FFF00B585B050
:100AE0000021009101910291039100680E49884212
:100AF00018D10E48816941F400718161816901F466
:100B000000710491816941F0040181618069694645
:100B100000F004000490022000900320019004489B
:100B200000F0B2F905B000BD002401400010024001
:100B300000080140F0B590F820500468A468012D29
:100B400005D0022D03D0416A41F4802153E014F016
:100B5000406F01D1E5004BD5C4F30164022C03D9E9
:100B6000416A41F4000146E00125A5401D608D6801
:100B70004FF4C0739DB1CE6835434E6845EAC60553
:100B8000066803EB0417F5514FF4C275076805EBCF
:100B900004150E697E51097D012905D009E00E88F2
:100BA000CD6845EA4655EBE701684E5946F4807634
:100BB0004E511179D2F805504FF4C67641EA052519
:100BC000016806EB04168D511178D2F801204FF41C
:100BD000C47541EA0221026805EB04155151006811
:100BE00003EB0411425842F0010242500020F0BDD4
:100BF000416A41F4001141620120F0BD70B504006A
:100C000003D094F8200010B104E0012070BD20460C
:100C100000F082F82068016841F00101016000F0F5
:100C200035FA0546052604E000F030FA401B0A2894
:100C300011D820684068C007F6D02068016821F00C
:100C40000201016000F022FA05460BE000F01EFAF6
:100C5000401B0A2806D9606A40F40030606284F8BC
:100C60002060D2E7206840688007EFD4207E01280A
:100C7000206801683DD021F080010160607E01287C
:100C80002068016838D021F040010160A07E012871
:100C90002068016833D021F020010160E07E012846
:100CA000206801682ED041F010010160207F0128EA
:100CB0002068016829D021F008010160607F0128C7
:100CC0002068016824D021F004010160D4E9020108
:100CD0000843D4E90412114308436168491E0843DC
:100CE0002168C86100206062012084F82000002093
:100CF00070BD41F08001C0E741F04001C5E741F01F
:100D00002001CAE721F01001CFE741F00801D4E744
:100D100041F00401D9E7000010B586B00021009130
:100D200001910291039100681349884222D113482E
:100D3000C16941F00071C161C16901F000710491A4
:100D4000816941F00401816180690D4C00F004006B
:100D500004904FF4006000906946204600F094F83B
:100D6000A0140090022001900320039069462046C1
:100D700000F08AF806B010BD006400400010024088
:100D80000008014010B590F821100022022905D07A
:100D90000421816380F82020012010BD01680B68C8
:100DA00023F00E030B6001680B6823F001030B6056
:100DB00090F84030C46B012101FA03F3636080F8BE
:100DC000211080F82020104610BD000010B590F8CA
:100DD00021100024022903D00421816301243DE075
:100DE00001680A6822F00E020A6001680A6822F0AF
:100DF00001020A601A4A0168914201D1012121E0F1
:100E0000174A1432914201D110211BE0144A2832B2
:100E1000914201D1891515E0114A3C32914201D12C
:100E200089140FE00E4A5032914202D14FF48031C2
:100E300008E00B4A6432914202D14FF4801101E084
:100E40004FF08071064A083A5160012180F8211064
:100E5000002180F82010416B01B18847204610BD69
:100E60000800024070B5044600F010F90546601C09
:100E700002D004480078044400F008F9401BA04266
:100E8000FAD370BD140000202DE9F84FDFF8B891B7
:100E9000002409F1040A0AF1040B23460F270BF181
:100EA000040EC9E00125A5402A40AA427DD1674E23
:100EB000D1F804C0ACEB0608B44532D014DCBCF168
:100EC000030F3AD009DCBCF1000F2AD0BCF1010FAE
:100ED0001CD0BCF1020F31D11DE0BCF1110F17D0B5
:100EE000BCF1120F2AD119E0B8F5881F19D006DC21
:100EF000B8F5803F15D0B8F5801F1FD111E0B8F5C7
:100F0000001F0ED0B8F5041F18D10AE0CB6815E019
:100F1000CB681B1D12E0CB6808330FE0CB680C33A5
:100F20000CE08B682BB1012B4FF0080303D0456117
:100F300004E0042302E0056100E00023FF2A01D859
:100F4000064601E000F104064FEA840501D9A5F147
:100F50002005D6F8008007FA05FC28EA0C0803FAF9
:100F600005F548EA0508C6F800804D68ED0062D531
:100F7000374DAE6946F00106AE61AD6924F0030657
:100F800005F001050095334D06EB050CDCF8085023
:100F9000A607360F07FA06F825EA0805DFF8B88035
:100FA000404503D14FF0000817E044E0DFF8AC8083
:100FB000404502D14FF001080FE0DFF8A480404522
:100FC00002D14FF0020808E0DFF89880404502D1D6
:100FD0004FF0030801E04FF0040808FA06F848EA69
:100FE0000508CCF808804D68D9F80060ED034D463F
:100FF00001D5164300E096432E604D68DAF8006094
:10100000AD03554601D5164300E096432E604D686A
:10101000DBF80060ED025D4601D5164300E0964323
:101020002E604D68DEF80060AD02754601D51643AE
:1010300000E096432E60641C0D682A46E5407FF46C
:1010400031AFBDE8F88F000000040140000011102E
:10105000001002400000014000080140000C014067
:1010600000100140001401408068084000D00120B9
:101070007047C26821EA02030A4043EA0241016163
:1010800070470AB1016170470904FBE701488068B5
:10109000704700001400002070B5040025D094F8BB
:1010A0003D00002520B984F83C50204600F078FA35
:1010B000242084F83D002068016821F001010160CE
:1010C0002068016841F4004101602068016821F452
:1010D0000041016000F036FC4D4A6168914201D840
:1010E0004C4900E04C49884201D2012070BD4B4977
:1010F0002368B0FBF1F15E6826F03F060E435E60A8
:101100006368934206D94FF4967359434FF47A7348
:10111000B1FBF3F12368491C1E6A26F03F063143F8
:1011200019626168914210D84900401EB0FBF1F28B
:10113000521CC2F30B02042A01D2042022E0B0FBAD
:10114000F1F0401CC0F30B001CE0A268F2B301EB0D
:10115000C10303EB0116431EB3FBF6F35B1C43F420
:1011600080431B0549D092B301EBC10202EB011190
:10117000401EB0FBF1F0401CC0F30B0040F4804077
:1011800040F400402168CA694CF6FF739A4310434B
:10119000C861D4E9071001432068026822F0C00248
:1011A00011430160D4E9030101432068826848F2D9
:1011B000FF339A4311438160D4E905010843216854
:1011C000CA6822F0FF021043C86001E00EE016E09A
:1011D0002068016841F0010101602564202084F845
:1011E0003D00256384F83E50002070BD01EB4106B0
:1011F000431EB3FBF6F35B1CB3E70120C2E701EB30
:101200004101401EB0FBF1F0401CC0F30B00B7E7FA
:10121000A086010080841E0000093D0040420F00AE
:101220002DE9FF4F83B00025DDE910799A469346FA
:101230000446DDF848800095FFF728FF064694F83D
:101240003D0020287CD119230122854920460096A3
:1012500001F062FC0028F5D194F83C0001286FD021
:10126000012084F83C0020680168C90703D10168A7
:1012700041F0010101602068016821F40061016012
:10128000222084F83D00402084F83E0025646762F7
:10129000A4F82A90608D20857248E062CDE900862E
:1012A00053465A462046049901F03EFB00287DD162
:1012B000208DDFF8B491202768B1012814D00228CE
:1012C000206801681ED041F4806101602068416996
:1012D00080690090B6E020684169816900910168E9
:1012E00041F400710160ADE02068016821F4806183
:1012F000016072B62068416981690091016841F41A
:1013000000710AE041F40061016072B62068416931
:1013100081690091016821F48061016062B691E009
:10132000032868D801280CD0022843464FF0000259
:101330004946204600960FD001F0EEFBB0BB10E00E
:101340008BE032464146204601F065FC70BB2068C8
:101350000069616A08706CE001F0DEFB30BB72B6B8
:1013600034E02068016821F48061016072B6206871
:101370000069616A0870606A401C6062208D401ECE
:101380002085608D401E6085384846F2A8110068AF
:10139000B0FBF1F0C0EBC00000EB80000090401EFD
:1013A000009008D020684069C04300E029E0400771
:1013B0000CD50098F3E744F8305F6773A573206994
:1013C00040F02000206162B625731AE020680168B1
:1013D00041F40071016020680069616A0870606A08
:1013E000401C6062218D491E2185618D491E6185E9
:1013F00062B621681BE032464146204601F00BFCF4
:1014000018B1012007B0BDE8F08F20680069616A5B
:101410000870606A401C6062218D491E2185618DC3
:10142000491E618521684A69D24352070AD4096975
:101430000170606A401C6062208D401E2085608DB6
:10144000401E6085208D00287FF46AAF84F83D70CF
:1014500084F83E5084F83C50D4E70220D2E70000E4
:10146000020010000000FFFF040001002000002027
:101470002DE9FF4F83B09A46DDE911979346044664
:10148000DDF84080FFF702FE054694F83D00202875
:101490007FD11923012240492046009501F03CFBF1
:1014A000002876D194F83C00012872D0012084F8FD
:1014B0003C0020680168C90703D1016841F00101BF
:1014C00001602068016821F400610160212084F836
:1014D0003D00402084F83E0000262664C4F82480A5
:1014E000A4F82A90608D20852C48E062CDE9007533
:1014F00053465A462046049901F094FA70B930E0F8
:101500002A463946204601F0B9FB58B1206C042820
:1015100004D12068016841F400710160012007B026
:10152000BDE8F08F606A216800780861606A401C3D
:101530006062218D491E89B22185628D521E6285AD
:1015400022685369DB435B070BD469B100781061F3
:10155000606A401C6062208D401E2085608D401EA8
:101560006085208D0028CBD12A463946204601F0DF
:10157000ADFA0028CAD154F83D0B016841F400715E
:101580000160202004F81E09E67766770020C6E790
:10159000FFE70220C3E70000020010000000FFFF89
:1015A00010B586B00021009101910291039100686D
:1015B0000F4988421AD10F4CA06940F00800A06181
:1015C000A069694600F008000490C0200090122035
:1015D0000190032003900848FFF756FCE06940F4AF
:1015E0000010E061E06900F40010049006B010BD46
:1015F0000054004000100240000C01400248816885
:10160000027811448160704714000020074810B52B
:10161000016841F010010160032000F075F80F200F
:1016200000F006F800F024F8002010BD0020024071
:1016300070B50D4D04464FF47A712878B1FBF0F087
:101640000A490968B1FBF0F000F062FB48B9102CC0
:1016500007D200222146501E00F036F800206C60B0
:1016600070BD012070BD000014000020200000208B
:101670000C4808B5816941F001018161816901F07F
:1016800001010091C16941F08051C161C06900F060
:10169000805000900448416821F0E06141F0007101
:1016A000416008BD0010024000000140002809DB35
:1016B00000F01F02012191404009800000F1E0206C
:1016C000C0F8001170470000F0B40E4B1B680C46C8
:1016D000C3F30223C3F10705042D00D90425191D06
:1016E000072901D2002300E0DB1E012606FA05F1DE
:1016F000491E214099409E40761E16403143F0BC61
:1017000002F020BF0CED00E0064900F00702086877
:101710004FF6FF03184040EA0220034A10430860D6
:10172000704700000CED00E00000FA052DE9F843D9
:1017300005460078354CC00754D0E0690026C0004B
:1017400008D4E06940F08050E061E069012600F0D3
:10175000805000902E480168C90512D40168804667
:1017600041F480710160FFF791FC074605E000BF7E
:10177000FFF78CFCC01B642823D8D8F80000C005F4
:10178000F6D5206A10F4407021D0A98801F4407188
:1017900081421CD0206A1F49012220F440700A6057
:1017A00000220A602062C00711D0FFF76FFC0746D5
:1017B00041F2883808E000BFFFF768FCC11B4145D3
:1017C00002D90320BDE8F883206A8007F4D5206A97
:1017D000696820F44070084320621EB1E06920F07F
:1017E0008050E0612878800705D56068A96820F4FA
:1017F0004040084360602878C00605D56068E96805
:1018000020F48000084360600020DBE70010024005
:1018100000700040400442422DE9F0470F460500A9
:1018200061D0434E306800F00700B84209D23068FA
:1018300020F0070038433060306800F00700B842FD
:1018400051D128683B4C810712D5400703D5606809
:1018500040F4E06060602878000703D5606840F4D9
:10186000605060606068A96820F0F0000843606024
:101870002878C00728D06868012810D0216802287D
:1018800010D0890700292EDA616821F00301014395
:101890006160FFF7FBFB804641F288390DE021686B
:1018A0008903EFE78901EDE7FFF7F0FBA0EB080103
:1018B000494502D90320BDE8F0876068696800F0F7
:1018C0000C00B0EB810FEFD1306800F00700B84298
:1018D0000BD9306820F0070038433060306800F0E2
:1018E0000700B84201D00120E5E72878400705D578
:1018F0006068E96820F4E0600843606028780007C9
:1019000006D56068296920F4605040EAC100606033
:1019100000F038F86168084AC1F30311515CC8400F
:101920000649086006480068FFF782FE0020C2E70B
:1019300000200240001002407850000820000020E3
:10194000180000200448054900684968044AC1F3AA
:101950000221515CC8407047200000200010024066
:10196000885000080448054900684968044AC1F3E2
:10197000C221515CC8407047200000200010024086
:101980008850000812A185B00FC98DE80F0014A07F
:10199000144A006804905168134801F00C03042BAA
:1019A00010D0082B0ED1C1F38343C9031DF80300E7
:1019B0000AD5516804AAC1F34041515C0A4A504318
:1019C000B0FBF1F005B0704708494843FAE7000062
:1019D00002030405060708090A0B0C0D0E0F101070
:1019E000010200000010024000127A0000093D00D0
:1019F0002DE9F84F040070D02078C04DC00749D0C1
:101A00006868C0F38100012807D06868C0F38100CE
:101A1000022809D16868C00306D52868800339D533
:101A200060680028E7D035E06068B0F5803F0BD0F3
:101A300010B1B0F5A02F11D0286820F480302860B4
:101A4000286820F4802002E0286840F48030286074
:101A5000606890B1FFF71AFB06460AE0286840F478
:101A600080202860F0E700BFFFF710FB801B642890
:101A700073D828688003F7D50CE0FFF707FB06460C
:101A800005E000BFFFF702FB801B6428F0D8286840
:101A90008003F7D420789A4E80074FF001094FF069
:101AA000000839D5686810F00C0F07D06868C0F3DB
:101AB0008100022809D16868C00306D4286880071D
:101AC00014D52069012808D110E02069B0B1C6F80A
:101AD0000090FFF7DBFA074605E00AE1FFF7D6FAC8
:101AE000C01B0228C4D828688007F7D52868616918
:101AF00020F0F80040EAC10028600DE0C6F8008040
:101B0000FFF7C4FA074604E0FFF7C0FAC01B02283B
:101B100023D828688007F7D4207800072CD5794887
:101B2000A169D9B1C0F80090FFF7B0FA074604E008
:101B3000FFF7ACFAC01B02280FD8686A8007F7D5F8
:101B400071484FF4FA510068B0FBF1F0009000BF0B
:101B50000098411E0091FAD20EE080E0C0F80080AB
:101B6000FFF794FA074604E0FFF790FAC01B02283B
:101B700075D8686A8007F7D42078400760D5E8698F
:101B80000027C00008D4E86940F08050E861E869A7
:101B9000012700F0805000905C480168C90513D40B
:101BA0000168834641F480710160FFF76FFA824655
:101BB00006E000BFFFF76AFAA0EB0A0064284ED8DF
:101BC000DBF80000C005F5D5E06801280AD008B1AF
:101BD000052813D0286A20F001002862286A20F026
:101BE000040002E0286A40F001002862E06841F247
:101BF000883B98B1FFF74AFA82460BE0286A40F02A
:101C000004002862EEE700BFFFF740FAA0EB0A01EC
:101C100059455AD8286A8007F6D50CE0FFF736FAFE
:101C2000824605E0FFF732FAA0EB0A0159454CD88D
:101C3000286A8007F6D41FB1E86920F08050E86177
:101C4000E06988B36968C1F38101022944D00228A0
:101C5000C6F8608004D0FFF719FA044638E034E093
:101C6000FFF714FA074604E0FFF710FAC01B02283A
:101C70002BD828688001F7D4206AB0F5803F05D1C1
:101C80006868A16820F4003008436860D4E908015E
:101C90000843696821F4741108436860C6F86090CD
:101CA000FFF7F4F9044606E025E000BFFFF7EEF980
:101CB000001B022809D828688001F7D51BE000BF67
:101CC000FFF7E4F9001B022802D90320BDE8F88FD2
:101CD00028688001F4D40EE00128F7D06868226AF1
:101CE00000F48031914204D1616A00F4701088429E
:101CF00001D00120EAE70020E8E7000000100240E0
:101D00000000424280044242200000200070004057
:101D100010B5401EB0F1807F01D3012010BD4FF0FF
:101D2000E02460610F21601702F00CFC0020A0612C
:101D300007202061002010BD7047704770B590F8F3
:101D40003C20012A26D0012480F83C40022280F861
:101D50003D2003685A689D6822F070060A68324385
:101D60005A600D4B02689A4208D0B2F1804F05D0FC
:101D70000A4B9A4202D00A4B9A4204D1496825F094
:101D800080031943916080F83D40002180F83C10A9
:101D9000084670BD022070BD002C014000040040C8
:101DA0000008004010B5040003D094F83D0010B1C5
:101DB00007E0012010BD002084F83C00204600F020
:101DC0001FF8022084F83D00211D206802F044F92C
:101DD000012084F8460084F83E0084F83F0084F82F
:101DE000400084F8410084F8420084F8430084F8FD
:101DF000440084F8450084F83D00002010BD000038
:101E000008B501681D48B1F1804F11D01C4A9142BC
:101E10001DD1C16941F00201C161C069002200F019
:101E20000200009002211D20FFF74EFC1D201FE044
:101E3000C16941F00101C161C069002200F00100E7
:101E4000009002211C20FFF73FFC1C2010E00D4AEF
:101E5000914211D1C16941F00401C161C069002200
:101E600000F00400009002211E20FFF72DFC1E2030
:101E7000BDE80840FFF71ABC08BD00000010024092
:101E8000000400400008004090F83D10012901D0F6
:101E900001207047022180F83D100168CA6842F0B5
:101EA0000102CA6000680B49884208D0B0F1804F37
:101EB00005D00949884202D00849884204D1816886
:101EC00001F00701062903D0016841F0010101601A
:101ED00000207047002C0140000400400008004032
:101EE0000168CA6822F00102CA6001680A6A41F208
:101EF00011131A4207D10A6A9B101A4203D10A68C9
:101F000022F001020A60012180F83D100020704794
:101F100070B5044690F83C00012817D0012584F8DC
:101F20003C50022084F83D002068826822F077024D
:101F300022F47F4282600868502830D00DDC2028CF
:101F40004DD005DC98B310283BD148E0022070BD8D
:101F5000302844D0402834D139E0602828D0702877
:101F600006D0B0F5805F2CD0B0F5005F29D10AE033
:101F7000CB68D1E90121206802F0A4F820688168CB
:101F800041F0770109E0CB68D1E90121206802F036
:101F900099F82068816841F48041816011E0CA6845
:101FA0004968206802F042F95021206807E016E0F5
:101FB000CA684968206802F04AF96021206802F086
:101FC0008BF884F83D50002084F83C0070BDCA684E
:101FD0004968206802F02AF940212068EFE722686A
:101FE00001461046EBE7704770B50446006801698A
:101FF0004FF00005C943890715D4C168C943890753
:1020000011D4E91E016101202077206880698007D2
:10201000204602D0FFF7E7FF04E000F0DFF820469B
:1020200000F06EF9257720680169C943490717D484
:10203000C168C943490713D46FF00401016102204C
:1020400020772068806910F4407F204602D0FFF797
:10205000CAFF04E000F0C2F8204600F051F92577ED
:1020600020680169C943090716D4C168C943090733
:1020700012D46FF008010161042020772068C06944
:102080008007204602D0FFF7AEFF04E000F0A6F87C
:10209000204600F035F9257720680169C943C90653
:1020A00017D4C168C943C90613D46FF01001016188
:1020B000082020772068C06910F4407F204602D0B5
:1020C000FFF791FF04E000F089F8204600F018F9CE
:1020D000257720680169C943C90708D1C168C94388
:1020E000C90704D1891E0161204600F00BF9206860
:1020F0000169C943090609D4C168C943090605D461
:102100006FF0800101612046FFF716FE206801692B
:10211000C943490609D4C168C943490605D46FF0CB
:1021200040010161204600F045F920680169C9437A
:1021300089060BD4C168C943890607D46FF0200112
:1021400001612046BDE87040FFF7F7BD70BD00009B
:1021500010B586B0002100910191029103911A4CB3
:1021600003681A4902221A48A34219D18B6943F025
:1021700008038B618969039201F008010491102121
:10218000CDE900126946FEF77FFE1248416821F44E
:10219000406141F0E06141F40061416006B010BD72
:1021A0000D4CA342FAD18B6943F008038B61896916
:1021B000039201F008010491A115CDE900126946CE
:1021C000FEF762FEEAE70000000400400010024053
:1021D000000C01400000014000080040704770B54D
:1021E000044690F83C000D4601280AD0012084F8EE
:1021F0003C0042B1042A18D0082A2AD00C2A4DD11A
:1022000039E0022070BD206801F06EFF206881690E
:1022100041F0080181612068816921F00401816138
:10222000206881692A69114311E0206801F084FF68
:102230002068816941F4006181612068816921F42D
:1022400080618161206881692A6941EA0221816196
:1022500024E0206801F09CFF2068C16941F008017A
:10226000C1612068C16921F00401C1612068C169B0
:102270002A69114311E0206801F0B6FF2068C169A6
:1022800041F40061C1612068C16921F48061C161CC
:102290002068C1692A6941EA0221C161002084F8ED
:1022A0003C0070BD10B5040003D094F83D0010B19F
:1022B00007E0012010BD002084F83C00204600F01B
:1022C0001EF8022084F83D00211D206801F0C4FEA4
:1022D000012084F8460084F83E0084F83F0084F82A
:1022E000400084F8410084F8420084F8430084F8F8
:1022F000440084F8450084F83D00002010BD70477C
:102300007047000070B500680025264CB0F1804F82
:1023100009D0254988423ED12069401C2061B0F592
:102320007A7F33D033E06069401C6061E068401C14
:10233000E060642829D1207A1C4E4FF400710128F6
:1023400002D0022808D00BE001223046FEF799FEA9
:10235000207A401C207203E000223046FEF791FEF6
:10236000607A012802D0022809D00DE0012208215C
:102370003046FEF786FE607A401C607204E0002260
:1023800008213046FEF77DFEE56070BD2561BDE8A1
:10239000704001F073BD06498842F6D1BDE8704037
:1023A00001F0B4BC7C00002000080040000C01409B
:1023B000000400407047704770470000F8B502689D
:1023C00004461068D168536910F00F0F4FF00005F4
:1023D00053D003F0010601F4907737435FD0C20772
:1023E00005D0CA0503D5226C42F0010222644207DF
:1023F00005D5DA0703D0226C42F00202226482077C
:1024000005D5DA0703D0226C42F0040222640207E9
:1024100007D501F02002324303D0226C42F00802BB
:102420002264226C002A34D0800604D5880602D5A6
:10243000204601F03EFF20684069216CC0F3801007
:10244000090700D430B3204601F01BFF2068416922
:1024500049061BD5416921F040014161A06BA8B13B
:1024600058494163A06BFEF7B1FC002811D0A06B66
:10247000416B01B0BDE8F040084783060FD58B06DD
:102480000DD52046BDE8F84001F013BF2046FFF708
:1024900093FFF8BD2046FFF78FFF2564F8BD266B3C
:1024A0002023012E52D1C60650D5CE064ED5106837
:1024B00050680090506940062AD5A16B08684068B2
:1024C0000004000CEAD0A68D8642E7D9E085886931
:1024D000202818D0D06820F48070D060206841692E
:1024E00021F0010141612068416921F04001416111
:1024F00084F83E3025632068C16821F01001C16076
:10250000A06BFEF73FFCA08DE18D401A81B219E06F
:10251000A08DE18D401A81B2E08D0028BED0002947
:10252000BCD0D06820F49070D0602068426922F05E
:102530000102426184F83E3025632068C26822F0BF
:102540001002C2602046FFF736FFF8BD05062BD506
:102550000D0629D594F83D002128F6D1A068B0F5E4
:10256000805F01D12069B0B1206A411C21622168DD
:1025700000784860E08C401E0004000CE084E4D148
:102580002068C16821F08001C1602068C16841F005
:102590004001C160F8BD206A0088C0F308005060A7
:1025A000206A801C2062E5E74006F3D54806F1D595
:1025B000D168204621F04001D16084F83D3000F020
:1025C0009AF9F8BD7342000870B5040004D094F87D
:1025D0003D00002510B106E0012070BD84F83C509C
:1025E000204600F023F8242084F83D002068C168CC
:1025F00021F40051C160204601F0B6FE2068016957
:1026000021F4904101612068416921F02A01416172
:102610002068C16841F40051C1602564202084F81D
:102620003D0084F83E00002070BD0000F0B585B08C
:102630000024009401940294039403683F4F022005
:102640003F4903223F4D4602BB4220D18B6943F4F0
:1026500080438B618B6903F4804304938B6943F05F
:1026600004038B618969039201F004010491010262
:10267000CDE9001069462846FEF706FCCDE9006466
:10268000694628460294FEF7FFFB05B0F0BD2E4FC9
:10269000BB4226D1CB6943F40033CB61CB6903F451
:1026A000003304938B6943F004038B6189690392BF
:1026B00001F0040104910421CDE900106946284687
:1026C000FEF7E2FB0820CDE90004694628460294A3
:1026D000FEF7DAFB002211462620FEF7F5FF262042
:1026E00028E01A4DAB42D0D1CB6943F48023CB61B3
:1026F000CB6903F4802304938B6943F008038B6157
:102700008969134D01F00801CDE90321CDE900608D
:1027100069462846FEF7B8FBE814CDE9000469468F
:1027200028460294FEF7B0FB002211462720FEF750
:10273000CBFF2720FEF7BAFFA7E7000000380140D3
:1027400000100240000801400044004000480040E2
:10275000000C014090F83E30202B0ED159B152B1FF
:1027600090F83C30012B08D0012380F83C30002346
:10277000036301F055BE012070470220704700003E
:102780002DE9F0412B49DFF8A8E00E4691F802C090
:102790000125294B327800244F78704525D1EE2A47
:1027A00003D0BCF1010F04D01AE00D718D704C7094
:1027B00001E0FF2A04D048781A54401C48700FE00A
:1027C000DA555878B22809D198781C4A012802D0E5
:1027D000022802D002E0157000E014708C70CD70F9
:1027E00034700122134912481CE0DFF854E07045B0
:1027F0001CD1EE2A03D0BCF1010F05D00EE002205F
:1028000008718D704C7001E0FF2A04D048781A548A
:10281000401C487002E0DA558C70CD7005490848BC
:1028200034700122BDE8F041FFF794BFBDE8F081AC
:10283000BC0200200000002044030020860000208D
:10284000000300202DE9F843044690F83D001F46A0
:1028500016460D4620284CD1C5B1BEB194F83C00B7
:10286000012846D0012084F83C004FF00008C4F84D
:102870004080212084F83D00FEF708FCA6848146B4
:10288000E684A068B0F5805F03D004E00120BDE8D5
:10289000F883206928B12E465FF0000584F83C805B
:1028A0000EE00026FAE78021204601F0D4FDA0B911
:1028B000AEB116F8010B21684860E08C401EE08440
:1028C000E08C4B464FF0000200970028EBD14FF010
:1028D0004001204601F0BFFD30B10320D7E735F8B5
:1028E000020BC0F30800E6E7202084F83D0000203A
:1028F000CDE70220CBE77047FEE701684A69D24383
:1029000052050FD46FF480624A61002140F8301FF5
:10291000202242738173026942F004020261017352
:1029200001207047002070472DE9F84F04460068E9
:1029300089460B9D01689846174641F48061016005
:102940002068016841F48071016000954FF0011B1F
:102950000022594620460A9B00F0DEF84FF4007A28
:1029600040B120680068C00501D5C4F840A003202C
:10297000BDE8F88F216809F0FE0008612B46284960
:1029800020460A9A00F0FCF8F0BB20684169806993
:1029900000902A4620460A9900F070F940B1206C58
:1029A00004283AD12068016841F40071016034E0E4
:1029B000FEB2B8F1010F09D02168380A08612A4631
:1029C00020460A9900F05AF90028E8D120680661EB
:1029D0002A4620460A9900F051F90028DFD12068E4
:1029E000016841F48071016000950022594620463B
:1029F0000A9B00F091F80028B3D1216809F0FF008C
:102A000040F00100086100E007E02B460449204641
:102A10000A9A00F0B5F80028AAD00120A8E7000023
:102A2000020001002DE9F843044600680D46DDE987
:102A3000089701689846164641F4807101604B463C
:102A400000224FF001112046009700F065F848B1D0
:102A500020680068C00502D54FF400702064032090
:102A6000BDE8F883216805F0FE0008613B464A4650
:102A70001549204600F084F888B9206841698069CA
:102A800000903A464946204600F0F8F848B1206CDC
:102A9000042804D12068016841F40071016001201C
:102AA000DEE7F5B2B8F1010F09D02168300A0861FC
:102AB0003A464946204600F0E1F80028E7D1206870
:102AC00005610020CCE700000200010070B5164649
:102AD0000D4604460DE02046FFF70FFF08B1012028
:102AE00070BD681C05D0FEF7D1FA801BA84207D83C
:102AF00035B120684069C0434007ECD4002070BD68
:102B0000002044F8300F20216173A073216941F047
:102B1000200121612073E2E72DE9F0471E4690462F
:102B20000D460446C1F30747DDF8209008E0701C0D
:102B300006D0FEF7ABFAA0EB0900B0420FD876B191
:102B40002068012F18D0806925EA00000004000CDD
:102B500014D000214145EAD00020BDE8F0870020D4
:102B600044F8300F20216173A073216941F02001E6
:102B7000216120730120F0E74069E5E70121E9E7E1
:102B80002DE9F0479A4691460E46044600254FF03F
:102B90002008C1F3074725E020684069C04340058D
:102BA00014D42068016841F40071016021686FF459
:102BB00080604861256384F83D8084F83E50206C35
:102BC00040F00400206484F83C501FE0B9F1FF3F5E
:102BD00008D0FEF75BFAA0EB0A0149450CD8B9F121
:102BE000000F09D02068012F13D0806926EA000069
:102BF0000004000C0BD0CFE744F8305F84F80D8060
:102C0000A573206940F02000206125730120BDE8F4
:102C1000F0874069EAE72DE9F041002590460E462D
:102C20000446202717E04069C043C0060CD454F87E
:102C3000301B6FF01000486144F810596777A57792
:102C4000206A2062257717E0FEF720FAA0EB080043
:102C5000B04208D83EB120684169C9434906E2D470
:102C60000020BDE8F08144F8305F6773A5732069E8
:102C700040F02000206125730120F2E770B5164670
:102C80000D4604460DE02046FFF737FE08B101204F
:102C900070BD681C05D0FEF7F9F9801BA84207D863
:102CA00035B120684069C0430006ECD4002070BDF7
:102CB000002044F8300F20216173A073216941F096
:102CC000200121612073E2E71FB5002103914FF439
:102CD0007A73022203A98DE80E0002461023A32175
:102CE0000A48FEF79DFA9DF80D009DF80C1000EBC8
:102CF000012084B206A001F015FC9DF80D1008A07B
:102D000001F010FC04B0204610BD00004C01002072
:102D100070617261313D3078253032580D0A000003
:102D200070617261323D3078253032580D0A0000F2
:102D30007FB505460C4612A001F0F4FBE1B2B4F5F4
:102D4000807F01D9200A00E000208DF80C008DF86A
:102D50000D106422022103A88DE8070010232A46E3
:102D6000A2210848FEF784FB9DF80C1006A001F094
:102D7000D9FB9DF80D1008A001F0D4FB7FBD000029
:102D8000256400004C0100205770617261313D30B4
:102D900078253032580D0A005770617261323D302B
:102DA00078253032580D0A002DE9F05FDFF884B045
:102DB0000C4681464FF4007A002251465846FEF7F1
:102DC00060F921461CA001F0ADFB1F4F66001F4DAE
:102DD000B8684FF00008864204D9A6EB000084B220
:102DE000424605E00CD2A0EB060084B24FF001028F
:102DF0004FF020015846FEF744F9C5F800800EE078
:102E0000C5F800800DE0797809FB01F02968884257
:102E100005D1C5F8008000F0A9F8641EA4B2002C0A
:102E2000F1D1002251465846FEF72BF9BE60BDE8AD
:102E3000F09F0000000C014079D6E1D2C6B6AFBECB
:102E4000E0C0EB2564000000380000209000002066
:102E50002DE9F05F03460A46C82400254FF47A7036
:102E6000FDF725FD4048DFF8F4B04FF000083C4E78
:102E7000DFF8F0A0012AC3EB031742464FF40071BC
:102E800081460AD0FEF7FDF8012220214846FEF7D0
:102E9000F8F8C6F800804E4641E0FEF7F2F800224E
:102EA00020214846FEF7EDF8C6F800804E4610E0B7
:102EB0002B4801688F420CD1C0F8008000F056F812
:102EC0006D1C554505D100224FF400713046FEF7C8
:102ED000D8F801213046FEF7C7F80128E8D00122D2
:102EE00020213046FEF7CDF86420FDF7E0FC00F02D
:102EF0003DF8641E2404240CF6D124E0184801682F
:102F00008F420CD1C0F8008000F030F86D1C5545A0
:102F100005D100224FF400713046FEF7B2F80121CE
:102F20003046FEF7A1F80128E8D0002220213046E3
:102F3000FEF7A7F86420FDF7BAFC00F017F8641E4E
:102F40002404240CF6D13046CBF80880BDE8F05FAD
:102F500000224FF40071FEF794B800003800002002
:102F60009000002020A10700000C01404FF4807168
:102F70000148FEF77EB80000000C01402DE9F04743
:102F800081460C46012208211A48FEF77AF81A4FAA
:102F90001A481B4E7A684FF400414FF000089442E3
:102FA00005D9A4EB020295B24FF0000205E009D268
:102FB000A2EB040295B24FF00102FEF762F8C6F8E8
:102FC00000800EE0C6F800800DE0397809FB01F0C2
:102FD0003168884205D1C6F8008000F0DBF86D1E2C
:102FE000ADB2002DF1D121467C60BDE8F04705A0CF
:102FF00001F098BA000C01403800002000080140A0
:1030000090000020D7AAC5CCB5B1C7B0CEBBD6C3FF
:10301000CEAA2564000000002DE9F05F074640F2CB
:10302000365400254FF47A70FDF741FC204E012202
:1030300008213046FEF725F84FF4004B0022594690
:103040001C48FEF71EF81C4900200860C7EB071754
:1030500080468946DFF864A011E0D9F800104846A0
:10306000B1EB870F0BD1C0F8008000F093F86D1C16
:10307000554504D1002208213046FEF702F801210F
:103080003046FDF7F1FF0028E7D0002259460948F5
:10309000FDF7F7FF6420FDF70AFC00F07BF8641EE3
:1030A0002404240CF6D10649C1F80480BDE8F09F41
:1030B000000C0140000801409000002020A1070002
:1030C000380000202DE9F05F07460D4600244FF43C
:1030D0007A70FDF7ECFB2A4E012208213046FDF7FD
:1030E000D0FF4FF4004B002259462648FDF7C9FF98
:1030F000254900200860C7EB071202EB4207DFF802
:103100008CA08146884610E0D8F8001040468F42D7
:103110000BD1C0F8009000F03DF8641C544504D178
:10312000002208213046FDF7ACFF01213046FDF7B3
:103130009BFF0028E8D0002259461248FDF7A1FF66
:103140004146C8F80090C846894612E0D9F80010F8
:1031500048468F420DD1C0F8008000F01BF8641C77
:10316000544504D1002208213046FDF78AFF6D1E28
:10317000ADB2002DEAD10649C1F80480BDE8F09F48
:10318000000C0140000801409000002020A1070031
:103190003800002010210148FDF76BBF000C0140F2
:1031A0002DE9F05FDFF87CB00C4681464FF4807A61
:1031B000012251465846FDF764FF21461AA001F04E
:1031C000B1F9DFF874801D480027D8F80C201C4E98
:1031D0004FF48041944205D9A4EB020295B24FF01E
:1031E000000205E008D2A2EB040295B24FF0010202
:1031F000FDF747FF37600AE037600AE03168B1EB5E
:10320000890F04D1376000F077F86D1EADB2002D44
:10321000F4D1002251465846FDF733FFC8F80C4060
:10322000BDE8F09F000801405AD6E1D2C6B6AFBE55
:10323000E0C0EB256400000038000020000C0140D5
:10324000900000202DE9F05F07464FF42F74002511
:103250004FF47A70FDF72BFBDFF888A04FF48079EC
:10326000012249465046FDF70CFFDFF87CB00122F1
:1032700091035846FDF705FF1C480026066007EB42
:103280008707804610E0D8F8001040468F420BD1E7
:10329000066000F031F816486D1C854204D100220A
:1032A00049465046FDF7EDFE01215846FDF7DCFE8C
:1032B0000128E8D000224FF480415846FDF7E1FE96
:1032C0001E20FDF7F4FA00F017F8641E2404240C05
:1032D000F6D1084849460022C6605046BDE8F05F76
:1032E000FDF7CFBE00080140000C01409000002017
:1032F00020A10700380000204FF400410148FDF7ED
:10330000B8BE0000000C01403EB5002410480094F7
:10331000019402940D4984600160047304750125D1
:1033200005614FF460214460C161FDF749FB08B1BC
:10333000FDF7C6FA0095CDE9015469460448FDF74A
:10334000C1FA002801D0FDF7BBFA3EBD00240140C0
:10335000F40000200F4810B50D49016008214160BC
:1033600000214FF400328160C0E903125201426132
:10337000017641768176C17601774177FDF73EFC93
:10338000002803D0BDE81040FDF79ABA10BD000038
:1033900000640040240100202DE9F04385B00024A2
:1033A00026480094019402940394816941F020011D
:1033B0008161816901F020010491816941F004017A
:1033C0008161816901F004010491816941F0080182
:1033D00081618069DFF8688000F008004EF22825DE
:1033E0000490002229464046FDF74BFEDFF854903A
:1033F0004FF40147002239464846FDF742FE41F2AC
:103400000300CDE90004694640460294FDF73CFD07
:103410000095022601250396CDE9015469464046F0
:10342000FDF732FD00970396CDE901546946484601
:10343000FDF72AFD05B0BDE8F08300000010024052
:10344000000C0140000801400D4810B50B49016017
:103450000C49416000214FF480428160C0E90312B1
:1034600041618161C1610162FDF716FE002803D050
:10347000BDE81040FDF724BA10BD00000054004024
:103480004C010020A086010010B586B0002417482A
:10349000009401940294039404944FF080410594A5
:1034A00001604721C0E901144FF47A71C0E90314A7
:1034B00080218161FEF776FC08B1FDF701FA4FF437
:1034C0008050009069460948FEF722FD08B1FDF7DB
:1034D000F7F9049404A905480594FEF72FFC002889
:1034E00001D0FDF7EDF906B010BD0000A0010020ED
:1034F00010B58EB000240794089409940A940B9494
:103500001C2168460C94FCF724FE20481E490160EB
:103510004721C0E901144FF47A71C0E903148021F6
:103520008161FEF73FFC08B1FDF7CAF94FF4805006
:10353000079007A91548FEF7EBFC08B1FDF7C0F9A5
:103540001248FEF7AFFE08B1FDF7BAF90B940BA9CC
:103550000E480C94FEF7F2FB08B1FDF7B1F97020AC
:1035600000904FF4FA70CDE9010400226946074843
:103570000494FEF734FE08B1FDF7A2F90348FEF704
:10358000E7FD0EB010BD000000040040E80100207F
:1035900010B58EB000240794089409940A940B94F3
:1035A0001C2168460C94FCF7D4FD20481E4901609C
:1035B0004721C0E901144FF47A71C0E90314802156
:1035C0008161FEF7EFFB08B1FDF77AF94FF4805007
:1035D000079007A91548FEF79BFC08B1FDF770F9A5
:1035E0001248FEF75FFE08B1FDF76AF90B940BA9CC
:1035F0000E480C94FEF7A2FB08B1FDF761F97020AC
:1036000000904FF4FA70CDE901040822694607489A
:103610000494FEF7E4FD08B1FDF752F90348FEF704
:1036200097FD0EB010BD00000008004030020020E1
:103630000C4810B50A4901604FF4E13141600021A6
:1036400081600C22C160C0E904128161C161FEF792
:10365000BBFF002803D0BDE81040FDF731B910BD15
:1036600000380140780200200C4810B50A4901607A
:103670004FF4E1314160002181600C22C160C0E95A
:1036800004128161C161FEF79FFF002803D0BDE8ED
:103690001040FDF715B910BD00440040BC020020E9
:1036A0000C4810B50A4901604FF4E1314160002136
:1036B00081600C22C160C0E904128161C161FEF722
:1036C00083FF002803D0BDE81040FDF7F9B810BD16
:1036D0000048004000030020FEE700002DE9F05FF5
:1036E000DFF8E490394C984617460E4605464FF0F1
:1036F000FF3A4FF0140B012825D0002D61D047F67A
:10370000B721B1FBF8F020613148B0FBF6F0FCF7CF
:10371000E5FE01F015FC00222E4BFCF7F9FD00221E
:103720002D4BFCF767FEFCF7FAFE0246606006EBE5
:10373000460040006421B0FBF1F108FB08F0B0FB4B
:10374000F1F058B10BE0C4F814A0207820F0070085
:10375000801C20704FF47A70606026E0012005FB29
:1037600007F1F319B1FBF3F101B90121814201D84D
:10377000481B03E07043B0FBF7F04042E06010B933
:103780005046C4F80CA02844A0602069824205D8A5
:103790006060207820F00700C01C03E0207820F053
:1037A0000700401C20700020606199F8001041F073
:1037B000010189F8001009490A68C2F82CB0C1F863
:1037C0000CB0BDE8F09F000048000020AC030020D2
:1037D000ACDF5F000068BA400000594030020020B2
:1037E0002DE9F04115460200184801EB4101174C44
:1037F00050F8218000EB8100A4F11004D0E901769B
:10380000207840F005002070204602D0012A02D026
:1038100006E0002100E0012181700DA000F082FE91
:1038200033463A4641462846FFF758FF0D48FEF713
:103830002BFB207805E00120FDF714FB20784107E1
:1038400001D5C007F7D1BDE8F08100005800002085
:1038500053696E676C654368616E676531CEAAA374
:10386000BA256400300200202DE9F05FDFF8E49013
:10387000394C984617460E4605464FF0FF3A4FF032
:10388000140B012825D0002D61D047F6B721B1FBDC
:10389000F8F020613148B0FBF6F0FCF71FFE01F0B4
:1038A0004FFB00222E4BFCF733FD00222D4BFCF783
:1038B000A1FDFCF734FE0246606006EB46004000C6
:1038C0006421B0FBF1F108FB08F0B0FBF1F058B156
:1038D0000BE0C4F814A0207820F00700801C2070B2
:1038E0004FF47A70606026E0012005FB07F1F319C0
:1038F000B1FBF3F101B90121814201D8481B03E07A
:103900007043B0FBF7F04042E06010B95046C4F895
:103910000CA02844A0602069824205D8606020780D
:1039200020F00700C01C03E0207820F00700401CB6
:1039300020700020606199F8001041F0010189F8C1
:10394000001009490A68C2F82CB0C1F80CB0BDE8F3
:10395000F09F0000B8000020C4030020ACDF5F002F
:103960000068BA4000005940E801002070B504002A
:103970000E4801EB410350F8231000EB8300D0E91F
:1039800001531046094AA2F11002167846F00506C6
:10399000167001D0012C00D154702A46FFF764FF45
:1039A000BDE870400248FEF76FBA0000C800002072
:1039B000E801002010B5094C012251022046FDF714
:1039C00060FB012208212046FDF75BFB0122BDE8D8
:1039D000104011020248FDF754BB0000000C0140EA
:1039E00000080140FEE7704710B5154C4FF4F07128
:1039F0002088FFF79DF92088FFF766F9E0800146EF
:103A000010A000F08FFD4FF496516088FFF790F9F9
:103A10006088FFF759F9208101460EA000F082FD71
:103A200041F27071A088FFF783F9A088FFF74CF985
:103A300060810146BDE810400AA000F073BD00009F
:103A400024000020BAE1D2C6BCE4BEE03D25640DEE
:103A50000A000000B3F5CABCBEE0C0EB3D25640D12
:103A60000A000000B2E2CAD4BEE0C0EB3D25640DFE
:103A70000A000000704700002DE9F0438BB0764D3E
:103A8000DFF8D89100246E466FF00B074FF06638D0
:103A9000A869FCF71EFD3946FCF72EFCFCF758FD23
:103AA00042464B46FCF734FCFCF765FD46F8240023
:103AB000641CE4B20A2CEBD3DDE90001FCF754FBF3
:103AC0000299FCF751FB0399FCF74EFB0499FCF7B4
:103AD0004BFB0599FCF748FB0699FCF745FB07995A
:103AE000FCF742FB0899FCF73FFB0999FCF73CFB0C
:103AF0005B49E861FCF7C2FB5A49FCF78DFBFCF718
:103B0000FAFC42F2107164260A2504464FF47A77D3
:103B1000884237D394FBF1F094FBF1F201FB1241A0
:103B2000C9B2B1FBF7F2B1FBF7F407FB1212B2FB1B
:103B3000F6F1B2FBF6F306FB1322B2FBF5F3B2FB90
:103B4000F5F605FB162200F1300004F1300401F116
:103B5000300103F1300302F13002C0B2E4B2CDB261
:103B6000DEB2D7B200F0C6FC204600F0C3FC284607
:103B700000F0C0FC304600F0BDFC384600F0BAFC56
:103B8000EF2061E0BC4201D8BC4227D136A000F052
:103B9000C9FC94FBF7F107FB1141C9B2B1FBF6F385
:103BA00006FB131394FBF7F0B1FBF6F2B3FBF5F150
:103BB000B3FBF5F405FB14333030303230313033A1
:103BC000C0B2D4B2CDB2DEB200F094FC204600F018
:103BD00091FC284600F08EFC304635E0642C1CD366
:103BE00023A000F09FFC94FBF6F106FB1141CAB242
:103BF000B2FBF5F1B2FBF5F394FBF6F005FB1322F3
:103C0000303030313032C0B2CCB2D5B200F072FCBC
:103C1000204600F06FFC284616E017A000F082FC5A
:103C20000A2C0FD394FBF5F194FBF5F005FB114141
:103C300000F1300001F13001C0B2CCB200F05AFC0A
:103C4000204601E03034E0B200F054FC3220FDF7B1
:103C500009F90BB0BDE8F0837C00002066660A40DD
:103C60000000204100401C4631313131313100002B
:103C700032323232000000003333333300000000B0
:103C8000FDF7BCBC30B593B028216846FCF761FA5B
:103C900014210AA8FCF75DFA002501200F95109564
:103CA0001195010412958DE8230004904FF4E01063
:103CB000CDE90810022407946846FDF799FE08B183
:103CC00072B6FEE70AA90F2081E831004FF4806048
:103CD000CDE90D0502210AA8FDF79EFD08B172B6D7
:103CE000FEE74FF4404011900F940FA8FDF71EFD22
:103CF000002801D072B6FEE713B030BD7047000057
:103D00000148FEF771B90000A00100202DE9F05F25
:103D1000DFF848C166469CF80110012904D118B9A2
:103D2000307820F0040030704D4C4E4967687808B8
:103D300008604C48083807603078400703D4207882
:103D400020F0070020702178DFF81CE111F007084F
:103D500017D0434A414E5369D2E902BAB06803F121
:103D6000010913695268F668401C06EB4202B8F17B
:103D7000010F19D0B8F1020F50D0B8F1030F6AD17A
:103D800039E00020CCF80800CCF80C00DEF8001078
:103D900021F00101CEF800103448FEF7A1F8307888
:103DA00020F00100307056E0DEF8006046F00106B9
:103DB000CEF80060012606EB890692FBF6F57D1B26
:103DC00092FBF6F7CCF8080006FB1722C4F8149013
:103DD000CCF80C20834502D8C4F814A01AE0AB42FA
:103DE00039D3CCF804500020CCF80C0021F00700A7
:103DF0001D46C01C2EE0DEF8005045F00105CEF84F
:103E000000501D46CCF80800834524D8C4F814A0FF
:103E1000DCF8045021F00700801C1BE0DEF80050A5
:103E200045F00105CEF80050CCF808005FEA090023
:103E30004FF0010303EB800392FBF3F592FBF3F6E3
:103E400003FB16226061A7EB0505CCF80C2002D419
:103E500021F0070020706560BDE8F09FB8000020E9
:103E6000C40300203404004020040040E801002086
:103E70000148FEF7B9B80000E80100202DE9F05F25
:103E8000624DDFF88CA10127A8784FF000084FF4AD
:103E9000007BA946012806D1012154465046FDF772
:103EA000E3F8F8B1AF705B4C5B4A606841081160A1
:103EB00059491039086099F80000400706D4207865
:103EC00020F00700207055A000F02CFB2078564908
:103ED00010F007021ED0012A3BD0022A75D0032A17
:103EE00036D15FE001212046FDF7BEF8687099F8F1
:103EF00000104EA021F0040189F8001000F012FB20
:103F0000012259462046FDF7BCF84B48077085F85A
:103F10000280C8E7C5F8088099F800204F4622F0D3
:103F2000040289F80020C5F80C80086820F480702D
:103F300008604248FDF7D4FF387820F0010038705F
:103F40003FA000F0EFFA002259465046FDF799F8DD
:103F500058E00A6842F480720A60A968491CA960A6
:103F600063695B1C63616668EA6807EB830302EBC5
:103F7000460292FBF3F7F61B92FBF3F703FB1722C3
:103F8000EA60A2688A4202D8E168616118E02169AA
:103F9000B14237D36E6020F007000E46C01CC5F852
:103FA0000C802EE00A6842F480720A60A968491CFD
:103FB000A960A26826698A4224D8E16861616E68B6
:103FC00020F00700801C1CE0FFE70A6842F48072C2
:103FD0000A60A968491CA9606169491C616163683C
:103FE000EA6807EB810702EB430292FBF7F6A3EBCB
:103FF000060692FBF7F307FB1322EA6002D420F0D7
:10400000070020706660BDE8F09F000048000020B7
:10401000000C0140AC0300203C080040CDA3D6B901
:10402000D4CBB6AF0000000020080040C5F6B5BDF7
:10403000BFAAB9D800000000840000203002002090
:104040004D6F746572315F53544F50000148FDF756
:10405000CBBF000030020020F0B50268164B174CB1
:10406000174D4FF08047984205D0B84203D0A04288
:1040700001D0A84203D122F070064A683243984228
:1040800005D0B84203D0A04201D0A84203D122F407
:104090004074CA6822434C6922F0800222430260C5
:1040A0008A68C2620A688262984201D10969016322
:1040B00001214161F0BD0000002C014000040040DE
:1040C0000008004010B5846842EA032224F47F44CB
:1040D0000A432243826010BD826822F070020A43C4
:1040E00042F007018160704730B5026A22F0010298
:1040F0000262026A4368846924F073050C682C43E9
:1041000022F002058A682A430A4DA8420BD122F008
:104110000805CA6823F440732A434D6922F004025B
:104120001D438B692B43436084614968416302628C
:1041300030BD0000002C014030B5026A22F01002B0
:104140000262026A436884690D6824F4E64444EA22
:1041500005248D6822F0200242EA05120B4DA84288
:104160000ED1CD6822F0800242EA05124D6923F497
:10417000406343EA85038D6922F0400243EA8503E8
:104180004360846149688163026230BD002C014054
:1041900030B5026A22F480720262036A4268C4691E
:1041A00023F4007324F073050C682C438D6843EAF4
:1041B00005230C4DA8420ED1CD6823F4006343EAD9
:1041C00005234D6922F4405242EA05128D6923F419
:1041D000806342EA05124260C4614968C1630362B8
:1041E00030BD0000002C014030B5026A22F480523C
:1041F0000262046A4268C3690D6823F4E64343EA35
:1042000005238D6824F4005444EA0534064DA84281
:1042100004D14D6922F4804242EA85124260C361B2
:1042200049680164046230BD002C014010B5036A86
:10423000046A24F001040462846924F0F00444EA6E
:10424000021423F00A020A438461026210BD10B511
:10425000036A23F0100303628369046A23F4704342
:1042600043EA023224F0A00343EA011182610162B1
:1042700010BD10B5406A0021C185C184FEF79CF8CD
:1042800010BD0168CA6822F49072CA6001684A6968
:1042900022F001024A61016B012904D10168CA6858
:1042A00022F01002CA60202180F83E100021016334
:1042B000704708B590F83E10222901D0022008BDB1
:1042C00082684FF480539A4201D1016921B1816A19
:1042D0009A421BD04AB10AE00268816A5268C2F36E
:1042E00008020A80816A891C08E0026972B10268CA
:1042F000526802F07F020A70816A491C8162C18D96
:10430000491E0904090CC18503D019E002685268EE
:10431000F1E70168CA6822F02002CA600168CA6831
:1043200022F48072CA6001684A6922F001024A617F
:10433000202180F83E10016B012903D0FEF720FAFE
:10434000002008BD002101630168CA6822F0100244
:10435000CA6001680A68D20602D50A6849680091F5
:10436000818DFEF728F8EBE770B504460068016917
:10437000E26821F44051114301612169A0680843BA
:10438000616908432168CA6841F20C639A43024399
:10439000CA6020684169A26921F4407111434161FA
:1043A0001E492068884202D1FDF7DCFA01E0FDF7E2
:1043B000C9FA00EBC00101EB0012606864218000C3
:1043C000B2FBF0F3B3FBF1F36FF018067343B2FBEB
:1043D000F0F5B2FBF0F605EB8305322303EB051590
:1043E000B5FBF1F5B6FBF1F605F0F00505EB0615AA
:1043F000B2FBF0F6B2FBF0F0B0FBF1F06FF0180298
:10440000504306EB800003EB0010B0FBF1F0216895
:1044100000F00F002844886070BD000000380140A3
:1044200081628285C28500210164222280F83E20BB
:1044300080F83C100168CA6842F48072CA60016862
:104440004A6942F001024A610068C16841F02001F6
:10445000C160002070472DE9F041984617460E468E
:104460000446069D1DE0681C1BD02DB1FCF70EFE16
:10447000A0EB0800A84214D92068C16821F4D071CB
:10448000C1602068416921F001014161202084F868
:104490003D0084F83E00002084F83C000320BDE885
:1044A000F0812068006836EA000004D00020B8429D
:1044B000D9D00020F3E70120F9E700000148FDF71B
:1044C0007DBF0000BC0200200148FDF777BF00005F
:1044D0000003002005490978012903D0022903D1EE
:1044E00000F014B800F006B8704700000400002087
:1044F000FEE7000001B54FF47A73012269460248D5
:10450000FEF7A0F908BD00007802002001B54FF4C5
:104510007A73012269460248FEF794F908BD00004B
:10452000000300200FB4054B10B503A9044A0298FC
:1045300000F02EF810BC5DF814FB0000154A0008CE
:10454000EC0000200907090E002804DB00F1E02040
:1045500080F80014704700F00F0000F1E02080F8B0
:10456000141D704702E008C8121F08C1002AFAD1C2
:1045700070477047002001E001C1121F002AFBD1E3
:10458000704700000149086070470000F0000020FB
:104590002DE9FF4F8DB00F460546002606E0252881
:1045A0000BD0DDE90F1290476D1C761C287800288F
:1045B000F5D111B03046BDE8F08F0024A246A146E7
:1045C0000122EC4900E0044315F8013F203B02FAC8
:1045D00003F00842F7D128782A2810D06FF02F0274
:1045E0002878A0F13001092914D80AEB8A0102EBDE
:1045F000410144F0020400EB010A6D1CF0E701CF19
:104600005FEA000A03D544F40054CAF1000A44F0FA
:1046100002046D1C28782E2817D115F8010F44F0DC
:1046200004042A280ED06FF02F022878A0F1300160
:1046300009290AD809EB890102EB410100EB0109C4
:104640006D1CF2E757F8049B6D1C28786C280FD07E
:1046500006DC4C2817D068280DD06A2814D104E055
:10466000742810D07A280FD10DE044F400140AE029
:1046700044F4801401E044F440146978814202D18A
:1046800004F580146D1C6D1C2A786E2A1FD00CDC7A
:10469000632A31D004DC002A8BD0582A11D1A3E040
:1046A000642A68D0692A0CD165E0732A2ED004DC14
:1046B0006F2A73D0702A04D19BE0752A6FD0782AB4
:1046C0006ED01046DDE90F129047761C50E1C4F31E
:1046D0000250022806D0032809D0042801CF09D0AF
:1046E000066045E101CFF117C0E9006140E101CF6B
:1046F00006803DE106703BE117F8040B8DF80000E1
:1047000000208DF80100EB46012003E057F804BBC0
:104710004FF0FF3061074FF0000102D40DE008F1C7
:104720000101884649450FDA8045F8DB1BF808107F
:104730000029F4D108E008F1010188468142FADB42
:104740001BF808100029F6D1DDE90F23AAEB0800B9
:104750008146214600F036F9304400EB080604E0BB
:10476000DDE90F121BF8010B9047B8F10108F7D2F1
:1047700021464846F7E00A21C4F302534FF0000BEC
:104780000891022B04D001CFC117032B09D00AE0F6
:10479000FF1D27F00707F7E8020108E032E01FE0FD
:1047A00020E000B2C117042B01D140B2C117031E93
:1047B00071F1000307DA4FF0000CD0EB0C006CEB4A
:1047C00001012D2302E0230504D52B238DF824308D
:1047D000012303E0E30701D02023F7E7984658E0E0
:1047E0000A2110E010210EE010204FF0000B08907D
:1047F0000CE010214FF0000B44F004044FF00809C6
:10480000089103E008214FF0000B0891C4F3025314
:10481000022B04D001CF0021032B06D006E0FF1DA0
:1048200027F00707F7E8020103E080B2042B00D16C
:10483000C0B24FF0000823072BD5702A07D0DDF84F
:1048400020C08CF0100C5CEA0B0C05D00EE040236D
:104850008DF82430012308E050EA010306D030230C
:104860008DF824308DF8252002239846DDF820C0ED
:104870008CF0080C5CEA0B0C0BD150EA010301D15F
:10488000630706D530238DF824304FF00108A9F1D5
:104890000109582A04D038A20B9208AA0A920BE008
:1048A0003AA2F9E75B46089AFBF781FE0B9B9B5CFB
:1048B0000A9A521E0A92137050EA0102F2D10A9823
:1048C000ADEB000000F1200B600702D524F480342A
:1048D00001E04FF00109D94502DDA9EB0B0000E032
:1048E000002000EB0B0141440890AAEB010AE00311
:1048F00006D4DDE90F232146504600F063F8064454
:104900004FF0000908E009A911F80900DDE90F12CC
:10491000904709F10109761CC145F4DBE0030CD591
:10492000DDE90F232146504600F04CF8064404E030
:10493000DDE90F1230209047761C0899481E089038
:104940000029F5DC08E00A980A990078491C0A91C8
:10495000DDE90F129047761CBBF10001ABF1010BB2
:10496000F1DC21465046DDE90F2300F019F806443A
:104970006D1C1BE6092801003031323334353637DF
:10498000383961626364656600000000303132339B
:10499000343536373839414243444546000000003B
:1049A0002DE9F041044600251E461746880404D42C
:1049B00005E039462020B0476D1C641EF9D5284615
:1049C000BDE8F0812DE9F041044600251E469046E1
:1049D000C80301D5302700E02027880404D505E06E
:1049E00041463846B0476D1C641EF9D52846BDE8DF
:1049F000F081000001A0FFF795BD0000BDF8C8EBF5
:104A0000B2E5BFA8B5C8B4FDC4A3CABD000000008C
:104A10007047000013B54FF6FF7301226946024844
:104A2000FDF710FF00981CBDBC0200202DE9F041ED
:104A30008E4842F21072C17830395143027902EB4C
:104A40004203C3EBC21201EBC201427902EBC20383
:104A500003EB021201EB82018279037802EB8202FE
:104A600001EB4201C2798C180146A4F550448A78C2
:104A70004978503CA12B6FD0B12B71D17C4B7D4D2F
:104A80005E154FF4807742296AD2DFE801F0692190
:104A9000694069262669692B696969696969692FAD
:104AA000366940444A5052586969696969695D715B
:104AB0008763676B716D69756969696969697E8208
:104AC000878B69A0ABB5C4D3696969696969DBDDA6
:104AD000BDE8F0412D20FEF79FBABDE8F041084641
:104AE00000F0ECB9BDE8F041FEF7C6BF2146104624
:104AF000FEF744FA611C60A005E021461046FEF76F
:104B000053F9611E60A0BDE8F041FFF70BBDBDE8A1
:104B1000F041FEF74FBFA1B2BDE8F0410120FEF722
:104B2000D1BA2146BDE8F0410120FEF727BA0021A5
:104B300053E02146BDE8F0410120FEF735B9BDE85C
:104B4000F0410120FEF77EBB2146BDE8F041012087
:104B5000FEF726BB012102E07DE001E00021817229
:104B6000BDE8F081012200E00022394618466EE0DF
:104B7000BDE8F041FFF73EBF01212846FCF774FA7B
:104B800008B145A01FE046A01DE0BDE8F041FEF7DA
:104B90002BBFBDE8F041104600F04CBABDE8F04133
:104BA000FFF736BF002231462846FCF76AFA214655
:104BB0003DA0FFF7B7FC0121204600F0C7F832E026
:104BC0003EA000E040A0BDE8F041FFF7ABBC0022F2
:104BD00031462846FCF755FA0121BDE8F041012095
:104BE000FEF736B9002231462846FCF74AFA21463C
:104BF00038A0FFF797FC9CE7002231462846FCF7D7
:104C000040FA214628A0FFF78DFC2046BDE8F04180
:104C1000002100F09BB8214623A0FFF783FC01216F
:104C2000204600F0E7F801212846FCF71DFA01288C
:104C3000C8D1C5E721461CA0FFF774FC002120461F
:104C400000F0D8F8002200E0012231462846BDE8F5
:104C5000F041FCF716BA4FF4FA70FCF703F900F0D4
:104C600024F9BDE8F04100F017B900007C000020F5
:104C700000080140000C0140786D6F7665B5C4BE38
:104C8000E0C0EBCEAA256400796D6F7665B5C4BE31
:104C9000E0C0EBCEAA2564007472756500000000C8
:104CA00066616C7365000000D2C6B6AFB5C4BEE0E5
:104CB000C0EBCEAAA3BA2564000000004B45595FA3
:104CC0004F4E2F722F6E00004B45595F4F46462FB7
:104CD000722F6E00B5B1C7B0B5E3BBF7D2C6B6AFA1
:104CE000BEE0C0EB25640000FCF790FCFEF7CAFFB5
:104CF000FEF752FBFEF72EFBFEF7C6FBFEF7A4FB0A
:104D0000FEF796FCFEF7B0FCFEF7CAFCFEF7FCFAD5
:104D1000FEF7EEFBFEF73CFC0848FDF7B5F8012274
:104D200007490848FDF716FD012205490648FDF729
:104D300011FD00BF00F02AF9FCE70000A0010020EF
:104D400000000020BC020020000300202DE9F041FB
:104D5000204D214E0F4628603168204B884209D9EA
:104D60004FF000024FF020011846FCF78AF928683E
:104D7000316809E017D24FF001024FF020011846C8
:104D8000FCF77FF930682968441A214614A0FFF720
:104D9000C9FB4FF4FA7084420AD9224600213846F2
:104DA000FEF71EFD09E000210DA0FFF7BBFB0DE0A3
:104DB000844202D12246012105E0601EB0F5F97F50
:104DC00004D8224602213846FEF70AFD28683060E2
:104DD000BDE8F081A8000020A4000020000C0140E4
:104DE0007374657020B5C4B4F3D0A1CEAAA3BA255C
:104DF000640000002DE9F0411F4D204E0F46286051
:104E000032681F4B4FF40041904207D94FF0000227
:104E10001846FCF736F92868316807E015D24FF0DC
:104E200001021846FCF72DF930682968441A21461A
:104E300014A0FFF777FB4FF4FA7084420AD9224698
:104E400001213846FEF792FD09E000210DA0FFF791
:104E500069FB0DE0844202D12246012105E0601E7B
:104E6000B0F5F97F04D8224602213846FEF77EFDD0
:104E700028683060BDE8F081B0000020AC00002060
:104E8000000801407374657020B5C4B4F3D0A1CE9E
:104E9000AAA3BA256400000010B5FF20FFF71AFB93
:104EA000BDE81040FE20FFF715BB10B5AA20FFF7A4
:104EB00011FBBDE810405520FFF70CBB1B4910B596
:104EC000CA7842F21073303A5A430B7903EB430429
:104ED000C4EBC31302EBC3024B7903EBC30404EB33
:104EE000031302EB83028B79C97903EB830302EB93
:104EF00043021144A1F55041503989B205280BD025
:104F0000062808D10A4C2088FDF712FF2088FDF7FB
:104F1000DBFE0849088010BD074C2088FDF708FF1C
:104F20002088FDF7D1FE0549F4E700007C00002051
:104F30003200002036000020300000203400002025
:104F40002DE9F04106460F46FBF7F6FB041E0D4621
:104F500018BF0120284320F00040C0F17F6000F11D
:104F6000E040C00F0ED0301C18BF0120384320F0A5
:104F70000040C0F17F6000F1E040C00F04BF01209D
:104F8000FFF700FB20462946BDE8F08170B5224CB2
:104F9000002522482178012929D002293BD1204926
:104FA0000968A1F58072013A10D11E490A78027091
:104FB0004A7842708A788270CA78C2700A7902711F
:104FC0004A7942718A798271C979C1714FF47A73D1
:104FD000082214491448FDF735FC104913482031C4
:104FE000FBF74AFC2570BDE87040FFF71FBD104974
:104FF0004A7802708A784270CA7882700A79C270E0
:105000004A7902718A794271CA798271097AC171C9
:10501000FFF70CFD257070BD030000207C00002010
:1050200078030020050000207802002024010020E1
:10503000440300200B4910B508700B49097851B1A1
:105040000A490B4A401E0988128800FB0210C1B2AF
:105050000120FDF793FF07480188BDE810400120BB
:10506000FDF7A2BEB5000020B40000202C000020F7
:105070002A0000202E000020000000000000000098
:1050800001020304060708090000000001020304EE
:10509000B050000800000020F40000006445000843
:1050A000A4510008F4000020EC060000744500083C
:1050B00000000000000000000000000000000000F0
:1050C00000000000010000001000000000000000CF
:1050D0000024F400000002000600000000000000B0
:1050E00008000A00000000003C0F00000000000063
:1050F00000000000000000000400000000000000AC
:105100000000000000000000200300002003000059
:10511000F40100002C0100002C010000A50000009B
:105120006400000064000000640000000000000053
:10513000000000000000000000000000000000006F
:1051400000000000000000000000000011223344B5
:10515000554455550000000000000000000000000C
:10516000000000000000000004000000000000003B
:1051700000000000000000002003000020030000E9
:10518000F40100009600000096000000AA00000054
:1051900064000000640000006400000000000000E3
:0451A000000000000B
:04000005080000ED02
:00000001FF
