:020000040800F2
:100000003808002001010008B5380008F12B00086D
:10001000F1350008CF05000841410008000000004C
:10002000000000000000000000000000413900084E
:100030000106000800000000B73800084339000836
:100040001B0100081B0100081B0100081B01000820
:100050001B0100081B0100081B0100081B01000810
:100060001B0100081B010008030600081B01000813
:100070001B0100081B0100081B0100081B010008F0
:100080001B0100081B0100081B0100081B010008E0
:10009000354100081B0100081B0100080906000883
:1000A0001B0100081B0100081B0100081B010008C0
:1000B000C1390008193B0008AD3C00081B010008CD
:1000C0001B0100081B0100081B0100081B010008A0
:1000D0001B0100081B0100081D4100082941000800
:1000E0001B0100081B0100081B010008DFF80CD0F1
:1000F00000F020FA00480047954C0008380800201E
:100100000648804706480047FEE7FEE7FEE7FEE7B1
:10011000FEE7FEE7FEE7FEE7FEE7FEE7BF39000881
:10012000ED000008202A04DB203A21FA02F0002129
:10013000704721FA02F3D040C2F1200291400843F7
:1001400019467047D2B201E000F8012B491EFBD2DC
:1001500070470022F6E710B513460A4604461946D2
:10016000FFF7F0FF204610BD2DE9FE4F81EA0304A2
:1001700004F0004421F0004100944FF0000B23F004
:10018000004350EA01045ED052EA03045BD0C3F39B
:100190000A54C1F30A552C44A4F2F3340194A0FB91
:1001A0000254C1F3130141F48011C3F3130343F468
:1001B000801301FB024400FB034E840A970A44EAC1
:1001C000815447EA8357A4FB076802958D0A05FB13
:1001D00007854FEA932C04FB0C542705029D4FEA38
:1001E000065847EA1637B5EB08056EEB070C870E85
:1001F000920E47EA811742EA8312A7FB0201B6EB8F
:100200000B0164EB00042B0D43EA0C335E1844EB46
:100210001C50DA465146E7FB0201C5F313044FEACE
:100220000B3343EA14534FEA0432019C43EA0603BA
:10023000A4F10C040294009CCDE900B400F0DBF8BA
:1002400003B0BDE8F08F00200146F9E72DE9F04D3D
:1002500081EA030404F0004B21F0004514464FF0FE
:10026000000A23F0004150EA050220D054EA0102BE
:100270001DD0C5F30A570246C5F31303C1F313009B
:10028000C1F30A5640F4801543F48013A7EB060827
:10029000101BD64608F2FD3873EB050002D308F1B7
:1002A000010801E092185B41B8F1000F03DA002069
:1002B0000146BDE8F08D00204FF4801106468446CB
:1002C0000EE0171B73EB050705D3121B63EB050349
:1002D00006434CEA010C49084FEA300092185B4192
:1002E00050EA0107EDD152EA030012D082EA04007D
:1002F00083EA0501084305D0101BAB4106D2012259
:10030000002306E000224FF0004302E06FF00102FC
:1003100053101AEB06004CEB085110EB0A0041EBAE
:100320000B01BDE8F04D00F057B80EB540F2334177
:1003300002910021CDE900110A460B4600F05BF85E
:1003400003B000BDC1F30A5210B5C1F3130140F26E
:10035000FF3341F480119A4201DA002010BD40F2CF
:1003600033439A42A2F2334203DC5242FFF7DAFEF1
:1003700010BD904010BD2DE9F05F0546002092466B
:100380009B4688460646814640241BE02846414657
:1003900047462246FFF7C6FE53465A46C01A9141C9
:1003A00010D311461846224600F0D6F82D1A67EBF6
:1003B00001084F4622460120002100F0CDF817EB3E
:1003C00000094E41201EA4F10104DFDC48463146FD
:1003D0002A464346BDE8F09F10B5141E73F1000491
:1003E00008DA401C41F1000192185B411A4301D127
:1003F00020F0010010BD2DE9F04D92469B4611B151
:10040000B1FA81F202E0B0FA80F22032904600F0B8
:10041000A3F804460F4640EA0A0041EA0B0153469E
:100420005A46084313D0114653EA010019D0C8F1C7
:1004300040025046FFF776FE05460E4650465946A6
:10044000424600F089F8084305D0012004E0204628
:100450003946BDE8F08D0020054346EAE0762C439E
:1004600037430A986305E40AA0EB08000022FD0A5E
:1004700044EA47540A3002D500200146E9E7010565
:1004800010196941DDE9084500196941BDE8F04DE1
:10049000A2E72DE9F04D00231A461B1A8A4103DB1F
:1004A00000200146BDE8F08DC1F30A52C1F31301EB
:1004B00041F480154FF0000BD10702D100186D41B7
:1004C000521E0027044640F2FF11384601EB620A33
:1004D0003E468046024600204FF48011FFF722FE80
:1004E000C2197141BB1846EB0100B4EB030C75EB6C
:1004F000000C04D3E41A65EB000517460E462419D8
:1005000008F101006D4180463428E3DDF91946EB1E
:100510000600091BA84103D24FF0FF32134601E049
:10052000002213461BEB070046EB0A51BDE8F04DD5
:10053000FFF752BF064C074D06E0E06840F00103AC
:1005400094E8070098471034AC42F6D3FFF7D2FD89
:100550006C5100088C510008202A04DB203A00FA74
:1005600002F1002070479140C2F1200320FA03F30A
:10057000194390407047000070B5044600688168D8
:10058000C943C90717D1816821F00101816000F0DA
:100590009FFE05460AE000BF00F09AFE401B0228BD
:1005A00004D920688068C043C00706D020688068EE
:1005B000C043C007F0D0002070BDA06A40F010001A
:1005C000A062E06A40F00100E062012070BDFEE739
:1005D000084B30B41A60084A5A60082200249C6014
:1005E000C3E903421C750A4630BC044B014900F0C4
:1005F00061B90000F0030020005034121000002008
:100600007047102000F05EBD10B5202000F05AFDAC
:10061000BDE81040402000F055BD72B6FEE7000076
:10062000F8B50024009490F824202546012A12D021
:10063000012280F824204A681F23072A0DD2066869
:10064000776B521E02EB820293409F430B689340EC
:100650001F43776319E00220F8BD06680D2A0AD20D
:10066000376BD21F02EB820293409F430B6893408B
:100670001F43376309E0F76A0D3A02EB82029340A9
:100680009F430B6893401F43F7620A68072306687D
:100690000A2A0AD3F7680A3A02EB420293409F43C0
:1006A0008B6893401F43F76008E0376902EB420212
:1006B00093409F438B6893401F4337610A68102A19
:1006C00001D0112A20D1124B02689A4217D19368A7
:1006D0001B0219D4936843F400039360096810293E
:1006E00012D10C490C4A0968B1FBF2F101EB81010E
:1006F000490000E0491E00910029FBD104E0816A15
:1007000041F020018162012480F824502046F8BD88
:10071000002401402000002040420F002DE9F0415C
:100720004FF0000704003D467ED0A06A002628B99D
:10073000E66284F82460204600F07EF82046FFF749
:100740001BFFA16AC90600D420B1A06A40F01000C6
:10075000A06269E0A16A21F4885141F00201A1621E
:100760006268E169237B0A4347EA43010A43A168BF
:100770004FF48077B94209D0012907D05FF000011A
:1007800094F814C0BCF1010F02D00AE03946F7E733
:10079000F3B1A36A43F02003A362E36A43F00103C9
:1007A000E3622368D3F804C02CF4694C4CEA010CD2
:1007B000C3F804C021688B68DFF870C003EA0C033B
:1007C00013438B60A168B9420BD0012909D00CE01A
:1007D000DFF85CC0A3690CEB43330B4343F40061C7
:1007E000DFE7218A0D05A5F580152168CB6A23F482
:1007F00070032B43CB62216889680E4B19409142EC
:1008000008D1E662A16A21F0020141F00101A16272
:10081000BDE8F081A06A20F0020040F01000A06264
:10082000E06A40F00100E0620120F1E7FDF7E1FF3E
:1008300000E0FFFFFE0E1FFF00B585B00021009114
:1008400001910291039100680E49884218D10E4827
:10085000816941F400718161816901F40071049141
:10086000816941F0040181618069694600F00400FA
:1008700004900220009003200190044800F02EFC18
:1008800005B000BD002401400010024000080140F6
:1008900090F82020012A07D0022A05D0416A41F4AD
:1008A0008021416201207047006842690A43426129
:1008B00000207047F0B590F820500468A468012D1E
:1008C00005D0022D03D0416A41F4802153E014F099
:1008D000406F01D1E5004BD5C4F30164022C03D96C
:1008E000416A41F4000146E00125A5401D608D6884
:1008F0004FF4C0739DB1CE6835434E6845EAC605D6
:10090000066803EB0417F5514FF4C275076805EB51
:1009100004150E697E51097D012905D009E00E8874
:10092000CD6845EA4655EBE701684E5946F48076B6
:100930004E511179D2F805504FF4C67641EA05259B
:10094000016806EB04168D511178D2F801204FF49E
:10095000C47541EA0221026805EB04155151006893
:1009600003EB0411425842F0010242500020F0BD56
:10097000416A41F4001141620120F0BD10B590F8C8
:1009800020300268012B07D0022B05D0416A41F4C8
:1009900080214162012010BDD2F8000240F0010028
:1009A000C2F80002087D00F01F0301209840D2F831
:1009B0001C328343C2F81C32CB69B3B9D2F80C3273
:1009C0008343C2F80C328C894B6864F31F434C6933
:1009D00002EBC404C4F840320C890B6864F31F4373
:1009E0004C6902EBC404C4F84432CB69012B16D124
:1009F000D2F80C320343C2F80C320C884B6864F313
:100A00001F434C6902EBC404C4F840320C89CB6824
:100A100064F31F434C6902EBC404C4F844328B698D
:100A2000002BD2F804320FD053EA0003C2F804328C
:100A30000B69002BD2F8143208D00343C2F81432E9
:100A4000096A012904D008E08343EFE78343F5E70F
:100A5000D2F81C120143C2F81C12D2F8000220F096
:100A60000100C2F80002002010BD704730B590F8B8
:100A70002040012C05D0022C03D0416A41F4802192
:100A80005DE00468002955D02469A40754D04FF4D0
:100A9000D874056804EB01142D5915F00405956010
:100AA00005682D594ED0ED08556005682C5904F0A5
:100AB0000204D4604FF4DA74056804EB01142D5974
:100AC00005F00F05156105682D59C5F307259561DA
:100AD00005682C59240C54614FF4DC72046802EB55
:100AE0000112A4581C700468A458240A5C7004689D
:100AF000A458240C9C700468A258120EDA704FF4AB
:100B0000DE72046802EB0112A4581C710468A45838
:100B1000240A5C710468A458240C9C710468A258CF
:100B2000120EDA71006881B1016941F020010161A2
:100B3000002030BDE468A8E7416A41F40011416239
:100B4000012030BD6D0D1560AFE7C16841F0200197
:100B5000C160EDE72DE9F05F0546006800244669B5
:100B6000D0F804908768D0F80CB0D0F810A0D0F876
:100B70001880F10748D0F90714D001218160B80727
:100B800003D5284600F0F9F90CE0780702D54FF4B8
:100B9000006407E0380702D54FF4805402E028468D
:100BA00000F0EAF9F80516D529684FF480708860DE
:100BB000B80503D5284600F0E2F90CE0780502D527
:100BC00044F4005407E0380502D544F4804402E0C0
:100BD000284600F0D3F9F80316D529684FF4803081
:100BE0008860B80303D5284600F0CBF90CE0780301
:100BF00002D544F4004407E0380302D544F48034BD
:100C000002E0284600F0BCF9300707D55FEACB6068
:100C100004D52968102044F40074C86070074FF0B0
:100C2000080707D55FEA0B7004D52868C760284617
:100C300000F05AF9B00706D52868C068800702D0CE
:100C4000284600F053F9700607D55FEACA6004D55C
:100C50002968102044F480640861B00607D55FEA73
:100C60000A7004D528680761284600F055F9F00697
:100C700006D528680069800702D0284600F04DF9A3
:100C8000B00308D55FEAC96005D52968102048601F
:100C9000284600F043F9F00307D55FEA097004D550
:100CA00028684760284600F06DF9300446D55FEAB1
:100CB000497040D5F00504D55FEAC87001D044F012
:100CC0000104B00504D55FEA887001D544F0020440
:100CD000700504D55FEA487001D544F0040430057E
:100CE00029D518F0700F26D008F07000402815D0D4
:100CF00006DC102809D020280AD0302816D10AE0B6
:100D000050280ED0602811D10EE044F008040DE008
:100D100044F010040AE044F0200407E044F04004EA
:100D200004E044F0800401E044F4807428688169A0
:100D300021F070018161296804204860002C05D0F1
:100D4000686A204368622846FFF78FFEBDE8F09F7F
:100D500070B5040003D094F8200010B104E0012025
:100D600070BD204600F082F82068016841F0010162
:100D7000016000F0ADFA0546052604E000F0A8FA8F
:100D8000401B0A2811D820684068C007F6D02068A8
:100D9000016821F00201016000F09AFA05460BE0BB
:100DA00000F096FA401B0A2806D9606A40F4003029
:100DB000606284F82060D2E7206840688007EFD442
:100DC000207E0128206801683DD021F0800101606B
:100DD000607E01282068016838D021F04001016060
:100DE000A07E01282068016833D021F02001016035
:100DF000E07E0128206801682ED041F010010160DA
:100E0000207F01282068016829D021F008010160B5
:100E1000607F01282068016824D021F0040101606E
:100E2000D4E902010843D4E904121143084361687C
:100E3000491E08432168C86100206062012084F8CF
:100E40002000002070BD41F08001C0E741F040016A
:100E5000C5E741F02001CAE721F01001CFE741F0DA
:100E60000801D4E741F00401D9E7000010B586B0CD
:100E70000021009101910291039100681749884275
:100E80002AD11748C16941F00071C161C16901F0FF
:100E900000710491816941F0040181618069114C04
:100EA00000F0040004904FF4006000906946204672
:100EB00000F014F9A0140090022001900320039088
:100EC0006946204600F00AF900220121142000F0B2
:100ED0001DFD142000F00CFD06B010BD00640040A4
:100EE00000100240000801407047000010B5074A9A
:100EF0000168914208D1064B064A0021FFF7B6FD72
:100F000003490220491F087110BD00000064004021
:100F100005000020D4030020704770477047000090
:100F200070B5044690F82000012804D0606A40F4AF
:100F30000020606218E0022084F820002068016828
:100F400021F00101016000F0C3F905460EE000BF89
:100F500000F0BEF9401B0A2808D9606A40F400304E
:100F60006062052084F82000012070BD2068406880
:100F7000C007EDD1606270BD704770477047704721
:100F800070477047704710B590F821100022022971
:100F900005D00421816380F82020012010BD016864
:100FA0000B6823F00E030B6001680B6823F001034C
:100FB0000B6090F84030C46B012101FA03F36360C9
:100FC00080F8211080F82020104610BD10B590F850
:100FD00021100024022903D00421816301243DE073
:100FE00001680A6822F00E020A6001680A6822F0AD
:100FF00001020A601A4A0168914201D1012121E0EF
:10100000174A1432914201D110211BE0144A2832B0
:10101000914201D1891515E0114A3C32914201D12A
:1010200089140FE00E4A5032914202D14FF48031C0
:1010300008E00B4A6432914202D14FF4801101E082
:101040004FF08071064A083A5160012180F8211062
:10105000002180F82010416B01B18847204610BD67
:101060000800024070B5044600F032F90546601CE5
:1010700002D004480078044400F02AF9401BA04242
:10108000FAD370BD1400002010B572B602210B4ACD
:10109000102804D0202804D0402804D004E0117186
:1010A00002E0917100E011724FF47A730C2203494F
:1010B000034801F043FD62B610BD0000E4000020CB
:1010C00018030020044910B50A68024202D00860E3
:1010D000FFF7DAFF10BD0000140401402DE9F84FBE
:1010E000DFF8B891002409F1040A0AF1040B234641
:1010F0000F270BF1040EC9E00125A5402A40AA42A2
:101100007DD1674ED1F804C0ACEB0608B44532D0AF
:1011100014DCBCF1030F3AD009DCBCF1000F2AD07B
:10112000BCF1010F1CD0BCF1020F31D11DE0BCF1AC
:10113000110F17D0BCF1120F2AD119E0B8F5881F92
:1011400019D006DCB8F5803F15D0B8F5801F1FD147
:1011500011E0B8F5001F0ED0B8F5041F18D10AE051
:10116000CB6815E0CB681B1D12E0CB6808330FE09D
:10117000CB680C330CE08B682BB1012B4FF00803CC
:1011800003D0456104E0042302E0056100E0002390
:10119000FF2A01D8064601E000F104064FEA840563
:1011A00001D9A5F12005D6F8008007FA05FC28EA48
:1011B0000C0803FA05F548EA0508C6F800804D68F2
:1011C000ED0062D5374DAE6946F00106AE61AD69FE
:1011D00024F0030605F001050095334D06EB050CE0
:1011E000DCF80850A607360F07FA06F825EA0805C6
:1011F000DFF8B880404503D14FF0000817E044E025
:10120000DFF8AC80404502D14FF001080FE0DFF875
:10121000A480404502D14FF0020808E0DFF8988032
:10122000404502D14FF0030801E04FF0040808FAEE
:1012300006F848EA0508CCF808804D68D9F800603F
:10124000ED034D4601D5164300E096432E604D68F0
:10125000DAF80060AD03554601D5164300E0964329
:101260002E604D68DBF80060ED025D4601D5164347
:1012700000E096432E604D68DEF80060AD027546D2
:1012800001D5164300E096432E60641C0D682A4683
:10129000E5407FF431AFBDE8F88F00000004014065
:1012A0000000111000100240000001400008014041
:1012B000000C01400010014000140140806808400B
:1012C00000D0012070470AB1016170470904FBE7B3
:1012D00001488068704700001400002070B50400C9
:1012E00025D094F83D00002520B984F83C502046D4
:1012F00000F078FA242084F83D002068016821F08D
:10130000010101602068016841F40041016020682A
:10131000016821F40041016000F036FC4D4A61682B
:10132000914201D84C4900E04C49884201D2012049
:1013300070BD4B492368B0FBF1F15E6826F03F06B3
:101340000E435E606368934206D94FF49673594327
:101350004FF47A73B1FBF3F12368491C1E6A26F03F
:101360003F06314319626168914210D84900401E1E
:10137000B0FBF1F2521CC2F30B02042A01D204208A
:1013800022E0B0FBF1F0401CC0F30B001CE0A268AF
:10139000F2B301EBC10303EB0116431EB3FBF6F3FB
:1013A0005B1C43F480431B0549D092B301EBC1029F
:1013B00002EB0111401EB0FBF1F0401CC0F30B002A
:1013C00040F4804040F400402168CA694CF6FF7345
:1013D0009A431043C861D4E90710014320680268AA
:1013E00022F0C00211430160D4E9030101432068E7
:1013F000826848F2FF339A4311438160D4E90501C2
:1014000008432168CA6822F0FF021043C86001E067
:101410000EE016E02068016841F0010101602564DA
:10142000202084F83D00256384F83E50002070BDE4
:1014300001EB4106431EB3FBF6F35B1CB3E701204F
:10144000C2E701EB4101401EB0FBF1F0401CC0F3CC
:101450000B00B7E7A086010080841E0000093D0054
:1014600040420F002DE9FF4F83B00025DDE91079E0
:101470009A4693460446DDF848800095FFF728FF1A
:10148000064694F83D0020287CD119230122854985
:101490002046009601F0BCFC0028F5D194F83C00F1
:1014A00001286FD0012084F83C0020680168C9073A
:1014B00003D1016841F0010101602068016821F455
:1014C00000610160222084F83D00402084F83E0045
:1014D00025646762A4F82A90608D20857248E062D6
:1014E000CDE9008653465A462046049901F098FB00
:1014F00000287DD1208DDFF8B491202768B1012824
:1015000014D00228206801681ED041F48061016077
:101510002068416980690090B6E02068416981696E
:101520000091016841F400710160ADE0206801683C
:1015300021F48061016072B620684169816900917F
:10154000016841F400710AE041F40061016072B683
:101550002068416981690091016821F4806101601E
:1015600062B691E0032868D801280CD002284346CF
:101570004FF000024946204600960FD001F048FC8B
:10158000B0BB10E08BE032464146204601F0BFFC84
:1015900070BB20680069616A08706CE001F038FC7B
:1015A00030BB72B634E02068016821F480610160CC
:1015B00072B620680069616A0870606A401C6062E7
:1015C000208D401E2085608D401E6085384846F283
:1015D000A8110068B0FBF1F0C0EBC00000EB800088
:1015E0000090401E009008D020684069C04300E091
:1015F00029E040070CD50098F3E744F8305F6773A3
:10160000A573206940F02000206162B625731AE0BE
:101610002068016841F40071016020680069616A16
:101620000870606A401C6062218D491E2185618DB1
:10163000491E618562B621681BE03246414620465C
:1016400001F065FC18B1012007B0BDE8F08F2068FB
:101650000069616A0870606A401C6062218D491EE1
:101660002185618D491E618521684A69D2435207EF
:101670000AD409690170606A401C6062208D401EB6
:101680002085608D401E6085208D00287FF46AAF24
:1016900084F83D7084F83E5084F83C50D4E7022032
:1016A000D2E70000020010000000FFFF040001006C
:1016B000200000202DE9FF4F83B09A46DDE9119705
:1016C00093460446DDF84080FFF702FE054694F895
:1016D0003D0020287FD11923012240492046009552
:1016E00001F096FB002876D194F83C00012872D0D6
:1016F000012084F83C0020680168C90703D1016813
:1017000041F0010101602068016821F4006101607D
:10171000212084F83D00402084F83E000026266405
:10172000C4F82480A4F82A90608D20852C48E062BB
:10173000CDE9007553465A462046049901F0EEFA69
:1017400070B930E02A463946204601F013FC58B102
:10175000206C042804D12068016841F40071016004
:10176000012007B0BDE8F08F606A21680078086149
:10177000606A401C6062218D491E89B22185628D9C
:10178000521E628522685369DB435B070BD469B143
:1017900000781061606A401C6062208D401E2085C8
:1017A000608D401E6085208D0028CBD12A463946A9
:1017B000204601F007FB0028CAD154F83D0B016810
:1017C00041F400710160202004F81E09E677667775
:1017D0000020C6E7FFE70220C3E700000200100078
:1017E0000000FFFF10B586B0002100910191029129
:1017F000039100680F4988421AD10F4CA06940F04C
:101800000800A061A069694600F008000490C020AB
:10181000009012200190032003900848FFF75EFC1F
:10182000E06940F40010E061E06900F40010049009
:1018300006B010BD0054004000100240000C0140F2
:1018400002488168027811448160704714000020CA
:10185000074810B5016841F010010160032000F055
:1018600075F80F2000F006F800F024F8002010BDF5
:101870000020024070B50D4D04464FF47A7128786F
:10188000B1FBF0F00A490968B1FBF0F000F062FB2F
:1018900048B9102C07D200222146501E00F036F81D
:1018A00000206C6070BD012070BD0000140000209D
:1018B000200000200C4808B5816941F001018161D8
:1018C000816901F001010091C16941F08051C1615C
:1018D000C06900F0805000900448416821F0E06148
:1018E00041F00071416008BD00100240000001405D
:1018F000002809DB00F01F0201219140400980000F
:1019000000F1E020C0F8001170470000F0B40E4B69
:101910001B680C46C3F30223C3F10705042D00D94D
:101920000425191D072901D2002300E0DB1E012632
:1019300006FA05F1491E214099409E40761E164048
:101940003143F0BC02F01ABC0CED00E0064900F097
:10195000070208684FF6FF03184040EA0220034AD6
:1019600010430860704700000CED00E00000FA052D
:101970002DE9F84305460078354CC00754D0E0699E
:101980000026C00008D4E06940F08050E061E069C2
:10199000012600F0805000902E480168C90512D43D
:1019A0000168804641F480710160FFF791FC0746B1
:1019B00005E000BFFFF78CFCC01B642823D8D8F8D3
:1019C0000000C005F6D5206A10F4407021D0A98827
:1019D00001F4407181421CD0206A1F49012220F489
:1019E00040700A6000220A602062C00711D0FFF731
:1019F0006FFC074641F2883808E000BFFFF768FC3B
:101A0000C11B414502D90320BDE8F883206A800745
:101A1000F4D5206A696820F44070084320621EB142
:101A2000E06920F08050E0612878800705D5606883
:101A3000A96820F44040084360602878C00605D5B6
:101A40006068E96820F48000084360600020DBE7FC
:101A50000010024000700040400442422DE9F0476F
:101A60000F46050061D0434E306800F00700B842D1
:101A700009D2306820F0070038433060306800F049
:101A80000700B84251D128683B4C810712D5400766
:101A900003D5606840F4E06060602878000703D5F3
:101AA000606840F4605060606068A96820F0F000F1
:101AB000084360602878C00728D06868012810D0E3
:101AC0002168022810D0890700292EDA616821F0E8
:101AD000030101436160FFF7FBFB804641F2883957
:101AE0000DE021688903EFE78901EDE7FFF7F0FBDF
:101AF000A0EB0801494502D90320BDE8F0876068E2
:101B0000696800F00C00B0EB810FEFD1306800F095
:101B10000700B8420BD9306820F007003843306026
:101B2000306800F00700B84201D00120E5E72878CE
:101B3000400705D56068E96820F4E060084360600C
:101B40002878000706D56068296920F4605040EACB
:101B5000C100606000F038F86168084AC1F3031101
:101B6000515CC8400649086006480068FFF782FEDD
:101B70000020C2E70020024000100240545100083B
:101B8000200000201800002004480549006849682A
:101B9000044AC1F30221515CC84070472000002074
:101BA0000010024064510008044805490068496873
:101BB000044AC1F3C221515CC84070472000002094
:101BC000001002406451000812A185B00FC98DE8D1
:101BD0000F0014A0144A006804905168134801F0E3
:101BE0000C03042B10D0082B0ED1C1F38343C9037F
:101BF0001DF803000AD5516804AAC1F34041515CA5
:101C00000A4A5043B0FBF1F005B070470849484319
:101C1000FAE7000002030405060708090A0B0C0D89
:101C20000E0F1010010200000010024000127A0096
:101C300000093D002DE9F84F040070D02078C04D18
:101C4000C00749D06868C0F38100012807D06868E0
:101C5000C0F38100022809D16868C00306D528684E
:101C6000800339D560680028E7D035E06068B0F5BA
:101C7000803F0BD010B1B0F5A02F11D0286820F410
:101C800080302860286820F4802002E0286840F432
:101C900080302860606890B1FFF71AFB06460AE0C2
:101CA000286840F480202860F0E700BFFFF710FBB1
:101CB000801B642873D828688003F7D50CE0FFF7F1
:101CC00007FB064605E000BFFFF702FB801B642808
:101CD000F0D828688003F7D420789A4E80074FF018
:101CE00001094FF0000839D5686810F00C0F07D0D3
:101CF0006868C0F38100022809D16868C00306D46F
:101D00002868800714D52069012808D110E02069CF
:101D1000B0B1C6F80090FFF7DBFA074605E00AE12C
:101D2000FFF7D6FAC01B0228C4D828688007F7D569
:101D30002868616920F0F80040EAC10028600DE0E1
:101D4000C6F80080FFF7C4FA074604E0FFF7C0FAC0
:101D5000C01B022823D828688007F7D42078000702
:101D60002CD57948A169D9B1C0F80090FFF7B0FA35
:101D7000074604E0FFF7ACFAC01B02280FD8686AD8
:101D80008007F7D571484FF4FA510068B0FBF1F0C5
:101D9000009000BF0098411E0091FAD20EE080E052
:101DA000C0F80080FFF794FA074604E0FFF790FAC6
:101DB000C01B022875D8686A8007F7D420784007CE
:101DC00060D5E8690027C00008D4E86940F0805079
:101DD000E861E869012700F0805000905C480168E4
:101DE000C90513D40168834641F480710160FFF78F
:101DF0006FFA824606E000BFFFF76AFAA0EB0A001E
:101E000064284ED8DBF80000C005F5D5E06801284D
:101E10000AD008B1052813D0286A20F001002862F2
:101E2000286A20F0040002E0286A40F001002862DD
:101E3000E06841F2883B98B1FFF74AFA82460BE02E
:101E4000286A40F004002862EEE700BFFFF740FA7E
:101E5000A0EB0A0159455AD8286A8007F6D50CE04C
:101E6000FFF736FA824605E0FFF732FAA0EB0A01E7
:101E700059454CD8286A8007F6D41FB1E86920F08C
:101E80008050E861E06988B36968C1F38101022983
:101E900044D00228C6F8608004D0FFF719FA04463F
:101EA00038E034E0FFF714FA074604E0FFF710FAD1
:101EB000C01B02282BD828688001F7D4206AB0F50F
:101EC000803F05D16868A16820F40030084368604D
:101ED000D4E908010843696821F474110843686073
:101EE000C6F86090FFF7F4F9044606E025E000BF6D
:101EF000FFF7EEF9001B022809D828688001F7D502
:101F00001BE000BFFFF7E4F9001B022802D9032001
:101F1000BDE8F88F28688001F4D40EE00128F7D0DE
:101F20006868226A00F48031914204D1616A00F449
:101F30007010884201D00120EAE70020E8E70000A5
:101F40000010024000004242800442422000002073
:101F50000070004010B5401EB0F1807F01D3012019
:101F600010BD4FF0E02460610F21601702F006F908
:101F70000020A06107202061002010BD704770473D
:101F800010B590F83C20012A22D0012280F83C2094
:101F9000CA688C6822F4407222434C6822F4806242
:101FA00022430C6822F4006222430C6922F480521E
:101FB00022434C6922F400522243C969002322F4CF
:101FC00080420A4301684A6480F83C30002010BD1A
:101FD000022010BD70B590F83C20012A26D00124C3
:101FE00080F83C40022280F83D2003685A689D68D2
:101FF00022F070060A6832435A600D4B02689A421A
:1020000008D0B2F1804F05D00A4B9A4202D00A4B59
:102010009A4204D1496825F080031943916080F801
:102020003D40002180F83C10084670BD022070BD84
:10203000002C0140000400400008004010B50400DE
:1020400003D094F83D0010B107E0012010BD00203E
:1020500084F83C00204600F01FF8022084F83D0080
:10206000211D206801F028FE012084F8460084F834
:102070003E0084F83F0084F8400084F8410084F872
:10208000420084F8430084F8440084F8450084F852
:102090003D00002010BD000008B501681D48B1F1E9
:1020A000804F11D01C4A91421DD1C16941F00201FB
:1020B000C161C069002200F00200009002211D20D1
:1020C000FFF724FC1D201FE0C16941F00101C1613F
:1020D000C069002200F00100009002211C20FFF7DF
:1020E00015FC1C2010E00D4A914211D1C16941F04C
:1020F0000401C161C069002200F0040000900221C7
:102100001E20FFF703FC1E20BDE80840FFF7F0BBD0
:1021100008BD00000010024000040040000800401C
:1021200090F83D10012901D001207047022180F86C
:102130003D100168CA6842F00102CA6000680B499C
:10214000884208D0B0F1804F05D00949884202D0BA
:102150000849884204D1816801F00701062903D0AB
:10216000016841F00101016000207047002C01402E
:1021700000040040000800400168CA6822F0010223
:10218000CA6001680A6A41F211131A4207D10A6A49
:102190009B101A4203D10A6822F001020A60012151
:1021A00080F83D100020704770B5044690F83C0060
:1021B000012817D0012584F83C50022084F83D0006
:1021C0002068826822F0770222F47F4282600868E9
:1021D000502830D00DDC20284DD005DC98B31028D5
:1021E0003BD148E0022070BD302844D0402834D193
:1021F00039E0602828D0702806D0B0F5805F2CD058
:10220000B0F5005F29D10AE0CB68D1E9012120684F
:1022100001F088FD2068816841F0770109E0CB6812
:10222000D1E90121206801F07DFD2068816841F439
:102230008041816011E0CA684968206801F026FE8B
:102240005021206807E016E0CA684968206801F05C
:102250002EFE6021206801F06FFD84F83D500020C3
:1022600084F83C0070BDCA684968206801F00EFE21
:1022700040212068EFE7226801461046EBE77047EF
:1022800070B50446006801694FF00005C94389072D
:1022900015D4C168C943890711D4E91E0161012021
:1022A0002077206880698007204602D0FFF7E7FF8B
:1022B00004E000F0F3F8204600F096F92577206856
:1022C0000169C943490717D4C168C943490713D4F1
:1022D0006FF004010161022020772068806910F40A
:1022E000407F204602D0FFF7CAFF04E000F0D6F896
:1022F000204600F079F9257720680169C94309076C
:1023000016D4C168C943090712D46FF008010161EE
:10231000042020772068C0698007204602D0FFF79C
:10232000AEFF04E000F0BAF8204600F05DF9257732
:1023300020680169C943C90617D4C168C943C906E1
:1023400013D46FF010010161082020772068C06964
:1023500010F4407F204602D0FFF791FF04E000F028
:102360009DF8204600F040F9257720680169C943AF
:10237000C90708D1C168C943C90704D1891E0161D1
:10238000204600F033F920680169C943090609D4E1
:10239000C168C943090605D46FF080010161204678
:1023A000FFF7ECFD20680169C943490609D4C168FB
:1023B000C943490605D46FF040010161204600F091
:1023C00077F920680169C94389060BD4C168C943FC
:1023D000890607D46FF0200101612046BDE87040F6
:1023E000FFF7CDBD70BD000030B585B00021009174
:1023F00001910291039103682148224A8415022128
:1024000083420DD1906940F0040090619069CDE95C
:10241000004100F00400CDE9031069461A482CE0A1
:102420001A4D1B48AB4219D1936943F008039361DD
:102430009269039102F0080204921022CDE9002172
:102440006946FEF74BFE1348416821F4406141F0B4
:10245000E06141F40061416005B030BD0E4DAB421A
:10246000FAD1936943F0080393619269CDE9004181
:1024700002F00802CDE903126946FEF72FFEEBE7F2
:10248000002C014000100240000801400004004000
:10249000000C01400000014000080040704770B58A
:1024A000044690F83C000D4601280AD0012084F82B
:1024B0003C0042B1042A18D0082A2AD00C2A4DD157
:1024C00039E0022070BD206801F03EFC206881697F
:1024D00041F0080181612068816921F00401816176
:1024E000206881692A69114311E0206801F054FCD9
:1024F0002068816941F4006181612068816921F46B
:1025000080618161206881692A6941EA02218161D3
:1025100024E0206801F06CFC2068C16941F00801EA
:10252000C1612068C16921F00401C1612068C169ED
:102530002A69114311E0206801F086FC2068C16916
:1025400041F40061C1612068C16921F48061C16109
:102550002068C1692A6941EA0221C161002084F82A
:102560003C0070BD10B5040003D094F83D0010B1DC
:1025700007E0012010BD002084F83C00204600F058
:102580001FF8022084F83D00211D206801F094FB13
:10259000012084F8460084F83E0084F83F0084F867
:1025A000400084F8410084F8420084F8430084F835
:1025B000440084F8450084F83D00002010BD000070
:1025C00008B500680649884208D10648816941F487
:1025D00000618161806900F40060009008BD000026
:1025E000002C0140001002407047000070B50068E8
:1025F000B0F1804F06D02A4988424AD1BDE87040E8
:1026000001F090BA274C284E00256069401C60619B
:10261000E068401CE060642827D1207A7115012809
:1026200002D0022808D00BE001223046FEF74BFE14
:10263000207A401C207203E000223046FEF743FE61
:10264000607A012802D0022809D00DE00122082179
:102650003046FEF738FE607A401C607204E00022CB
:1026600008213046FEF72FFEE560A07A01280FD141
:102670002069401CA0F51C512061103908D10022AE
:102680004FF400513046FEF71EFE0220A072256175
:1026900070BD06498842FBD1BDE8704001F096B993
:1026A00000080040C0000020000C01400004004071
:1026B0007047704770470000F8B50268044610681C
:1026C000D168536910F00F0F4FF0000553D003F09D
:1026D000010601F4907737435FD0C20705D0CA05E1
:1026E00003D5226C42F001022264420705D5DA07C5
:1026F00003D0226C42F002022264820705D5DA0779
:1027000003D0226C42F004022264020707D501F0D4
:102710002002324303D0226C42F008022264226C71
:10272000002A34D0800604D5880602D5204601F060
:10273000F0FB20684069216CC0F38010090700D4C9
:1027400030B3204601F0CDFB2068416949061BD516
:10275000416921F040014161A06BA8B15849416332
:10276000A06BFEF733FC002811D0A06B416B01B0C9
:10277000BDE8F040084783060FD58B060DD52046EF
:10278000BDE8F84001F0C5BB2046FFF793FFF8BD58
:102790002046FFF78FFF2564F8BD266B2023012E0E
:1027A00052D1C60650D5CE064ED51068506800905E
:1027B000506940062AD5A16B086840680004000CE7
:1027C000EAD0A68D8642E7D9E0858869202818D00E
:1027D000D06820F48070D0602068416921F0010148
:1027E00041612068416921F04001416184F83E3037
:1027F00025632068C16821F01001C160A06BFEF75D
:10280000C2FBA08DE18D401A81B219E0A08DE18D4F
:10281000401A81B2E08D0028BED00029BCD0D0681B
:1028200020F49070D0602068426922F00102426179
:1028300084F83E3025632068C26822F01002C2602E
:102840002046FFF736FFF8BD05062BD50D0629D526
:1028500094F83D002128F6D1A068B0F5805F01D141
:102860002069B0B1206A411C21622168007848606B
:10287000E08C401E0004000CE084E4D12068C168B4
:1028800021F08001C1602068C16841F04001C16051
:10289000F8BD206A0088C0F308005060206A801CE0
:1028A0002062E5E74006F3D54806F1D5D168204619
:1028B00021F04001D16084F83D3000F098F9F8BD76
:1028C000D33E000870B5040004D094F83D00002504
:1028D00010B106E0012070BD84F83C50204600F0A5
:1028E00023F8242084F83D002068C16821F40051B9
:1028F000C160204601F068FB2068016921F4904125
:1029000001612068416921F02A0141612068C168A4
:1029100041F40051C1602564202084F83D0084F812
:102920003E00002070BD0000F0B585B0002400948A
:1029300001940294039403683F4F02203F4903220D
:102940003F4D4602BB4220D18B6943F480438B61EB
:102950008B6903F4804304938B6943F004038B6118
:102960008969039201F0040104910102CDE900108C
:1029700069462846FEF7B2FBCDE900646946284661
:102980000294FEF7ABFB05B0F0BD2E4FBB4226D143
:10299000CB6943F40033CB61CB6903F40033049378
:1029A0008B6943F004038B618969039201F0040190
:1029B00004910421CDE9001069462846FEF78EFBFC
:1029C0000820CDE90004694628460294FEF786FBFC
:1029D000002211462620FEF799FF262028E01A4DF6
:1029E000AB42D0D1CB6943F48023CB61CB6903F4F4
:1029F000802304938B6943F008038B618969134D2D
:102A000001F00801CDE90321CDE9006069462846BF
:102A1000FEF764FBE814CDE90004694628460294F9
:102A2000FEF75CFB002211462720FEF76FFF2720F0
:102A3000FEF75EFFA7E700000038014000100240EB
:102A4000000801400044004000480040000C0140E4
:102A500090F83E30202B0ED159B152B190F83C3055
:102A6000012B08D0012380F83C300023036301F0E0
:102A700007BB01207047022070470000F0B42C49CA
:102A8000294F4E1C0125294B32780024B84228D109
:102A9000EE2A03D0C878012805D01CE00220087077
:102AA000CD708C7001E0FF2A04D088781A54401C45
:102AB000887010E088781A545878B22809D198782C
:102AC0001C4A012802D0022802D002E0157000E062
:102AD0001470CC700D71164901223470491C1248D3
:102AE0001DE0154FB8421DD1EE2A03D0C878012849
:102AF00005D00FE003200870CD708C7001E0FF2A34
:102B000004D088781A54401C887003E088781A54DE
:102B1000CC700D710649012207483470491CF0BC85
:102B2000FFF796BFF0BC704718030020A0030020F9
:102B300000000020FC0000205C0300202DE9F84389
:102B4000044690F83D001F4616460D4620284CD1FD
:102B5000C5B1BEB194F83C00012846D0012084F8EC
:102B60003C004FF00008C4F84080212084F83D006C
:102B7000FEF7AEFBA6848146E684A068B0F5805FD0
:102B800003D004E00120BDE8F883206928B12E4677
:102B90005FF0000584F83C800EE00026FAE7802113
:102BA000204601F088FAA0B9AEB116F8010B2168F1
:102BB0004860E08C401EE084E08C4B464FF0000201
:102BC00000970028EBD14FF04001204601F073FA46
:102BD00030B10320D7E735F8020BC0F30800E6E771
:102BE000202084F83D000020CDE70220CBE770478D
:102BF000FEE701684A69D24352050FD46FF4806240
:102C00004A61002140F8301F20224273817302691B
:102C100042F00402026101730120704700207047F6
:102C20002DE9F84F0446006889460B9D01689846D7
:102C3000174641F4806101602068016841F48071A9
:102C4000016000954FF0011B0022594620460A9B67
:102C500000F0DEF84FF4007A40B120680068C0054B
:102C600001D5C4F840A00320BDE8F88F216809F021
:102C7000FE0008612B46284920460A9A00F0FCF81D
:102C8000F0BB20684169806900902A4620460A9975
:102C900000F070F940B1206C04283AD12068016836
:102CA00041F40071016034E0FEB2B8F1010F09D0C7
:102CB0002168380A08612A4620460A9900F05AF924
:102CC0000028E8D1206806612A4620460A9900F0CB
:102CD00051F90028DFD12068016841F4807101605A
:102CE00000950022594620460A9B00F091F80028E2
:102CF000B3D1216809F0FF0040F00100086100E055
:102D000007E02B46044920460A9A00F0B5F800284F
:102D1000AAD00120A8E70000020001002DE9F84335
:102D2000044600680D46DDE9089701689846164696
:102D300041F4807101604B4600224FF001112046A2
:102D4000009700F065F848B120680068C00502D51A
:102D50004FF4007020640320BDE8F883216805F07B
:102D6000FE0008613B464A461549204600F084F8BB
:102D700088B920684169806900903A4649462046F2
:102D800000F0F8F848B1206C042804D120680168EC
:102D900041F4007101600120DEE7F5B2B8F1010FE6
:102DA00009D02168300A08613A464946204600F0B9
:102DB000E1F80028E7D1206805610020CCE7000099
:102DC0000200010070B516460D4604460DE020468F
:102DD000FFF70FFF08B1012070BD681C05D0FEF79A
:102DE00077FA801BA84207D835B120684069C043F4
:102DF0004007ECD4002070BD002044F8300F2021A3
:102E00006173A073216941F0200121612073E2E721
:102E10002DE9F0471E4690460D460446C1F307478C
:102E2000DDF8209008E0701C06D0FEF751FAA0EB08
:102E30000900B0420FD876B12068012F18D0806900
:102E400025EA00000004000C14D000214145EAD01E
:102E50000020BDE8F087002044F8300F2021617386
:102E6000A073216941F02001216120730120F0E766
:102E70004069E5E70121E9E72DE9F0479A469146E7
:102E80000E46044600254FF02008C1F3074725E011
:102E900020684069C043400514D42068016841F4AB
:102EA0000071016021686FF480604861256384F8D7
:102EB0003D8084F83E50206C40F00400206484F88B
:102EC0003C501FE0B9F1FF3F08D0FEF701FAA0EB3C
:102ED0000A0149450CD8B9F1000F09D02068012F2B
:102EE00013D0806926EA00000004000C0BD0CFE765
:102EF00044F8305F84F80D80A573206940F020000D
:102F0000206125730120BDE8F0874069EAE72DE9DB
:102F1000F041002590460E460446202717E0406900
:102F2000C043C0060CD454F8301B6FF01000486149
:102F300044F810596777A577206A2062257717E053
:102F4000FEF7C6F9A0EB0800B04208D83EB12068F1
:102F50004169C9434906E2D40020BDE8F08144F844
:102F6000305F6773A573206940F0200020612573EE
:102F70000120F2E770B516460D4604460DE02046E6
:102F8000FFF737FE08B1012070BD681C05D0FEF7C1
:102F90009FF9801BA84207D835B120684069C0431B
:102FA0000006ECD4002070BD002044F8300F202132
:102FB0006173A073216941F0200121612073E2E770
:102FC0001FB5002103914FF47A73022203A98DE803
:102FD0000E0002461023A3210A48FEF743FA9DF88B
:102FE0000D009DF80C1000EB012084B206A001F04A
:102FF000B5F89DF80D1008A001F0B0F804B0204617
:1030000010BD00006001002070617261313D3078B8
:10301000253032580D0A000070617261323D3078FF
:10302000253032580D0A00001FB5002103914FF4DE
:103030007A73012203A98DE80E0002461023A32112
:103040000548FEF70FFA9DF80C4004A0214601F058
:1030500085F804B0204610BD6001002070617261E7
:10306000313D3078253032580D0A00007FB50546D5
:103070000C4612A001F072F8E1B2B4F5807F01D9DC
:10308000200A00E000208DF80C008DF80D1064225D
:10309000022103A88DE8070010232A46A221084830
:1030A000FEF708FB9DF80C1006A001F057F89DF8FC
:1030B0000D1008A001F052F87FBD0000256400004B
:1030C000600100205770617261313D3078253032E7
:1030D000580D0A005770617261323D3078253032E8
:1030E000580D0A001FB564238DF80C10012203A9A6
:1030F0008DE80E0002461023A2210248FEF7DAFAFC
:103100001FBD0000600100203EB50024104800945F
:10311000019402940D4984600160047304750125D3
:1031200005614FF460214460C161FDF7F7FA08B111
:10313000FDF773FA0095CDE9015469460448FDF79F
:103140006FFA002801D0FDF768FA3EBD0024014067
:103150000801002010B51E488AB01C4901600821F2
:103160000024C0E901144905C16089110161C90049
:103170004161047644768476C47604774477FDF71B
:10318000E7FD08B1FDF749FA0120CDE906400890B6
:103190000594049400940194029469460C480394A5
:1031A000FDF7ECFB08B1FDF738FA0948FDF7B8FE6A
:1031B00008B1FDF732FA02210548FDF769FB002846
:1031C00001D0FDF72AFA0AB010BD000000640040EB
:1031D000380100202DE9F04385B0002432480094E6
:1031E000019402940394816941F020018161816915
:1031F00001F020010491816941F00401816181693C
:1032000001F004010491816941F008018161806944
:10321000DFF8988000F008004EF228250490002284
:1032200029464046FEF74FF8DFF884904FF40047F8
:10323000002239464846FEF746F8702000901D48A7
:10324000CDE9010469464846FDF748FF41F2030015
:10325000CDE90004694640460294FDF73FFF009522
:10326000022601250396CDE9015469464046FDF743
:1032700035FF00970396CDE9015469464846FDF7AE
:103280002DFF002211460A20FEF740FB0A20FEF720
:103290002FFB002211461720FEF738FB1720FEF700
:1032A00027FB05B0BDE8F08300100240000C014090
:1032B00000080140000021100D4810B50B490160C5
:1032C0000C49416000214FF480428160C0E9031243
:1032D00041618161C1610162FEF700F8002803D0FD
:1032E000BDE81040FDF799B910BD00000054004042
:1032F00060010020A086010010B592B000240F9458
:103300001C2108A81094FCF724FF20216846FCF734
:1033100020FF2248204901604821C0E901144FF4F0
:103320007A71C0E903148021C0E90541FFF71AF959
:1033300008B1FDF772F90F940FA918481094FEF721
:1033400049FE08B1FDF769F9702008904FF4FA7052
:10335000CDE909040B940C940D94002208A90F48A0
:103360000E94FFF79CF808B1FDF757F900944FF45D
:103370000050CDE904400294019403946946074843
:103380000794FEF7FDFD08B1FDF747F90348FFF785
:103390002BF812B010BD0000002C0140B401002039
:1033A00010B586B000241748009401940294039449
:1033B00004944FF08041059401604721C0E9011455
:1033C0004FF47A71C0E9031480218161FEF736FE63
:1033D00008B1FDF722F94FF4805000906946094882
:1033E000FEF7E2FE08B1FDF718F9049404A90548B8
:1033F0000594FEF7EFFD002801D0FDF70EF906B0A9
:1034000010BD0000FC01002010B58EB00024079410
:10341000089409940A940B941C2168460C94FCF7B8
:1034200098FE20481E4901604721C0E901144FF46D
:103430007A71C0E9031480218161FEF7FFFD08B1B4
:10344000FDF7EBF84FF48050079007A91548FEF7F9
:10345000ABFE08B1FDF7E1F81248FFF783F808B1B9
:10346000FDF7DBF80B940BA90E480C94FEF7B2FDA8
:1034700008B1FDF7D2F8702000904FF4FA70CDE952
:1034800001040022694607480494FFF708F808B1D0
:10349000FDF7C3F80348FEF7A7FF0EB010BD00000C
:1034A000000400404402002010B58EB000240794B0
:1034B000089409940A940B941C2168460C94FCF718
:1034C00048FE20481E4901604721C0E901144FF41D
:1034D0007A71C0E9031480218161FEF7AFFD08B164
:1034E000FDF79BF84FF48050079007A91548FEF7A9
:1034F0005BFE08B1FDF791F81248FFF733F808B109
:10350000FDF78BF80B940BA90E480C94FEF762FDA7
:1035100008B1FDF782F8702000904FF4FA70CDE901
:1035200001040822694607480494FEF7B8FF08B171
:10353000FDF773F80348FEF757FF0EB010BD00000B
:10354000000800408C0200200C4810B50A490160B8
:103550004FF4E1314160002181600C22C160C0E97B
:1035600004128161C161FFF7ADF9002803D0BDE805
:103570001040FDF752B810BD00380140D4020020C1
:103580000C4810B50A4901604FF416514160002102
:1035900081600C22C160C0E904128161C161FFF742
:1035A00091F9002803D0BDE81040FDF736B810BDF2
:1035B00000440040180300200C4810B50A4901607F
:1035C0004FF4E1314160002181600C22C160C0E90B
:1035D00004128161C161FFF775F9002803D0BDE8CD
:1035E0001040FDF71AB810BD004800405C030020F1
:1035F000FEE700002DE9F05FDFF8E490394C9846D3
:1036000017460E4605464FF0FF3A4FF0140B0128BF
:1036100025D0002D61D047F6B721B1FBF8F020612D
:103620003148B0FBF6F0FCF780FE01F04FFD0022C0
:103630002E4BFCF799FD00222D4BFCF707FEFCF703
:1036400081FE0246606006EB460040006421B0FB4C
:10365000F1F108FB08F0B0FBF1F058B10BE0C4F851
:1036600014A0207820F00700801C20704FF47A709E
:10367000606026E0012005FB07F1F319B1FBF3F1CF
:1036800001B90121814201D8481B03E07043B0FB1E
:10369000F7F04042E06010B95046C4F80CA028444E
:1036A000A0602069824205D86060207820F0070081
:1036B000C01C03E0207820F00700401C2070002090
:1036C000606199F8001041F0010189F80010094982
:1036D0000A68C2F82CB0C1F80CB0BDE8F09F000039
:1036E0004C00002008040020ACDF5F000068BA40F6
:1036F000000059408C02002070B50500134801EB12
:103700004103124C50F8231000EB8300A4F1100485
:10371000D0E901631046227842F005022270224669
:1037200001D0012D00D195703246FFF763FF0848A4
:10373000FEF7F6FC207805E00A20FDF793FC2078E0
:10374000410701D5C007F7D170BD00005C00002023
:103750008C0200202DE9F05FDFF8E490394C9846A8
:1037600017460E4605464FF0FF3A4FF0140B01285E
:1037700025D0002D61D047F6B721B1FBF8F02061CC
:103780003148B0FBF6F0FCF7D0FD01F09FFC0022C1
:103790002E4BFCF7E9FC00222D4BFCF757FDFCF704
:1037A000D1FD0246606006EB460040006421B0FB9C
:1037B000F1F108FB08F0B0FBF1F058B10BE0C4F8F0
:1037C00014A0207820F00700801C20704FF47A703D
:1037D000606026E0012005FB07F1F319B1FBF3F16E
:1037E00001B90121814201D8481B03E07043B0FBBD
:1037F000F7F04042E06010B95046C4F80CA02844ED
:10380000A0602069824205D86060207820F007001F
:10381000C01C03E0207820F00700401C207000202E
:10382000606199F8001041F0010189F80010094920
:103830000A68C2F82CB0C1F80CB0BDE8F09F0000D7
:103840008C00002020040020ACDF5F000068BA403C
:10385000000059404402002070B50500134801EBF8
:103860004103124C50F8231000EB8300A4F1100424
:10387000D0E901631046227842F005022270224608
:1038800001D0012D00D155703246FFF763FF084883
:10389000FEF746FC207805E00A20FDF7E3FB2078E0
:1038A000410701D5C007F7D170BD00009C00002082
:1038B00044020020FEE7704710B5204C012211465B
:1038C000208801F09DFB20880222801C80B201210B
:1038D00001F096FB20880322001D80B2012101F037
:1038E0008FFB20880122801D80B2022101F088FB1D
:1038F00020880222083080B2114601F081FB208826
:1039000003220A3080B2022101F07AFB20880122D2
:103910000C3080B2032101F073FB208802220E30AC
:1039200080B2032101F06CFB2088BDE8104010300C
:10393000032280B2114601F063BB00002400002086
:103940007047FDF77DBF30B593B028216846FCF77E
:1039500000FC14210AA8FCF7FCFB002501200F95B0
:1039600010951195010412958DE8230004904FF4F1
:10397000E010CDE90810022407946846FEF75AF9D2
:1039800008B172B6FEE70AA90F2081E831004FF4B2
:103990008060CDE90D0502210AA8FEF75FF808B1A5
:1039A00072B6FEE74FF4404011900F940FA8FDF758
:1039B000DFFF002801D072B6FEE713B030BD7047BC
:1039C0000148FEF75DBC0000FC0100202DE9F0413C
:1039D0004B4C27466078012808D102214948FDF761
:1039E0006DFC18B9387820F004003870464D474A0D
:1039F0006868410811604549083908603978490705
:103A000003D4297821F0070129702978404B11F05F
:103A1000070E4FF0000C0AD00122BEF1010F16D0A4
:103A2000BEF1020F4DD0BEF1030F66D137E0C4F8EE
:103A300008C0C4F80CC0186820F0010018603548B0
:103A4000FEF79AFB387820F00100387055E01E68C8
:103A500046F001061E60A3685B1CA3606E69761CBD
:103A60006E61E76802EB860207EB400797FBF2F610
:103A7000861B97FBF2F002FB1070E060A86898428A
:103A800002D8E868686118E02869B04235D36660FA
:103A9000064621F00700C01CC4F80CC02CE01868D2
:103AA00040F001001860A068401CA060AA682E6960
:103AB000824222D8E8686861666821F00700801CAD
:103AC0001AE01E6846F001061E60A3685B1CA36036
:103AD0006B695B1C6B61E66802EB830206EB4007D7
:103AE00097FBF2F6A0EB060697FBF2F002FB1070D4
:103AF000E06002D421F0070028706E60BDE8F0811C
:103B00008C000020000C0140200400203404004000
:103B100020040040440200200148FEF7B1BB000031
:103B2000440200202DE9F047594DDFF868A1012734
:103B3000A8784FF00009A846012805D10121504678
:103B4000FDF7BCFBF8B1AF70534C544A60684108B4
:103B5000116052491039086098F80030590703D4B1
:103B6000217821F00701217021784D4A11F0070CCE
:103B700019D0BCF1010F32D0BCF1020F69D0BCF1F9
:103B8000030F2BD153E001215046FDF797FB6870DE
:103B900098F8000020F0040088F800004148077001
:103BA00085F80290D0E723F00401C5F8089088F862
:103BB0000010C5F80C90106820F4807010603A482E
:103BC000FEF7DAFA98F80000002220F0010088F8E9
:103BD00000004FF400715046FDF775FB55E0136887
:103BE00043F480731360AA68521CAA606669761C4D
:103BF0006661EB6807EB860703EB400393FBF7F680
:103C0000861B93FBF7F007FB1030E860A06890423A
:103C100002D8E068606118E02069B04235D36E6078
:103C2000064621F00700C01CC5F80C902CE0106877
:103C300040F480701060A868401CA860A2682669E3
:103C4000824222D8E06860616E6821F00700801C23
:103C50001AE0136843F480731360AA68521CAA60C8
:103C60006269521C6261EB6807EB820703EB400359
:103C700093FBF7F6A0EB060693FBF7F007FB10307B
:103C8000E86002D421F0070020706660BDE8F0878C
:103C90004C000020000C0140080400203C080040BB
:103CA00020080040C80000208C0200200148FEF7D8
:103CB000E7BA00008C020020F0B50268164B174CE2
:103CC000174D4FF08047984205D0B84203D0A0422C
:103CD00001D0A84203D122F070064A6832439842CC
:103CE00005D0B84203D0A04201D0A84203D122F4AB
:103CF0004074CA6822434C6922F080022243026069
:103D00008A68C2620A688262984201D109690163C5
:103D100001214161F0BD0000002C01400004004081
:103D20000008004010B5846842EA032224F47F446E
:103D30000A432243826010BD826822F070020A4367
:103D400042F007018160704730B5026A22F001023B
:103D50000262026A4368846924F073050C682C438C
:103D600022F002058A682A430A4DA8420BD122F0AC
:103D70000805CA6823F440732A434D6922F00402FF
:103D80001D438B692B434360846149684163026230
:103D900030BD0000002C014030B5026A22F0100254
:103DA0000262026A436884690D6824F4E64444EAC6
:103DB00005248D6822F0200242EA05120B4DA8422C
:103DC0000ED1CD6822F0800242EA05124D6923F43B
:103DD000406343EA85038D6922F0400243EA85038C
:103DE0004360846149688163026230BD002C0140F8
:103DF00030B5026A22F480720262036A4268C469C2
:103E000023F4007324F073050C682C438D6843EA97
:103E100005230C4DA8420ED1CD6823F4006343EA7C
:103E200005234D6922F4405242EA05128D6923F4BC
:103E3000806342EA05124260C4614968C16303625B
:103E400030BD0000002C014030B5026A22F48052DF
:103E50000262046A4268C3690D6823F4E64343EAD8
:103E600005238D6824F4005444EA0534064DA84225
:103E700004D14D6922F4804242EA85124260C36156
:103E800049680164046230BD002C014010B5036A2A
:103E9000046A24F001040462846924F0F00444EA12
:103EA000021423F00A020A438461026210BD10B5B5
:103EB000036A23F0100303628369046A23F47043E6
:103EC00043EA023224F0A00343EA01118261016255
:103ED00010BD10B5406A0021C185C184FEF7EAFB20
:103EE00010BD0168CA6822F49072CA6001684A690C
:103EF00022F001024A61016B012904D10168CA68FC
:103F000022F01002CA60202180F83E1000210163D7
:103F1000704708B590F83E10222901D0022008BD54
:103F200082684FF480539A4201D1016921B1816ABC
:103F30009A421BD04AB10AE00268816A5268C2F311
:103F400008020A80816A891C08E0026972B102686D
:103F5000526802F07F020A70816A491C8162C18D39
:103F6000491E0904090CC18503D019E00268526892
:103F7000F1E70168CA6822F02002CA600168CA68D5
:103F800022F48072CA6001684A6922F001024A6123
:103F9000202180F83E10016B012903D0FEF76EFD51
:103FA000002008BD002101630168CA6822F01002E8
:103FB000CA6001680A68D20602D50A684968009199
:103FC000818DFEF776FBEBE770B50446006801696A
:103FD000E26821F44051114301612169A06808435E
:103FE000616908432168CA6841F20C639A4302433D
:103FF000CA6020684169A26921F44071114341619E
:104000001E492068884202D1FDF7CEFD01E0FDF790
:10401000BBFD00EBC00101EB001260686421800071
:10402000B2FBF0F3B3FBF1F36FF018067343B2FB8E
:10403000F0F5B2FBF0F605EB8305322303EB051533
:10404000B5FBF1F5B6FBF1F605F0F00505EB06154D
:10405000B2FBF0F6B2FBF0F0B0FBF1F06FF018023B
:10406000504306EB800003EB0010B0FBF1F0216839
:1040700000F00F002844886070BD00000038014047
:1040800081628285C28500210164222280F83E205F
:1040900080F83C100168CA6842F48072CA60016806
:1040A0004A6942F001024A610068C16841F020019A
:1040B000C160002070472DE9F041984617460E4632
:1040C0000446069D1DE0681C1BD02DB1FDF700F9CC
:1040D000A0EB0800A84214D92068C16821F4D0716F
:1040E000C1602068416921F001014161202084F80C
:1040F0003D0084F83E00002084F83C000320BDE829
:10410000F0812068006836EA000004D00020B84240
:10411000D9D00020F3E70120F9E700000148FEF7BD
:10412000CBBA0000180300200148FEF7C5BA000012
:104130005C0300200148FCF70DBD000038010020A1
:10414000FEE7000001B54FF47A7301226946024888
:10415000FEF7F4FC08BD0000180300200FB4054B67
:1041600010B503A9044A029800F02EF810BC5DF8BF
:1041700014FB000081460008000100200907090E19
:10418000002804DB00F1E02080F80014704700F004
:104190000F0000F1E02080F8141D704702E008C80D
:1041A000121F08C1002AFAD170477047002001E0B1
:1041B00001C1121F002AFBD17047000001490860AD
:1041C00070470000040100202DE9FF4F8DB00F461D
:1041D0000546002606E025280BD0DDE90F129047A2
:1041E0006D1C761C28780028F5D111B03046BDE84A
:1041F000F08F0024A246A1460122EC4900E00443CE
:1042000015F8013F203B02FA03F00842F7D1287865
:104210002A2810D06FF02F022878A0F13001092948
:1042200014D80AEB8A0102EB410144F0020400EBCE
:10423000010A6D1CF0E701CF5FEA000A03D544F4E0
:104240000054CAF1000A44F002046D1C28782E289C
:1042500017D115F8010F44F004042A280ED06FF08E
:104260002F022878A0F1300109290AD809EB890129
:1042700002EB410100EB01096D1CF2E757F8049BCA
:104280006D1C28786C280FD006DC4C2817D06828C5
:104290000DD06A2814D104E0742810D07A280FD1E8
:1042A0000DE044F400140AE044F4801401E044F406
:1042B00040146978814202D104F580146D1C6D1C94
:1042C0002A786E2A1FD00CDC632A31D004DC002A45
:1042D0008BD0582A11D1A3E0642A68D0692A0CD166
:1042E00065E0732A2ED004DC6F2A73D0702A04D1C3
:1042F0009BE0752A6FD0782A6ED01046DDE90F1248
:104300009047761C50E1C4F30250022806D00328DF
:1043100009D0042801CF09D0066045E101CFF1178B
:10432000C0E9006140E101CF06803DE106703BE15C
:1043300017F8040B8DF8000000208DF80100EB4603
:10434000012003E057F804BB4FF0FF3061074FF046
:10435000000102D40DE008F10101884649450FDA59
:104360008045F8DB1BF808100029F4D108E008F1BB
:10437000010188468142FADB1BF808100029F6D1BA
:10438000DDE90F23AAEB08008146214600F036F94B
:10439000304400EB080604E0DDE90F121BF8010BC6
:1043A0009047B8F10108F7D221464846F7E00A21C4
:1043B000C4F302534FF0000B0891022B04D001CF3D
:1043C000C117032B09D00AE0FF1D27F00707F7E804
:1043D000020108E032E01FE020E000B2C117042B28
:1043E00001D140B2C117031E71F1000307DA4FF08B
:1043F000000CD0EB0C006CEB01012D2302E0230537
:1044000004D52B238DF82430012303E0E30701D0EA
:104410002023F7E7984658E00A2110E010210EE02B
:1044200010204FF0000B08900CE010214FF0000B13
:1044300044F004044FF00809089103E008214FF00C
:10444000000B0891C4F30253022B04D001CF0021CA
:10445000032B06D006E0FF1D27F00707F7E802014F
:1044600003E080B2042B00D1C0B24FF00008230754
:104470002BD5702A07D0DDF820C08CF0100C5CEA38
:104480000B0C05D00EE040238DF82430012308E00A
:1044900050EA010306D030238DF824308DF8252012
:1044A00002239846DDF820C08CF0080C5CEA0B0C67
:1044B0000BD150EA010301D1630706D530238DF8F3
:1044C00024304FF00108A9F10109582A04D038A27C
:1044D0000B9208AA0A920BE03AA2F9E75B46089A07
:1044E000FBF749FF0B9B9B5C0A9A521E0A921370C2
:1044F00050EA0102F2D10A98ADEB000000F1200B66
:10450000600702D524F4803401E04FF00109D94559
:1045100002DDA9EB0B0000E0002000EB0B014144A1
:104520000890AAEB010AE00306D4DDE90F23214637
:10453000504600F063F806444FF0000908E009A96E
:1045400011F80900DDE90F12904709F10109761C05
:10455000C145F4DBE0030CD5DDE90F2321465046CD
:1045600000F04CF8064404E0DDE90F1230209047DB
:10457000761C0899481E08900029F5DC08E00A9886
:104580000A990078491C0A91DDE90F129047761CC0
:10459000BBF10001ABF1010BF1DC21465046DDE936
:1045A0000F2300F019F806446D1C1BE609280100D2
:1045B0003031323334353637383961626364656699
:1045C000000000003031323334353637383941425B
:1045D00043444546000000002DE9F0410446002513
:1045E0001E461746880404D405E039462020B0470B
:1045F0006D1C641EF9D52846BDE8F0812DE9F04117
:10460000044600251E469046C80301D5302700E029
:104610002027880404D505E041463846B0476D1C84
:10462000641EF9D52846BDE8F08142F21072B0FB55
:10463000F2F210B530320A704FF47A72B0FBF2F336
:104640000A22B3FBF2F402FB143330334B706423C1
:10465000B0FBF3F3B3FBF2F402FB143330338B7093
:10466000B0FBF2F3B3FBF2F402FB14333033CB7044
:10467000B0FBF2F302FB13003030087110BD0000F4
:1046800013B54FF6FF73012269460248FEF756FA4A
:1046900000981CBD180300201FB51F481F49037850
:1046A0000B7042784A7084788C70C478CC7004792E
:1046B0000C7144794C7184798C71C479CC7118492E
:1046C0000968152927D1D32B25D1722A23D1EE21B0
:1046D0008DF8001001218DF80110FF218DF80A10CE
:1046E0000D218DF80B100A218DF80C1000216A465F
:1046F000435C5418491CA3700829F9DB3220FCF7ED
:10470000B1FC4FF47A730D2269460648FEF716FA9B
:104710003220FCF7A7FC1FBD05000020C0000020D0
:10472000D4030020180300202DE9FC47F14C42F28D
:104730001071DFF8C4C3E07822793038484302EBC7
:104740004201C1EBC21100EBC100617994F8008015
:1047500001EBC10303EB0117A17900EB870001EB2B
:104760008106E37900EB4600C5182046A5F55045C3
:104770004078503D4FF001094FF40051B8F1060F59
:1047800071D016DCDB49B8F1010F897818D0B8F187
:10479000040F4BD0B8F1050F24D1EE20FFF7D2FC67
:1047A0006178D648012971D0022970D003296FD0D1
:1047B00063E1B8F1070F6CD0B8F1D30F12D11BE051
:1047C000CC4A926980B101280CD101291FD002295D
:1047D00008D14FF4FA60854200D9054600212846E9
:1047E00000F012FBBDE8FC87012903D002290AD0A2
:1047F00011B1F7E7C82A02D0C82000F0E3FAC820B8
:1048000000F07EFAEEE7C82000F0DCFAEAE7C82AFA
:1048100002D0C82000F0D6FA41F66D20854200D9BA
:1048200005460021284600F08BFADBE74FF47A7545
:10483000303A6A4302EB870202EB46021344B04E61
:10484000A3F5A053AF4D3288D03B012804D00228F5
:1048500050D003287DD0E8E0012905D002291BD0E3
:10486000032930D0E1E01EE199B21046FEF7FEFBCD
:10487000E1782888FEF736FC1420FCF7F3FB30883B
:10488000FEF79EFBA0490880014603E0D0E0DEE091
:10489000FAE01AE19DA0C6E0921C99B290B2FEF730
:1048A000E5FB2888E178401C80B2FEF71BFC0A205B
:1048B000FCF7D8FB9C480088FEF782FB9B490880E8
:1048C00001469BA0AFE0121D99B290B2FEF7CEFB5D
:1048D0002888E178801C80B2FEF704FC0A20FCF7EF
:1048E000C1FB9A480088FEF76BFB99490880014696
:1048F00098A098E0012904D0022919D0032930D0CA
:1049000093E0921D99B290B2FEF7B0FB2888E1784F
:10491000C01C80B2FEF7E6FB0A20FCF7A3FB94481C
:104920000088FEF74DFB93490880014692A07AE08B
:10493000083299B290B2FEF799FB2888E178001D01
:1049400080B2FEF7CFFB0A20FCF78CFB9148008871
:1049500000E01DE0FEF734FB8F49088001468FA080
:1049600061E00A3299B290B2FEF780FB2888E178C4
:10497000401D80B2FEF7B6FB0A20FCF773FB8E48A1
:104980000088FEF71DFB8D49088001468CA04AE097
:10499000012904D0022919D003292ED045E00C3278
:1049A00099B290B2FEF762FB2888E178801D80B250
:1049B000FEF798FB0A20FCF755FB88480088FEF7B5
:1049C000FFFA87490880014686A02CE00E3299B292
:1049D00090B2FEF74BFB2888E178C01D80B2FEF74D
:1049E00081FB0A20FCF73EFB85480088FEF7E8FAC9
:1049F00084490880014684A015E0103299B290B233
:104A0000FEF734FB2888E178083080B2FEF76AFBB5
:104A10000A20FCF727FB83480088FEF7D1FA824979
:104A20000880014681A0FFF799FBFEF745FFD9E614
:104A30001021FCF743FC012804D0CC20FFF782FBB7
:104A400001200DE0AA20FFF77DFB012010E02021CE
:104A5000FCF734FC012807D0CC20FFF773FB0220C1
:104A6000FFF770FBDD2006E0AA20FFF76BFB0220BA
:104A7000FFF768FBBB20FFF765FB0D20FFF762FB2C
:104A80000A20FFF75FFBADE64021FCF717FC012889
:104A900004D0CC20FFF756FB0320E1E7AA20FFF764
:104AA00051FB0320E4E7012808D00028BFD10022F1
:104AB0006046FCF708FC0220A07293E601226046E3
:104AC000FCF701FC84F80A908CE601226046FCF7B2
:104AD000FAFB84F80A904FF47A70FCF7C3FA5AA1F3
:104AE000FF22D1E90001CDE9000169465848FBF7F2
:104AF0006FFD77E6C0000020000C01400008014077
:104B0000240000202600002028000020B5DAD2BBB7
:104B1000D7E9B3F6B2D6B5E7BBFAB2B9B3A531312E
:104B2000313D25640D0A00002A0000203A000020D3
:104B3000B5DAD2BBD7E9B4C5B0F4B5E7BBFAB2B9C0
:104B4000B3A53232323D25640D0A00002C0000204E
:104B50003C000020B5DAD2BBD7E9D5F0B5B4B5E753
:104B6000BBFAB2B9B3A53333333D25640D0A000057
:104B70002E0000203E000020B5DAB6FED7E9B3F6DD
:104B8000B2D6B5E7BBFAB2B9B3A53434343D256427
:104B90000D0A00003000002040000020B5DAB6FE0B
:104BA000D7E9B4C5B0F4B5E7BBFAB2B9B3A53535AA
:104BB000353D25640D0A000032000020420000202F
:104BC000B5DAB6FED7E9D5F0B5B4B5E7BBFAB2B9F8
:104BD000B3A53636363D25640D0A000034000020AA
:104BE00044000020B5DAC8FDD7E9B3F6B2D6B5E780
:104BF000BBFAB2B9B3A537373D25640D0A000000F2
:104C00003600002046000020B5DAC8FDD7E9B4C55B
:104C1000B0F4B5E7BBFAB2B9B3A53838383D25646E
:104C20000D0A00003800002048000020B5DAC8FD59
:104C3000D7E9D5F0B5B4B5E7BBFAB2B9B3A5393900
:104C4000393D25640D0A0000D3700000000000000B
:104C50003801002010B5C82000F0B4F8C82000F0DA
:104C60004FF808A0FFF77AFA42F21070FCF7FAF951
:104C7000FEF722FE0120064900220A54401C0928A2
:104C8000FBDB10BD73797374656D20696E69740008
:104C9000E4000020FCF7DCFDFEF755FEFEF79AFA73
:104CA000FEF758FAFEF77CFBFEF706FBFEF74CFC1E
:104CB000FEF766FCFEF780FCFEF726FAFEF7A4FB83
:104CC000FEF7F2FBFEF718FB0948FDF729FA01226F
:104CD00008490948FDF7BCFE012206490748FDF7CF
:104CE000B7FEFFF7B7FF00BF00F016FAFCE70000C1
:104CF000FC01002001000020180300205C030020BC
:104D000070B50D4D0446012220212846FCF7DBFA40
:104D100041F6583203210120FEF7EEFC002220214B
:104D20002846FCF7D0FA224602210120FEF7E4FCD7
:104D300002490020086070BD000C0140F000002016
:104D40002DE9F0411C4D1D4E0F46286031681C4B6B
:104D5000884209D94FF000024FF020011846FCF7B5
:104D6000B2FA2868316809E021D24FF001024FF011
:104D700020011846FCF7A7FA30682968441A4FF456
:104D8000FA70844205D9224601213846FEF7B4FC68
:104D900004E0844202D12246012105E0601EB0F504
:104DA000F97F04D8224602213846FEF7A5FC286880
:104DB0003060BDE8F0810000F4000020F000002029
:104DC000000C014070B501220D4E0446D503294662
:104DD0003046FCF778FA41F2883202210120FEF7D2
:104DE0003BFD002229463046FCF76DFA224602219F
:104DF0000120FEF731FD03490020086070BD00006E
:104E000000080140D800002070B50E4640F6B831C9
:104E100088422BD8164C174D174B20602A684FF448
:104E20000041904207D94FF000021846FCF74BFAB8
:104E30002068296807E017D24FF001021846FCF7F6
:104E400042FA28682168421A4FF4FA70824201D867
:104E5000824201D1012104E0501EB0F5F97F03D850
:104E600002213046FEF7F8FC2068286070BD000083
:104E7000F8000020D8000020000801402DE9F04192
:104E80005B4D01225B4C6E784FF47A73002076B351
:104E9000102E6AD0112E5ED00021A4F1080700BFA9
:104EA00005EB010C9CF802C007F801C0491C082959
:104EB000F6DB012E78D0022E6FD0032E64D1E1797B
:104EC000FA2900D9E071E0794A49401CE071227268
:104ED0000C224948FDF732FE3220FCF7C3F80322CA
:104EE000BDE8F041434945480839FBF771BB61789B
:104EF000FA2900D9607060781E46401C6070A2706C
:104F00000C223C493C48FDF719FE3220FCF7AAF878
:104F100033460C2237493848FDF710FE3220FCF7A3
:104F2000A1F83448A97824380170E97841702979CA
:104F300081706979C170A9790171E9794171297A22
:104F40008171697AC171FFF7EFFB0220A0703220F6
:104F5000FCF788F833460C2226492748FDF7EEFD7A
:104F6000BDE8F0413220FCF77DB8A97871B1012984
:104F70000FD0022912D0032913D0042904D1012112
:104F80006054491C0829FBDDBDE8F0816070A07009
:104F9000FAE7E0702071F7E706E017E06071A071B2
:104FA000F2E7E0712072EFE7E178FA2900D9E070CA
:104FB000E0781049401CE07022710C220E48FDF789
:104FC000BDFD3220FCF74EF8012289E76179FA290C
:104FD00000D9607160790749401C6071A2710C2290
:104FE0000548FDF7ABFD3220FCF73CF8022277E7DD
:104FF000A0030020E4000020180300203801002056
:105000002DE9FF412E4F06460C46B878042100EBEF
:1050100056001546C0B28DF80010FEF705F88DF861
:1050200003003046FDF7CCFFB88002A9FFF7FDFA78
:10503000002002A96E460A1833185278401C1A71D3
:105040000428F8DB8DF801408DF8025022463146E5
:105050001C48FBF7BDFA6420FCF704F80025705DDE
:10506000FFF770F86D1C082DF9DB174D012C07D0E8
:10507000022C0FD0032C17D01CE00A20FBF7F2FF04
:1050800010212846FCF71AF90128F6D012E00A2070
:10509000FBF7E8FF20212846FCF710F90128F6D09D
:1050A00008E00A20FBF7DEFF40212846FCF706F95E
:1050B0000128F6D06420FBF7D5FFBDE8FF81000092
:1050C0002400002038010020000801402DE9F041B3
:1050D00006460F46FBF7DDF9041E0D4618BF0120FA
:1050E000284320F00040C0F17F6000F1E040C00F95
:1050F0000ED0301C18BF0120384320F00040C0F112
:105100007F6000F1E040C00F04BF0120FFF756F8B8
:1051100020462946BDE8F08170B50C4C002520786A
:1051200001280CD0022810D109480068112809D0A4
:10513000122807D0132805D0152803D004E0FFF764
:105140009DFE01E0FFF7A8FA257070BD0400002065
:10515000D40300200000000000000000010203044E
:105160000607080900000000010203048C51000832
:1051700000000020080100009C4100089452000833
:105180000801002030070000AC41000802000000C8
:10519000000000000000000000000000000000000F
:1051A0000100000010000000000000000024F400D6
:1051B00000001200000002000400060008000A00BF
:1051C0000C000E00100000000000000000000000B5
:1051D00000000000000000000400000000000000CB
:1051E0000000000000000000200300002003000079
:1051F000F40100002C0100002C010000A5000000BB
:10520000C8000000C8000000C800000064000000E2
:1052100064000000640000000400000000000000C2
:105220000000000000000000200300002003000038
:10523000F40100009600000096000000AA000000A3
:105240006400000064000000640000000000000032
:10525000000000000000000000000000000000004E
:105260000000000000000000112233445544555551
:10527000EE0000000000000000FF0D0A000000002A
:10528000000000000000000000000000000000001E
:04529000000000001A
:04000005080000ED02
:00000001FF
